{
  "contractName": "Issuer",
  "abi": [
    {
      "constant": true,
      "inputs": [],
      "name": "withdrawDelay",
      "outputs": [
        {
          "name": "",
          "type": "uint256"
        }
      ],
      "payable": false,
      "stateMutability": "view",
      "type": "function",
      "signature": "0x0288a39c"
    },
    {
      "inputs": [
        {
          "name": "delay",
          "type": "uint256"
        },
        {
          "name": "value",
          "type": "uint256"
        }
      ],
      "payable": false,
      "stateMutability": "nonpayable",
      "type": "constructor",
      "signature": "constructor"
    },
    {
      "constant": false,
      "inputs": [
        {
          "name": "token",
          "type": "address"
        }
      ],
      "name": "applyToken",
      "outputs": [],
      "payable": true,
      "stateMutability": "payable",
      "type": "function",
      "signature": "0x1612ec4f"
    },
    {
      "constant": false,
      "inputs": [
        {
          "name": "token",
          "type": "address"
        }
      ],
      "name": "depositFee",
      "outputs": [],
      "payable": true,
      "stateMutability": "payable",
      "type": "function",
      "signature": "0x80352cfd"
    },
    {
      "constant": false,
      "inputs": [
        {
          "name": "token",
          "type": "address"
        }
      ],
      "name": "resignToken",
      "outputs": [],
      "payable": false,
      "stateMutability": "nonpayable",
      "type": "function",
      "signature": "0x5b6e7890"
    },
    {
      "constant": false,
      "inputs": [
        {
          "name": "token",
          "type": "address"
        }
      ],
      "name": "reActiveToken",
      "outputs": [],
      "payable": false,
      "stateMutability": "nonpayable",
      "type": "function",
      "signature": "0x9669f625"
    },
    {
      "constant": false,
      "inputs": [
        {
          "name": "token",
          "type": "address"
        }
      ],
      "name": "withdrawToken",
      "outputs": [],
      "payable": false,
      "stateMutability": "nonpayable",
      "type": "function",
      "signature": "0x89476069"
    }
  ],
  "bytecode": "0x608060405234801561001057600080fd5b5060405160408061062a8339810160405280516020909101516000919091556003556105e9806100416000396000f3006080604052600436106100775763ffffffff7c01000000000000000000000000000000000000000000000000000000006000350416630288a39c811461007c5780631612ec4f146100a35780635b6e7890146100b957806380352cfd146100da57806389476069146100ee5780639669f6251461010f575b600080fd5b34801561008857600080fd5b50610091610130565b60408051918252519081900360200190f35b6100b7600160a060020a0360043516610136565b005b3480156100c557600080fd5b506100b7600160a060020a0360043516610242565b6100b7600160a060020a03600435166102fd565b3480156100fa57600080fd5b506100b7600160a060020a03600435166103cd565b34801561011b57600080fd5b506100b7600160a060020a03600435166104fe565b60005481565b80600160a060020a038116151561014c57600080fd5b60035434101561015b57600080fd5b600160a060020a03818116600090815260026020526040902054161561018057600080fd5b506001805480820182557fb10e2d527612073b26eecdfd717e6a320cf44b4afac2b0732d9fcbe2b7fa0cf6018054600160a060020a0393841673ffffffffffffffffffffffffffffffffffffffff1991821681179092556040805160808101825233815234602082810191825282840187815260006060850181815297815260029283905294909420925183549816979094169690961781559451938501939093559151918301805492151560ff199093169290921790915551600390910155565b600081600160a060020a038116151561025a57600080fd5b600160a060020a0381811660009081526002602052604090205416331461028057600080fd5b82600160a060020a038116151561029657600080fd5b600160a060020a0381166000908152600260208190526040909120015460ff1615156102c157600080fd5b6000546102d4904363ffffffff6105a416565b50505050600160a060020a0316600090815260026020819052604090912001805460ff19169055565b600081600160a060020a038116151561031557600080fd5b600160a060020a0381811660009081526002602052604090205416331461033b57600080fd5b82600160a060020a038116151561035157600080fd5b600160a060020a0381166000908152600260208190526040909120015460ff16151561037c57600080fd5b600160a060020a0384166000908152600260205260409020600101546103a8903463ffffffff6105a416565b600160a060020a03909416600090815260026020526040902060010193909355505050565b80600160a060020a03811615156103e357600080fd5b600160a060020a0381811660009081526002602052604090205416331461040957600080fd5b81600160a060020a038116151561041f57600080fd5b600160a060020a0381166000908152600260208190526040909120015460ff161561044957600080fd5b600160a060020a0381166000908152600260205260408120600301541161046f57600080fd5b600160a060020a03811660009081526002602052604090206003015443111561049757600080fd5b600160a060020a038316600090815260026020526040808220600101549051339282156108fc02929190818181858888f193505050501580156104de573d6000803e3d6000fd5b505050600160a060020a0316600090815260026020526040812060010155565b80600160a060020a038116151561051457600080fd5b600160a060020a0381811660009081526002602052604090205416331461053a57600080fd5b81600160a060020a038116151561055057600080fd5b600160a060020a0381166000908152600260208190526040909120015460ff161561057a57600080fd5b5050600160a060020a0316600090815260026020819052604090912001805460ff19166001179055565b6000828201838110156105b657600080fd5b93925050505600a165627a7a72305820fd0a8fbbab1574e5b7d6138ce0f504ec54abd8c0ffa2e22384315e294cb3f9640029",
  "source": "pragma solidity ^0.4.24;\n\nlibrary SafeMath {\n\n\t/**\n\t * @dev Multiplies two numbers, reverts on overflow.\n\t */\n\tfunction mul(uint256 a, uint256 b) internal pure returns (uint256) {\n\t\t// Gas optimization: this is cheaper than requiring 'a' not being zero, but the\n\t\t// benefit is lost if 'b' is also tested.\n\t\t// See: https://github.com/OpenZeppelin/openzeppelin-solidity/pull/522\n\t\tif (a == 0) {\n\t\t\treturn 0;\n\t\t}\n\n\t\tuint256 c = a * b;\n\t\trequire(c / a == b);\n\n\t\treturn c;\n\t}\n\n\t/**\n\t * @dev Integer division of two numbers truncating the quotient, reverts on division by zero.\n\t */\n\tfunction div(uint256 a, uint256 b) internal pure returns (uint256) {\n\t\trequire(b > 0); // Solidity only automatically asserts when dividing by 0\n\t\tuint256 c = a / b;\n\t\t// assert(a == b * c + a % b); // There is no case in which this doesn't hold\n\n\t\treturn c;\n\t}\n\n\t/**\n\t* @dev Subtracts two numbers, reverts on overflow (i.e. if subtrahend is greater than minuend).\n\t*/\n\tfunction sub(uint256 a, uint256 b) internal pure returns (uint256) {\n\t\trequire(b <= a);\n\t\tuint256 c = a - b;\n\n\t\treturn c;\n\t}\n\n\t/**\n\t* @dev Adds two numbers, reverts on overflow.\n\t*/\n\tfunction add(uint256 a, uint256 b) internal pure returns (uint256) {\n\t\tuint256 c = a + b;\n\t\trequire(c >= a);\n\n\t\treturn c;\n\t}\n\n\t/**\n\t* @dev Divides two numbers and returns the remainder (unsigned integer modulo),\n\t* reverts when dividing by zero.\n\t\t*/\n\tfunction mod(uint256 a, uint256 b) internal pure returns (uint256) {\n\t\trequire(b != 0);\n\t\treturn a % b;\n\t}\n}\n\ncontract Issuer {\n    using SafeMath for uint256;\n\n    uint256 public withdrawDelay;\n    address[] tokens;\n    mapping(address=>TokenState) tokenStates;\n    uint256 minApply;\n\n    struct TokenState{\n        address owner;\n        uint256 balance;\n        bool isActive;\n        uint256 endNumber;\n    }\n\n    constructor (uint256 delay, uint256 value) public {\n        withdrawDelay=delay;\n        minApply=value;\n    }\n\n    modifier isOwnerToken(address token){\n        require(token != address(0));\n        require(tokenStates[token].owner==msg.sender);\n        _;\n    }\n    modifier onlyValidNewToken(address token){\n        require(token != address(0));\n        require(msg.value >= minApply);\n        require(tokenStates[token].owner==address(0));\n        _;\n    }\n\n    modifier onlyValidActiveToken(address token){\n        require(token != address(0));\n        require(tokenStates[token].isActive);\n        _;\n    }\n\n    modifier onlyValidWithDrawToken(address token){\n        require(token != address(0));\n        require(!tokenStates[token].isActive);\n        require(tokenStates[token].endNumber>0);\n        require(tokenStates[token].endNumber>=block.number);\n        _;\n    }\n\n    modifier onlyValidReActiveToken(address token){\n        require(token != address(0));\n        require(!tokenStates[token].isActive);\n        _;\n    }\n\n    function applyToken(address token) public payable onlyValidNewToken(token){\n        tokens.push(token);\n        tokenStates[token] = TokenState({\n            owner: msg.sender,\n            isActive: true,\n            balance:msg.value,\n            endNumber:0\n        });\n    }\n\n    function depositFee(address token) public payable isOwnerToken(token) onlyValidActiveToken(token){\n        uint256 newBalance = tokenStates[token].balance.add(msg.value);\n        tokenStates[token].balance=newBalance;\n    }\n\n    function resignToken(address token) public isOwnerToken(token) onlyValidActiveToken(token) {\n        uint256 withdrawNumber = withdrawDelay.add(block.number);\n        tokenStates[token].endNumber==withdrawNumber;\n        tokenStates[token].isActive=false;\n    }\n\n    function reActiveToken(address token) public isOwnerToken(token) onlyValidReActiveToken(token) {\n        tokenStates[token].endNumber==0;\n        tokenStates[token].isActive=true;\n    }\n\n    function withdrawToken(address token) public isOwnerToken(token) onlyValidWithDrawToken(token) {\n        msg.sender.transfer(tokenStates[token].balance);\n        tokenStates[token].balance=0;\n    }\n}\n",
  "sourcePath": "/home/vagrant/projects/tomoissuer/contracts/Issuer.sol",
  "compiler": {
    "name": "solc",
    "version": "0.4.26+commit.4563c3fc.Emscripten.clang"
  },
  "schemaVersion": "3.0.6",
  "updatedAt": "2019-05-13T10:18:55.852Z",
  "devdoc": {
    "methods": {}
  },
  "userdoc": {
    "methods": {}
  }
}