{
    "contractName": "MyTRC20Mintable",
    "abi": [
        {
            "constant": false,
            "inputs": [
                {
                    "name": "spender",
                    "type": "address"
                },
                {
                    "name": "value",
                    "type": "uint256"
                }
            ],
            "name": "approve",
            "outputs": [
                {
                    "name": "",
                    "type": "bool"
                }
            ],
            "payable": false,
            "stateMutability": "nonpayable",
            "type": "function"
        },
        {
            "constant": true,
            "inputs": [],
            "name": "totalSupply",
            "outputs": [
                {
                    "name": "",
                    "type": "uint256"
                }
            ],
            "payable": false,
            "stateMutability": "view",
            "type": "function"
        },
        {
            "constant": false,
            "inputs": [
                {
                    "name": "from",
                    "type": "address"
                },
                {
                    "name": "to",
                    "type": "address"
                },
                {
                    "name": "value",
                    "type": "uint256"
                }
            ],
            "name": "transferFrom",
            "outputs": [
                {
                    "name": "",
                    "type": "bool"
                }
            ],
            "payable": false,
            "stateMutability": "nonpayable",
            "type": "function"
        },
        {
            "constant": false,
            "inputs": [
                {
                    "name": "spender",
                    "type": "address"
                },
                {
                    "name": "addedValue",
                    "type": "uint256"
                }
            ],
            "name": "increaseAllowance",
            "outputs": [
                {
                    "name": "",
                    "type": "bool"
                }
            ],
            "payable": false,
            "stateMutability": "nonpayable",
            "type": "function"
        },
        {
            "constant": true,
            "inputs": [
                {
                    "name": "owner",
                    "type": "address"
                }
            ],
            "name": "balanceOf",
            "outputs": [
                {
                    "name": "",
                    "type": "uint256"
                }
            ],
            "payable": false,
            "stateMutability": "view",
            "type": "function"
        },
        {
            "constant": false,
            "inputs": [
                {
                    "name": "account",
                    "type": "address"
                }
            ],
            "name": "addMinter",
            "outputs": [],
            "payable": false,
            "stateMutability": "nonpayable",
            "type": "function"
        },
        {
            "constant": false,
            "inputs": [],
            "name": "renounceMinter",
            "outputs": [],
            "payable": false,
            "stateMutability": "nonpayable",
            "type": "function"
        },
        {
            "constant": false,
            "inputs": [
                {
                    "name": "spender",
                    "type": "address"
                },
                {
                    "name": "subtractedValue",
                    "type": "uint256"
                }
            ],
            "name": "decreaseAllowance",
            "outputs": [
                {
                    "name": "",
                    "type": "bool"
                }
            ],
            "payable": false,
            "stateMutability": "nonpayable",
            "type": "function"
        },
        {
            "constant": false,
            "inputs": [
                {
                    "name": "to",
                    "type": "address"
                },
                {
                    "name": "value",
                    "type": "uint256"
                }
            ],
            "name": "transfer",
            "outputs": [
                {
                    "name": "",
                    "type": "bool"
                }
            ],
            "payable": false,
            "stateMutability": "nonpayable",
            "type": "function"
        },
        {
            "constant": true,
            "inputs": [
                {
                    "name": "account",
                    "type": "address"
                }
            ],
            "name": "isMinter",
            "outputs": [
                {
                    "name": "",
                    "type": "bool"
                }
            ],
            "payable": false,
            "stateMutability": "view",
            "type": "function"
        },
        {
            "constant": true,
            "inputs": [
                {
                    "name": "owner",
                    "type": "address"
                },
                {
                    "name": "spender",
                    "type": "address"
                }
            ],
            "name": "allowance",
            "outputs": [
                {
                    "name": "",
                    "type": "uint256"
                }
            ],
            "payable": false,
            "stateMutability": "view",
            "type": "function"
        },
        {
            "inputs": [
                {
                    "name": "name",
                    "type": "string"
                },
                {
                    "name": "symbol",
                    "type": "string"
                },
                {
                    "name": "decimals",
                    "type": "uint8"
                },
                {
                    "name": "cap",
                    "type": "uint256"
                }
            ],
            "payable": false,
            "stateMutability": "nonpayable",
            "type": "constructor"
        },
        {
            "anonymous": false,
            "inputs": [
                {
                    "indexed": true,
                    "name": "account",
                    "type": "address"
                }
            ],
            "name": "MinterAdded",
            "type": "event"
        },
        {
            "anonymous": false,
            "inputs": [
                {
                    "indexed": true,
                    "name": "account",
                    "type": "address"
                }
            ],
            "name": "MinterRemoved",
            "type": "event"
        },
        {
            "anonymous": false,
            "inputs": [
                {
                    "indexed": true,
                    "name": "from",
                    "type": "address"
                },
                {
                    "indexed": true,
                    "name": "to",
                    "type": "address"
                },
                {
                    "indexed": false,
                    "name": "value",
                    "type": "uint256"
                }
            ],
            "name": "Transfer",
            "type": "event"
        },
        {
            "anonymous": false,
            "inputs": [
                {
                    "indexed": true,
                    "name": "owner",
                    "type": "address"
                },
                {
                    "indexed": true,
                    "name": "spender",
                    "type": "address"
                },
                {
                    "indexed": false,
                    "name": "value",
                    "type": "uint256"
                }
            ],
            "name": "Approval",
            "type": "event"
        },
        {
            "constant": true,
            "inputs": [],
            "name": "name",
            "outputs": [
                {
                    "name": "",
                    "type": "string"
                }
            ],
            "payable": false,
            "stateMutability": "view",
            "type": "function"
        },
        {
            "constant": true,
            "inputs": [],
            "name": "symbol",
            "outputs": [
                {
                    "name": "",
                    "type": "string"
                }
            ],
            "payable": false,
            "stateMutability": "view",
            "type": "function"
        },
        {
            "constant": true,
            "inputs": [],
            "name": "decimals",
            "outputs": [
                {
                    "name": "",
                    "type": "uint8"
                }
            ],
            "payable": false,
            "stateMutability": "view",
            "type": "function"
        },
        {
            "constant": false,
            "inputs": [
                {
                    "name": "to",
                    "type": "address"
                },
                {
                    "name": "value",
                    "type": "uint256"
                }
            ],
            "name": "mint",
            "outputs": [
                {
                    "name": "",
                    "type": "bool"
                }
            ],
            "payable": false,
            "stateMutability": "nonpayable",
            "type": "function"
        },
        {
            "constant": false,
            "inputs": [
                {
                    "name": "value",
                    "type": "uint256"
                }
            ],
            "name": "burn",
            "outputs": [
                {
                    "name": "",
                    "type": "bool"
                }
            ],
            "payable": false,
            "stateMutability": "nonpayable",
            "type": "function"
        }
    ],
    "bytecode": "0x60806040523480156200001157600080fd5b5060405162000ec638038062000ec683398101604090815281516020830151918301516060840151918401939290920191906200005733640100000000620000b6810204565b83516200006c90600490602087019062000274565b5082516200008290600590602086019062000274565b506006805460ff191660ff8416179055620000ac3382640100000000620001088102620008981704565b5050505062000319565b620000d160038264010000000062000ad7620001c782021704565b604051600160a060020a038216907f6ae172837ea30b801fbfcdd4108aa1d5bf8ff775444fd70256b44e6bf3dfc3f690600090a250565b600160a060020a03821615156200011e57600080fd5b6002546200013b90826401000000006200087f6200022282021704565b600255600160a060020a0382166000908152602081905260409020546200017190826401000000006200087f6200022282021704565b600160a060020a0383166000818152602081815260408083209490945583518581529351929391927fddf252ad1be2c89b69c2b068fc378daa952ba7f163c4a11628f55a4df523b3ef9281900390910190a35050565b600160a060020a0381161515620001dd57600080fd5b620001f282826401000000006200023c810204565b15620001fd57600080fd5b600160a060020a0316600090815260209190915260409020805460ff19166001179055565b6000828201838110156200023557600080fd5b9392505050565b6000600160a060020a03821615156200025457600080fd5b50600160a060020a03166000908152602091909152604090205460ff1690565b828054600181600116156101000203166002900490600052602060002090601f016020900481019282601f10620002b757805160ff1916838001178555620002e7565b82800160010185558215620002e7579182015b82811115620002e7578251825591602001919060010190620002ca565b50620002f5929150620002f9565b5090565b6200031691905b80821115620002f5576000815560010162000300565b90565b610b9d80620003296000396000f3006080604052600436106100e55763ffffffff7c010000000000000000000000000000000000000000000000000000000060003504166306fdde0381146100ea578063095ea7b31461017457806318160ddd146101ac57806323b872dd146101d3578063313ce567146101fd578063395093511461022857806340c10f191461024c57806342966c681461027057806370a082311461028857806395d89b41146102a9578063983b2d56146102be57806398650275146102e1578063a457c2d7146102f6578063a9059cbb1461031a578063aa271e1a1461033e578063dd62ed3e1461035f575b600080fd5b3480156100f657600080fd5b506100ff610386565b6040805160208082528351818301528351919283929083019185019080838360005b83811015610139578181015183820152602001610121565b50505050905090810190601f1680156101665780820380516001836020036101000a031916815260200191505b509250505060405180910390f35b34801561018057600080fd5b50610198600160a060020a036004351660243561041c565b604080519115158252519081900360200190f35b3480156101b857600080fd5b506101c161049a565b60408051918252519081900360200190f35b3480156101df57600080fd5b50610198600160a060020a03600435811690602435166044356104a0565b34801561020957600080fd5b5061021261053d565b6040805160ff9092168252519081900360200190f35b34801561023457600080fd5b50610198600160a060020a0360043516602435610546565b34801561025857600080fd5b50610198600160a060020a03600435166024356105f6565b34801561027c57600080fd5b5061019860043561061f565b34801561029457600080fd5b506101c1600160a060020a0360043516610633565b3480156102b557600080fd5b506100ff61064e565b3480156102ca57600080fd5b506102df600160a060020a03600435166106af565b005b3480156102ed57600080fd5b506102df6106cf565b34801561030257600080fd5b50610198600160a060020a03600435166024356106da565b34801561032657600080fd5b50610198600160a060020a0360043516602435610725565b34801561034a57600080fd5b50610198600160a060020a0360043516610732565b34801561036b57600080fd5b506101c1600160a060020a036004358116906024351661074b565b60048054604080516020601f60026000196101006001881615020190951694909404938401819004810282018101909252828152606093909290918301828280156104125780601f106103e757610100808354040283529160200191610412565b820191906000526020600020905b8154815290600101906020018083116103f557829003601f168201915b5050505050905090565b6000600160a060020a038316151561043357600080fd5b336000818152600160209081526040808320600160a060020a03881680855290835292819020869055805186815290519293927f8c5be1e5ebec7d5bd14f71427d1e84f3dd0314c0f7b2291e5b200ac8c7c3b925929181900390910190a350600192915050565b60025490565b600160a060020a03831660009081526001602090815260408083203384529091528120548211156104d057600080fd5b600160a060020a0384166000908152600160209081526040808320338452909152902054610504908363ffffffff61077616565b600160a060020a038516600090815260016020908152604080832033845290915290205561053384848461078d565b5060019392505050565b60065460ff1690565b6000600160a060020a038316151561055d57600080fd5b336000908152600160209081526040808320600160a060020a0387168452909152902054610591908363ffffffff61087f16565b336000818152600160209081526040808320600160a060020a0389168085529083529281902085905580519485525191937f8c5be1e5ebec7d5bd14f71427d1e84f3dd0314c0f7b2291e5b200ac8c7c3b925929081900390910190a350600192915050565b600061060133610732565b151561060c57600080fd5b6106168383610898565b50600192915050565b600061062b3383610942565b506001919050565b600160a060020a031660009081526020819052604090205490565b60058054604080516020601f60026000196101006001881615020190951694909404938401819004810282018101909252828152606093909290918301828280156104125780601f106103e757610100808354040283529160200191610412565b6106b833610732565b15156106c357600080fd5b6106cc81610a10565b50565b6106d833610a58565b565b6000600160a060020a03831615156106f157600080fd5b336000908152600160209081526040808320600160a060020a0387168452909152902054610591908363ffffffff61077616565b600061061633848461078d565b600061074560038363ffffffff610aa016565b92915050565b600160a060020a03918216600090815260016020908152604080832093909416825291909152205490565b6000808383111561078657600080fd5b5050900390565b600160a060020a0383166000908152602081905260409020548111156107b257600080fd5b600160a060020a03821615156107c757600080fd5b600160a060020a0383166000908152602081905260409020546107f0908263ffffffff61077616565b600160a060020a038085166000908152602081905260408082209390935590841681522054610825908263ffffffff61087f16565b600160a060020a038084166000818152602081815260409182902094909455805185815290519193928716927fddf252ad1be2c89b69c2b068fc378daa952ba7f163c4a11628f55a4df523b3ef92918290030190a3505050565b60008282018381101561089157600080fd5b9392505050565b600160a060020a03821615156108ad57600080fd5b6002546108c0908263ffffffff61087f16565b600255600160a060020a0382166000908152602081905260409020546108ec908263ffffffff61087f16565b600160a060020a0383166000818152602081815260408083209490945583518581529351929391927fddf252ad1be2c89b69c2b068fc378daa952ba7f163c4a11628f55a4df523b3ef9281900390910190a35050565b600160a060020a038216151561095757600080fd5b600160a060020a03821660009081526020819052604090205481111561097c57600080fd5b60025461098f908263ffffffff61077616565b600255600160a060020a0382166000908152602081905260409020546109bb908263ffffffff61077616565b600160a060020a038316600081815260208181526040808320949094558351858152935191937fddf252ad1be2c89b69c2b068fc378daa952ba7f163c4a11628f55a4df523b3ef929081900390910190a35050565b610a2160038263ffffffff610ad716565b604051600160a060020a038216907f6ae172837ea30b801fbfcdd4108aa1d5bf8ff775444fd70256b44e6bf3dfc3f690600090a250565b610a6960038263ffffffff610b2516565b604051600160a060020a038216907fe94479a9f7e1952cc78f2d6baab678adc1b772d936c6583def489e524cb6669290600090a250565b6000600160a060020a0382161515610ab757600080fd5b50600160a060020a03166000908152602091909152604090205460ff1690565b600160a060020a0381161515610aec57600080fd5b610af68282610aa0565b15610b0057600080fd5b600160a060020a0316600090815260209190915260409020805460ff19166001179055565b600160a060020a0381161515610b3a57600080fd5b610b448282610aa0565b1515610b4f57600080fd5b600160a060020a0316600090815260209190915260409020805460ff191690555600a165627a7a7230582040d6a74a341eab6967a7d52aa8dc3aa2c7010f95b9447e9dc1afdc294225694c0029",
    "source": "pragma solidity ^0.4.24;\n\n/**\n * @title SafeMath\n * @dev Math operations with safety checks that revert on error\n */\nlibrary SafeMath {\n    /**\n     * @dev Multiplies two numbers, reverts on overflow.\n     */\n    function mul(uint256 a, uint256 b) internal pure returns (uint256) {\n        // Gas optimization: this is cheaper than requiring 'a' not being zero, but the\n        // benefit is lost if 'b' is also tested.\n        // See: https://github.com/OpenZeppelin/openzeppelin-solidity/pull/522\n        if (a == 0) {\n            return 0;\n        }\n\n        uint256 c = a * b;\n        require(c / a == b);\n\n        return c;\n    }\n\n    /**\n     * @dev Integer division of two numbers truncating the quotient, reverts on division by zero.\n     */\n    function div(uint256 a, uint256 b) internal pure returns (uint256) {\n        require(b > 0); // Solidity only automatically asserts when dividing by 0\n        uint256 c = a / b;\n        // assert(a == b * c + a % b); // There is no case in which this doesn't hold\n\n        return c;\n    }\n\n    /**\n     * @dev Subtracts two numbers, reverts on overflow (i.e. if subtrahend is greater than minuend).\n     */\n    function sub(uint256 a, uint256 b) internal pure returns (uint256) {\n        require(b <= a);\n        uint256 c = a - b;\n\n        return c;\n    }\n\n    /**\n     * @dev Adds two numbers, reverts on overflow.\n     */\n    function add(uint256 a, uint256 b) internal pure returns (uint256) {\n        uint256 c = a + b;\n        require(c >= a);\n\n        return c;\n    }\n\n    /**\n     * @dev Divides two numbers and returns the remainder (unsigned integer modulo),\n     * reverts when dividing by zero.\n     */\n    function mod(uint256 a, uint256 b) internal pure returns (uint256) {\n        require(b != 0);\n        return a % b;\n    }\n}\n\n/**\n * @title Roles\n * @dev Library for managing addresses assigned to a Role.\n */\nlibrary Roles {\n\tstruct Role {\n\t\tmapping (address => bool) bearer;\n\t}\n\n\t/**\n\t * @dev give an account access to this role\n\t */\n\tfunction add(Role storage role, address account) internal {\n\t\trequire(account != address(0));\n\t\trequire(!has(role, account));\n\n\t\trole.bearer[account] = true;\n\t}\n\n\t/**\n\t * @dev remove an account's access to this role\n\t */\n\tfunction remove(Role storage role, address account) internal {\n\t\trequire(account != address(0));\n\t\trequire(has(role, account));\n\n\t\trole.bearer[account] = false;\n\t}\n\n\t/**\n\t * @dev check if an account has this role\n\t * @return bool\n\t */\n\tfunction has(Role storage role, address account)\n\tinternal\n\tview\n\treturns (bool)\n\t{\n\t\trequire(account != address(0));\n\t\treturn role.bearer[account];\n\t}\n}\n\ncontract MinterRole {\n\tusing Roles for Roles.Role;\n\n\tevent MinterAdded(address indexed account);\n\tevent MinterRemoved(address indexed account);\n\n\tRoles.Role private minters;\n\n\tconstructor() internal {\n\t\t_addMinter(msg.sender);\n\t}\n\n\tmodifier onlyMinter() {\n\t\trequire(isMinter(msg.sender));\n\t\t_;\n\t}\n\n\tfunction isMinter(address account) public view returns (bool) {\n\t\treturn minters.has(account);\n\t}\n\n\tfunction addMinter(address account) public onlyMinter {\n\t\t_addMinter(account);\n\t}\n\n\tfunction renounceMinter() public {\n\t\t_removeMinter(msg.sender);\n\t}\n\n\tfunction _addMinter(address account) internal {\n\t\tminters.add(account);\n\t\temit MinterAdded(account);\n\t}\n\n\tfunction _removeMinter(address account) internal {\n\t\tminters.remove(account);\n\t\temit MinterRemoved(account);\n\t}\n}\n\n/**\n * @title Standard ERC20 token\n *\n * @dev Implementation of the basic standard token.\n * https://github.com/ethereum/EIPs/blob/master/EIPS/eip-20.md\n * Originally based on code by FirstBlood: https://github.com/Firstbloodio/token/blob/master/smart_contract/FirstBloodToken.sol\n */\ncontract ERC20 {\n    using SafeMath for uint256;\n\n    mapping(address => uint256) private _balances;\n\n    mapping(address => mapping(address => uint256)) private _allowed;\n\n    uint256 private _totalSupply;\n\n    event Transfer(address indexed from, address indexed to, uint256 value);\n\n    event Approval(address indexed owner, address indexed spender, uint256 value);\n\n    /**\n     * @dev Total number of tokens in existence\n     */\n    function totalSupply() public view returns (uint256) {\n        return _totalSupply;\n    }\n\n    /**\n     * @dev Gets the balance of the specified address.\n     * @param owner The address to query the balance of.\n     * @return An uint256 representing the amount owned by the passed address.\n     */\n    function balanceOf(address owner) public view returns (uint256) {\n        return _balances[owner];\n    }\n\n    /**\n     * @dev Function to check the amount of tokens that an owner allowed to a spender.\n     * @param owner address The address which owns the funds.\n     * @param spender address The address which will spend the funds.\n     * @return A uint256 specifying the amount of tokens still available for the spender.\n     */\n    function allowance(address owner, address spender)\n        public\n        view\n        returns (uint256)\n    {\n        return _allowed[owner][spender];\n    }\n\n    /**\n     * @dev Transfer token for a specified address\n     * @param to The address to transfer to.\n     * @param value The amount to be transferred.\n     */\n    function transfer(address to, uint256 value) public returns (bool) {\n        _transfer(msg.sender, to, value);\n        return true;\n    }\n\n    /**\n     * @dev Approve the passed address to spend the specified amount of tokens on behalf of msg.sender.\n     * Beware that changing an allowance with this method brings the risk that someone may use both the old\n     * and the new allowance by unfortunate transaction ordering. One possible solution to mitigate this\n     * race condition is to first reduce the spender's allowance to 0 and set the desired value afterwards:\n     * https://github.com/ethereum/EIPs/issues/20#issuecomment-263524729\n     * @param spender The address which will spend the funds.\n     * @param value The amount of tokens to be spent.\n     */\n    function approve(address spender, uint256 value) public returns (bool) {\n        require(spender != address(0));\n\n        _allowed[msg.sender][spender] = value;\n        emit Approval(msg.sender, spender, value);\n        return true;\n    }\n\n    /**\n     * @dev Transfer tokens from one address to another\n     * @param from address The address which you want to send tokens from\n     * @param to address The address which you want to transfer to\n     * @param value uint256 the amount of tokens to be transferred\n     */\n    function transferFrom(address from, address to, uint256 value) public returns (bool) {\n        require(value <= _allowed[from][msg.sender]);\n\n        _allowed[from][msg.sender] = _allowed[from][msg.sender].sub(value);\n        _transfer(from, to, value);\n        return true;\n    }\n\n    /**\n     * @dev Increase the amount of tokens that an owner allowed to a spender.\n     * approve should be called when allowed_[_spender] == 0. To increment\n     * allowed value is better to use this function to avoid 2 calls (and wait until\n     * the first transaction is mined)\n     * From MonolithDAO Token.sol\n     * @param spender The address which will spend the funds.\n     * @param addedValue The amount of tokens to increase the allowance by.\n     */\n    function increaseAllowance(address spender, uint256 addedValue) public returns (bool) {\n        require(spender != address(0));\n\n        _allowed[msg.sender][spender] = (\n            _allowed[msg.sender][spender].add(addedValue)\n        );\n        emit Approval(msg.sender, spender, _allowed[msg.sender][spender]);\n        return true;\n    }\n\n    /**\n     * @dev Decrease the amount of tokens that an owner allowed to a spender.\n     * approve should be called when allowed_[_spender] == 0. To decrement\n     * allowed value is better to use this function to avoid 2 calls (and wait until\n     * the first transaction is mined)\n     * From MonolithDAO Token.sol\n     * @param spender The address which will spend the funds.\n     * @param subtractedValue The amount of tokens to decrease the allowance by.\n     */\n    function decreaseAllowance(address spender, uint256 subtractedValue) public returns (bool) {\n        require(spender != address(0));\n\n        _allowed[msg.sender][spender] = (\n            _allowed[msg.sender][spender].sub(subtractedValue)\n        );\n        emit Approval(msg.sender, spender, _allowed[msg.sender][spender]);\n        return true;\n    }\n\n    /**\n     * @dev Transfer token for a specified addresses\n     * @param from The address to transfer from.\n     * @param to The address to transfer to.\n     * @param value The amount to be transferred.\n     */\n    function _transfer(address from, address to, uint256 value) internal {\n        require(value <= _balances[from]);\n        require(to != address(0));\n\n        _balances[from] = _balances[from].sub(value);\n        _balances[to] = _balances[to].add(value);\n        emit Transfer(from, to, value);\n    }\n\n    /**\n     * @dev Internal function that mints an amount of the token and assigns it to\n     * an account. This encapsulates the modification of balances such that the\n     * proper events are emitted.\n     * @param account The account that will receive the created tokens.\n     * @param value The amount that will be created.\n     */\n    function _mint(address account, uint256 value) internal {\n        require(account != address(0));\n        _totalSupply = _totalSupply.add(value);\n        _balances[account] = _balances[account].add(value);\n        emit Transfer(address(0), account, value);\n    }\n\n    /**\n     * @dev Internal function that burns an amount of the token of a given\n     * account.\n     * @param account The account whose tokens will be burnt.\n     * @param value The amount that will be burnt.\n     */\n    function _burn(address account, uint256 value) internal {\n        require(account != address(0));\n        require(value <= _balances[account]);\n\n        _totalSupply = _totalSupply.sub(value);\n        _balances[account] = _balances[account].sub(value);\n        emit Transfer(account, address(0), value);\n    }\n\n    /**\n     * @dev Internal function that burns an amount of the token of a given\n     * account, deducting from the sender's allowance for said account. Uses the\n     * internal burn function.\n     * @param account The account whose tokens will be burnt.\n     * @param value The amount that will be burnt.\n     */\n    function _burnFrom(address account, uint256 value) internal {\n        require(value <= _allowed[account][msg.sender]);\n\n        // Should https://github.com/OpenZeppelin/zeppelin-solidity/issues/707 be accepted,\n        // this function needs to emit an event with the updated approval.\n        _allowed[account][msg.sender] = _allowed[account][msg.sender].sub(\n            value\n        );\n        _burn(account, value);\n    }\n}\n\ncontract MyTRC20Mintable is ERC20, MinterRole {\n    string private _name;\n    string private _symbol;\n    uint8 private _decimals;\n\n    constructor(string memory name, string memory symbol, uint8 decimals, uint256 cap) public {\n        _name = name;\n        _symbol = symbol;\n        _decimals = decimals;\n        super._mint(msg.sender, cap);\n    }\n\n    /**\n     * @return the name of the token.\n     */\n    function name() public view returns (string memory) {\n        return _name;\n    }\n\n    /**\n     * @return the symbol of the token.\n     */\n    function symbol() public view returns (string memory) {\n        return _symbol;\n    }\n\n    /**\n     * @return the number of decimals of the token.\n     */\n    function decimals() public view returns (uint8) {\n        return _decimals;\n    }\n\n    /**\n\t * @dev Function to mint tokens\n\t * @param to The address that will receive the minted tokens.\n\t * @param value The amount of tokens to mint.\n\t * @return A boolean that indicates if the operation was successful.\n\t */\n\tfunction mint(\n\t\taddress to,\n\t\tuint256 value\n\t)\n\tpublic\n\tonlyMinter\n\treturns (bool)\n\t{\n\t\t_mint(to, value);\n\t\treturn true;\n\t}\n\n\t/**\n\t * @dev Function to burn tokens\n\t * @param value The amount of tokens to mint.\n\t * @return A boolean that indicates if the operation was successful.\n\t */\n\tfunction burn(\n\t\tuint256 value\n\t)\n\tpublic\n\treturns (bool)\n\t{\n\t\t_burn(msg.sender, value);\n\t\treturn true;\n\t}\n}\n",
    "sourcePath": "/home/pqv/Desktop/XXX/blahblah/contracts/TRC20Mintable.sol",
    "compiler": {
        "name": "solc",
        "version": "0.4.26+commit.4563c3fc.Emscripten.clang"
    },
    "schemaVersion": "3.3.1",
    "updatedAt": "2021-04-13T03:33:47.393Z",
    "devdoc": {
        "methods": {
            "allowance(address,address)": {
                "details": "Function to check the amount of tokens that an owner allowed to a spender.",
                "params": {
                    "owner": "address The address which owns the funds.",
                    "spender": "address The address which will spend the funds."
                },
                "return": "A uint256 specifying the amount of tokens still available for the spender."
            },
            "approve(address,uint256)": {
                "details": "Approve the passed address to spend the specified amount of tokens on behalf of msg.sender. Beware that changing an allowance with this method brings the risk that someone may use both the old and the new allowance by unfortunate transaction ordering. One possible solution to mitigate this race condition is to first reduce the spender's allowance to 0 and set the desired value afterwards: https://github.com/ethereum/EIPs/issues/20#issuecomment-263524729",
                "params": {
                    "spender": "The address which will spend the funds.",
                    "value": "The amount of tokens to be spent."
                }
            },
            "balanceOf(address)": {
                "details": "Gets the balance of the specified address.",
                "params": {
                    "owner": "The address to query the balance of."
                },
                "return": "An uint256 representing the amount owned by the passed address."
            },
            "burn(uint256)": {
                "details": "Function to burn tokens",
                "params": {
                    "value": "The amount of tokens to mint."
                },
                "return": "A boolean that indicates if the operation was successful."
            },
            "decimals()": {
                "return": "the number of decimals of the token."
            },
            "decreaseAllowance(address,uint256)": {
                "details": "Decrease the amount of tokens that an owner allowed to a spender. approve should be called when allowed_[_spender] == 0. To decrement allowed value is better to use this function to avoid 2 calls (and wait until the first transaction is mined) From MonolithDAO Token.sol",
                "params": {
                    "spender": "The address which will spend the funds.",
                    "subtractedValue": "The amount of tokens to decrease the allowance by."
                }
            },
            "increaseAllowance(address,uint256)": {
                "details": "Increase the amount of tokens that an owner allowed to a spender. approve should be called when allowed_[_spender] == 0. To increment allowed value is better to use this function to avoid 2 calls (and wait until the first transaction is mined) From MonolithDAO Token.sol",
                "params": {
                    "addedValue": "The amount of tokens to increase the allowance by.",
                    "spender": "The address which will spend the funds."
                }
            },
            "mint(address,uint256)": {
                "details": "Function to mint tokens",
                "params": {
                    "to": "The address that will receive the minted tokens.",
                    "value": "The amount of tokens to mint."
                },
                "return": "A boolean that indicates if the operation was successful."
            },
            "name()": {
                "return": "the name of the token."
            },
            "symbol()": {
                "return": "the symbol of the token."
            },
            "totalSupply()": {
                "details": "Total number of tokens in existence"
            },
            "transfer(address,uint256)": {
                "details": "Transfer token for a specified address",
                "params": {
                    "to": "The address to transfer to.",
                    "value": "The amount to be transferred."
                }
            },
            "transferFrom(address,address,uint256)": {
                "details": "Transfer tokens from one address to another",
                "params": {
                    "from": "address The address which you want to send tokens from",
                    "to": "address The address which you want to transfer to",
                    "value": "uint256 the amount of tokens to be transferred"
                }
            }
        }
    },
    "userdoc": {
        "methods": {}
    }
}