{
  "contractName": "TOMOXListing",
  "abi": [
    {
      "inputs": [
        {
          "name": "value",
          "type": "uint256"
        }
      ],
      "payable": false,
      "stateMutability": "nonpayable",
      "type": "constructor"
    },
    {
      "constant": true,
      "inputs": [],
      "name": "minApply",
      "outputs": [
        {
          "name": "",
          "type": "uint256"
        }
      ],
      "payable": false,
      "stateMutability": "view",
      "type": "function"
    },
    {
      "constant": true,
      "inputs": [],
      "name": "tokens",
      "outputs": [
        {
          "name": "",
          "type": "address[]"
        }
      ],
      "payable": false,
      "stateMutability": "view",
      "type": "function"
    },
    {
      "constant": true,
      "inputs": [
        {
          "name": "token",
          "type": "address"
        }
      ],
      "name": "getTokenStatus",
      "outputs": [
        {
          "name": "",
          "type": "bool"
        }
      ],
      "payable": false,
      "stateMutability": "view",
      "type": "function"
    },
    {
      "constant": false,
      "inputs": [
        {
          "name": "token",
          "type": "address"
        }
      ],
      "name": "applyToken",
      "outputs": [],
      "payable": true,
      "stateMutability": "payable",
      "type": "function"
    }
  ],
  "bytecode": "0x608060405234801561001057600080fd5b5060405160208061030983398101604052516000556102d5806100346000396000f3006080604052600436106100615763ffffffff7c01000000000000000000000000000000000000000000000000000000006000350416631612ec4f811461006657806364fd173b1461007c5780639d63848a146100a3578063a3ff31b514610108575b600080fd5b61007a600160a060020a036004351661013d565b005b34801561008857600080fd5b50610091610220565b60408051918252519081900360200190f35b3480156100af57600080fd5b506100b8610226565b60408051602080825283518183015283519192839290830191858101910280838360005b838110156100f45781810151838201526020016100dc565b505050509050019250505060405180910390f35b34801561011457600080fd5b50610129600160a060020a0360043516610288565b604080519115158252519081900360200190f35b80600160a060020a038116151561015357600080fd5b60005434101561016257600080fd5b600160a060020a038116600090815260026020526040902060019081015460ff161515141561019057600080fd5b506001805480820182557fb10e2d527612073b26eecdfd717e6a320cf44b4afac2b0732d9fcbe2b7fa0cf601805473ffffffffffffffffffffffffffffffffffffffff1916600160a060020a039390931692831790556040805180820182523481526020808201848152600095865260029091529190932092518355519101805460ff1916911515919091179055565b60005490565b6060600180548060200260200160405190810160405280929190818152602001828054801561027e57602002820191906000526020600020905b8154600160a060020a03168152600190910190602001808311610260575b5050505050905090565b600160a060020a031660009081526002602052604090206001015460ff16905600a165627a7a72305820b2f9e556269a5233ad5eddb89164478cc8c29cad238d90085e1a4bdd99705e7e0029",
  "source": "pragma solidity ^0.4.24;\n\ncontract TOMOXListing {\n\n    uint256 _minApply;\n    address[] _tokens;\n    mapping(address => TokenState) tokensState;\n\n\n    struct TokenState {\n        uint256 capacity;\n        bool isActive;\n    }\n\n    constructor (uint256 value) public {\n        _minApply = value;\n    }\n\n    modifier onlyValidApplyNewToken(address token){\n        require(token != address(0));\n        require(msg.value >= _minApply);\n        require(tokensState[token].isActive != true);\n        _;\n    }\n\n    function minApply() public view returns(uint256) {\n        return _minApply;\n    }\n\n    function tokens() public view returns(address[]) {\n        return _tokens;\n    }\n\n    function getTokenStatus(address token) public view returns(bool) {\n        return tokensState[token].isActive;\n    }\n\n    function applyToken(address token) public payable onlyValidApplyNewToken(token){\n        _tokens.push(token);\n        tokensState[token] = TokenState({\n            isActive: true,\n            capacity: msg.value\n        });\n    }\n}\n",
  "sourcePath": "/home/vagrant/projects/tomoissuer/contracts/TOMOXListing.sol",
  "compiler": {
    "name": "solc",
    "version": "0.4.26+commit.4563c3fc.Emscripten.clang"
  },
  "schemaVersion": "3.0.6",
  "updatedAt": "2019-05-15T08:20:46.152Z",
  "devdoc": {
    "methods": {}
  },
  "userdoc": {
    "methods": {}
  }
}