{
  "contractName": "TomoBridgeWrapToken",
  "abi": [
    {
      "constant": true,
      "inputs": [
        {
          "name": "",
          "type": "uint256"
        }
      ],
      "name": "owners",
      "outputs": [
        {
          "name": "",
          "type": "address"
        }
      ],
      "payable": false,
      "stateMutability": "view",
      "type": "function"
    },
    {
      "constant": true,
      "inputs": [],
      "name": "name",
      "outputs": [
        {
          "name": "",
          "type": "string"
        }
      ],
      "payable": false,
      "stateMutability": "view",
      "type": "function"
    },
    {
      "constant": false,
      "inputs": [
        {
          "name": "spender",
          "type": "address"
        },
        {
          "name": "value",
          "type": "uint256"
        }
      ],
      "name": "approve",
      "outputs": [
        {
          "name": "",
          "type": "bool"
        }
      ],
      "payable": false,
      "stateMutability": "nonpayable",
      "type": "function"
    },
    {
      "constant": true,
      "inputs": [
        {
          "name": "value",
          "type": "uint256"
        }
      ],
      "name": "estimateFee",
      "outputs": [
        {
          "name": "",
          "type": "uint256"
        }
      ],
      "payable": false,
      "stateMutability": "view",
      "type": "function"
    },
    {
      "constant": true,
      "inputs": [],
      "name": "totalSupply",
      "outputs": [
        {
          "name": "",
          "type": "uint256"
        }
      ],
      "payable": false,
      "stateMutability": "view",
      "type": "function"
    },
    {
      "constant": true,
      "inputs": [],
      "name": "issuer",
      "outputs": [
        {
          "name": "",
          "type": "address"
        }
      ],
      "payable": false,
      "stateMutability": "view",
      "type": "function"
    },
    {
      "constant": false,
      "inputs": [
        {
          "name": "from",
          "type": "address"
        },
        {
          "name": "to",
          "type": "address"
        },
        {
          "name": "value",
          "type": "uint256"
        }
      ],
      "name": "transferFrom",
      "outputs": [
        {
          "name": "",
          "type": "bool"
        }
      ],
      "payable": false,
      "stateMutability": "nonpayable",
      "type": "function"
    },
    {
      "constant": true,
      "inputs": [],
      "name": "minFee",
      "outputs": [
        {
          "name": "",
          "type": "uint256"
        }
      ],
      "payable": false,
      "stateMutability": "view",
      "type": "function"
    },
    {
      "constant": true,
      "inputs": [
        {
          "name": "",
          "type": "address"
        }
      ],
      "name": "isOwner",
      "outputs": [
        {
          "name": "",
          "type": "bool"
        }
      ],
      "payable": false,
      "stateMutability": "view",
      "type": "function"
    },
    {
      "constant": true,
      "inputs": [],
      "name": "decimals",
      "outputs": [
        {
          "name": "",
          "type": "uint8"
        }
      ],
      "payable": false,
      "stateMutability": "view",
      "type": "function"
    },
    {
      "constant": false,
      "inputs": [
        {
          "name": "value",
          "type": "uint256"
        }
      ],
      "name": "setMinFee",
      "outputs": [],
      "payable": false,
      "stateMutability": "nonpayable",
      "type": "function"
    },
    {
      "constant": true,
      "inputs": [
        {
          "name": "",
          "type": "uint256"
        },
        {
          "name": "",
          "type": "address"
        }
      ],
      "name": "confirmations",
      "outputs": [
        {
          "name": "",
          "type": "bool"
        }
      ],
      "payable": false,
      "stateMutability": "view",
      "type": "function"
    },
    {
      "constant": true,
      "inputs": [
        {
          "name": "owner",
          "type": "address"
        }
      ],
      "name": "balanceOf",
      "outputs": [
        {
          "name": "",
          "type": "uint256"
        }
      ],
      "payable": false,
      "stateMutability": "view",
      "type": "function"
    },
    {
      "constant": true,
      "inputs": [
        {
          "name": "",
          "type": "uint256"
        }
      ],
      "name": "burnList",
      "outputs": [
        {
          "name": "value",
          "type": "uint256"
        },
        {
          "name": "burner",
          "type": "address"
        },
        {
          "name": "data",
          "type": "bytes"
        }
      ],
      "payable": false,
      "stateMutability": "view",
      "type": "function"
    },
    {
      "constant": true,
      "inputs": [],
      "name": "symbol",
      "outputs": [
        {
          "name": "",
          "type": "string"
        }
      ],
      "payable": false,
      "stateMutability": "view",
      "type": "function"
    },
    {
      "constant": true,
      "inputs": [
        {
          "name": "",
          "type": "uint256"
        }
      ],
      "name": "transactions",
      "outputs": [
        {
          "name": "destination",
          "type": "address"
        },
        {
          "name": "value",
          "type": "uint256"
        },
        {
          "name": "data",
          "type": "bytes"
        },
        {
          "name": "executed",
          "type": "bool"
        }
      ],
      "payable": false,
      "stateMutability": "view",
      "type": "function"
    },
    {
      "constant": true,
      "inputs": [],
      "name": "WITHDRAW_FEE",
      "outputs": [
        {
          "name": "",
          "type": "uint256"
        }
      ],
      "payable": false,
      "stateMutability": "view",
      "type": "function"
    },
    {
      "constant": false,
      "inputs": [
        {
          "name": "to",
          "type": "address"
        },
        {
          "name": "value",
          "type": "uint256"
        }
      ],
      "name": "transfer",
      "outputs": [
        {
          "name": "",
          "type": "bool"
        }
      ],
      "payable": false,
      "stateMutability": "nonpayable",
      "type": "function"
    },
    {
      "constant": true,
      "inputs": [],
      "name": "transactionCount",
      "outputs": [
        {
          "name": "",
          "type": "uint256"
        }
      ],
      "payable": false,
      "stateMutability": "view",
      "type": "function"
    },
    {
      "constant": true,
      "inputs": [],
      "name": "MAX_OWNER_COUNT",
      "outputs": [
        {
          "name": "",
          "type": "uint256"
        }
      ],
      "payable": false,
      "stateMutability": "view",
      "type": "function"
    },
    {
      "constant": true,
      "inputs": [],
      "name": "required",
      "outputs": [
        {
          "name": "",
          "type": "uint256"
        }
      ],
      "payable": false,
      "stateMutability": "view",
      "type": "function"
    },
    {
      "constant": true,
      "inputs": [
        {
          "name": "owner",
          "type": "address"
        },
        {
          "name": "spender",
          "type": "address"
        }
      ],
      "name": "allowance",
      "outputs": [
        {
          "name": "",
          "type": "uint256"
        }
      ],
      "payable": false,
      "stateMutability": "view",
      "type": "function"
    },
    {
      "constant": true,
      "inputs": [],
      "name": "DEPOSIT_FEE",
      "outputs": [
        {
          "name": "",
          "type": "uint256"
        }
      ],
      "payable": false,
      "stateMutability": "view",
      "type": "function"
    },
    {
      "inputs": [
        {
          "name": "_owners",
          "type": "address[]"
        },
        {
          "name": "_required",
          "type": "uint256"
        },
        {
          "name": "_name",
          "type": "string"
        },
        {
          "name": "_symbol",
          "type": "string"
        },
        {
          "name": "_decimals",
          "type": "uint8"
        },
        {
          "name": "cap",
          "type": "uint256"
        },
        {
          "name": "minFee",
          "type": "uint256"
        },
        {
          "name": "depositFee",
          "type": "uint256"
        },
        {
          "name": "withdrawFee",
          "type": "uint256"
        }
      ],
      "payable": false,
      "stateMutability": "nonpayable",
      "type": "constructor"
    },
    {
      "anonymous": false,
      "inputs": [
        {
          "indexed": true,
          "name": "sender",
          "type": "address"
        },
        {
          "indexed": true,
          "name": "transactionId",
          "type": "uint256"
        }
      ],
      "name": "Confirmation",
      "type": "event"
    },
    {
      "anonymous": false,
      "inputs": [
        {
          "indexed": true,
          "name": "sender",
          "type": "address"
        },
        {
          "indexed": true,
          "name": "transactionId",
          "type": "uint256"
        }
      ],
      "name": "Revocation",
      "type": "event"
    },
    {
      "anonymous": false,
      "inputs": [
        {
          "indexed": true,
          "name": "transactionId",
          "type": "uint256"
        }
      ],
      "name": "Submission",
      "type": "event"
    },
    {
      "anonymous": false,
      "inputs": [
        {
          "indexed": true,
          "name": "transactionId",
          "type": "uint256"
        }
      ],
      "name": "Execution",
      "type": "event"
    },
    {
      "anonymous": false,
      "inputs": [
        {
          "indexed": true,
          "name": "transactionId",
          "type": "uint256"
        }
      ],
      "name": "ExecutionFailure",
      "type": "event"
    },
    {
      "anonymous": false,
      "inputs": [
        {
          "indexed": true,
          "name": "owner",
          "type": "address"
        }
      ],
      "name": "OwnerAddition",
      "type": "event"
    },
    {
      "anonymous": false,
      "inputs": [
        {
          "indexed": true,
          "name": "owner",
          "type": "address"
        }
      ],
      "name": "OwnerRemoval",
      "type": "event"
    },
    {
      "anonymous": false,
      "inputs": [
        {
          "indexed": false,
          "name": "required",
          "type": "uint256"
        }
      ],
      "name": "RequirementChange",
      "type": "event"
    },
    {
      "anonymous": false,
      "inputs": [
        {
          "indexed": true,
          "name": "burnID",
          "type": "uint256"
        },
        {
          "indexed": true,
          "name": "burner",
          "type": "address"
        },
        {
          "indexed": false,
          "name": "value",
          "type": "uint256"
        },
        {
          "indexed": false,
          "name": "data",
          "type": "bytes"
        }
      ],
      "name": "TokenBurn",
      "type": "event"
    },
    {
      "anonymous": false,
      "inputs": [
        {
          "indexed": true,
          "name": "from",
          "type": "address"
        },
        {
          "indexed": true,
          "name": "to",
          "type": "address"
        },
        {
          "indexed": false,
          "name": "value",
          "type": "uint256"
        }
      ],
      "name": "Transfer",
      "type": "event"
    },
    {
      "anonymous": false,
      "inputs": [
        {
          "indexed": true,
          "name": "owner",
          "type": "address"
        },
        {
          "indexed": true,
          "name": "spender",
          "type": "address"
        },
        {
          "indexed": false,
          "name": "value",
          "type": "uint256"
        }
      ],
      "name": "Approval",
      "type": "event"
    },
    {
      "anonymous": false,
      "inputs": [
        {
          "indexed": true,
          "name": "from",
          "type": "address"
        },
        {
          "indexed": true,
          "name": "to",
          "type": "address"
        },
        {
          "indexed": true,
          "name": "issuer",
          "type": "address"
        },
        {
          "indexed": false,
          "name": "value",
          "type": "uint256"
        }
      ],
      "name": "Fee",
      "type": "event"
    },
    {
      "constant": false,
      "inputs": [
        {
          "name": "newOwner",
          "type": "address"
        }
      ],
      "name": "transferContractIssuer",
      "outputs": [],
      "payable": false,
      "stateMutability": "nonpayable",
      "type": "function"
    },
    {
      "constant": false,
      "inputs": [
        {
          "name": "depositFee",
          "type": "uint256"
        }
      ],
      "name": "setDepositFee",
      "outputs": [],
      "payable": false,
      "stateMutability": "nonpayable",
      "type": "function"
    },
    {
      "constant": false,
      "inputs": [
        {
          "name": "withdrawFee",
          "type": "uint256"
        }
      ],
      "name": "setWithdrawFee",
      "outputs": [],
      "payable": false,
      "stateMutability": "nonpayable",
      "type": "function"
    },
    {
      "constant": false,
      "inputs": [
        {
          "name": "owner",
          "type": "address"
        }
      ],
      "name": "addOwner",
      "outputs": [],
      "payable": false,
      "stateMutability": "nonpayable",
      "type": "function"
    },
    {
      "constant": false,
      "inputs": [
        {
          "name": "owner",
          "type": "address"
        }
      ],
      "name": "removeOwner",
      "outputs": [],
      "payable": false,
      "stateMutability": "nonpayable",
      "type": "function"
    },
    {
      "constant": false,
      "inputs": [
        {
          "name": "owner",
          "type": "address"
        },
        {
          "name": "newOwner",
          "type": "address"
        }
      ],
      "name": "replaceOwner",
      "outputs": [],
      "payable": false,
      "stateMutability": "nonpayable",
      "type": "function"
    },
    {
      "constant": false,
      "inputs": [
        {
          "name": "_required",
          "type": "uint256"
        }
      ],
      "name": "changeRequirement",
      "outputs": [],
      "payable": false,
      "stateMutability": "nonpayable",
      "type": "function"
    },
    {
      "constant": false,
      "inputs": [
        {
          "name": "destination",
          "type": "address"
        },
        {
          "name": "value",
          "type": "uint256"
        },
        {
          "name": "data",
          "type": "bytes"
        }
      ],
      "name": "submitTransaction",
      "outputs": [
        {
          "name": "transactionId",
          "type": "uint256"
        }
      ],
      "payable": false,
      "stateMutability": "nonpayable",
      "type": "function"
    },
    {
      "constant": false,
      "inputs": [
        {
          "name": "transactionId",
          "type": "uint256"
        }
      ],
      "name": "confirmTransaction",
      "outputs": [],
      "payable": false,
      "stateMutability": "nonpayable",
      "type": "function"
    },
    {
      "constant": false,
      "inputs": [
        {
          "name": "transactionId",
          "type": "uint256"
        }
      ],
      "name": "revokeConfirmation",
      "outputs": [],
      "payable": false,
      "stateMutability": "nonpayable",
      "type": "function"
    },
    {
      "constant": false,
      "inputs": [
        {
          "name": "value",
          "type": "uint256"
        },
        {
          "name": "data",
          "type": "bytes"
        }
      ],
      "name": "burn",
      "outputs": [],
      "payable": false,
      "stateMutability": "nonpayable",
      "type": "function"
    },
    {
      "constant": false,
      "inputs": [
        {
          "name": "transactionId",
          "type": "uint256"
        }
      ],
      "name": "executeTransaction",
      "outputs": [],
      "payable": false,
      "stateMutability": "nonpayable",
      "type": "function"
    },
    {
      "constant": true,
      "inputs": [
        {
          "name": "transactionId",
          "type": "uint256"
        }
      ],
      "name": "isConfirmed",
      "outputs": [
        {
          "name": "",
          "type": "bool"
        }
      ],
      "payable": false,
      "stateMutability": "view",
      "type": "function"
    },
    {
      "constant": true,
      "inputs": [
        {
          "name": "transactionId",
          "type": "uint256"
        }
      ],
      "name": "getConfirmationCount",
      "outputs": [
        {
          "name": "count",
          "type": "uint256"
        }
      ],
      "payable": false,
      "stateMutability": "view",
      "type": "function"
    },
    {
      "constant": true,
      "inputs": [
        {
          "name": "pending",
          "type": "bool"
        },
        {
          "name": "executed",
          "type": "bool"
        }
      ],
      "name": "getTransactionCount",
      "outputs": [
        {
          "name": "count",
          "type": "uint256"
        }
      ],
      "payable": false,
      "stateMutability": "view",
      "type": "function"
    },
    {
      "constant": true,
      "inputs": [],
      "name": "getOwners",
      "outputs": [
        {
          "name": "",
          "type": "address[]"
        }
      ],
      "payable": false,
      "stateMutability": "view",
      "type": "function"
    },
    {
      "constant": true,
      "inputs": [
        {
          "name": "transactionId",
          "type": "uint256"
        }
      ],
      "name": "getConfirmations",
      "outputs": [
        {
          "name": "_confirmations",
          "type": "address[]"
        }
      ],
      "payable": false,
      "stateMutability": "view",
      "type": "function"
    },
    {
      "constant": true,
      "inputs": [
        {
          "name": "from",
          "type": "uint256"
        },
        {
          "name": "to",
          "type": "uint256"
        },
        {
          "name": "pending",
          "type": "bool"
        },
        {
          "name": "executed",
          "type": "bool"
        }
      ],
      "name": "getTransactionIds",
      "outputs": [
        {
          "name": "_transactionIds",
          "type": "uint256[]"
        }
      ],
      "payable": false,
      "stateMutability": "view",
      "type": "function"
    },
    {
      "constant": true,
      "inputs": [],
      "name": "getBurnCount",
      "outputs": [
        {
          "name": "",
          "type": "uint256"
        }
      ],
      "payable": false,
      "stateMutability": "view",
      "type": "function"
    },
    {
      "constant": true,
      "inputs": [
        {
          "name": "burnId",
          "type": "uint256"
        }
      ],
      "name": "getBurn",
      "outputs": [
        {
          "name": "_burner",
          "type": "address"
        },
        {
          "name": "_value",
          "type": "uint256"
        },
        {
          "name": "_data",
          "type": "bytes"
        }
      ],
      "payable": false,
      "stateMutability": "view",
      "type": "function"
    }
  ],
  "bytecode": "0x6080604052600060085560006009553480156200001b57600080fd5b5060405162002a7b38038062002a7b8339810160409081528151602080840151928401516060850151608086015160a087015160c088015160e08901516101008a0151958a018051988b019a909895019693959294919390929160009189918991899162000090916005919086019062000356565b508151620000a690600690602085019062000356565b506007805460ff191660ff92909216919091179055505089518960328211801590620000d25750818111155b8015620000de57508015155b8015620000ea57508115155b1515620000f657600080fd5b6200010b338864010000000062000240810204565b6200011f33640100000000620002ff810204565b620001338664010000000062000337810204565b600092505b8b518310156200020b57600c60008d858151811015156200015557fe5b6020908102909101810151600160a060020a031682528101919091526040016000205460ff16158015620001ab57508b838151811015156200019357fe5b90602001906020020151600160a060020a0316600014155b1515620001b757600080fd5b6001600c60008e86815181101515620001cc57fe5b602090810291909101810151600160a060020a03168252810191909152604001600020805460ff19169115159190911790556001929092019162000138565b8b516200022090600d9060208f0190620003db565b505050600e98909855600991909155600855506200048895505050505050565b600160a060020a03821615156200025657600080fd5b6004546200027390826401000000006200221b6200033c82021704565b600455600160a060020a038216600090815260208190526040902054620002a990826401000000006200221b6200033c82021704565b600160a060020a0383166000818152602081815260408083209490945583518581529351929391927fddf252ad1be2c89b69c2b068fc378daa952ba7f163c4a11628f55a4df523b3ef9281900390910190a35050565b600160a060020a03811615156200031557600080fd5b60028054600160a060020a031916600160a060020a0392909216919091179055565b600155565b6000828201838110156200034f57600080fd5b9392505050565b828054600181600116156101000203166002900490600052602060002090601f016020900481019282601f106200039957805160ff1916838001178555620003c9565b82800160010185558215620003c9579182015b82811115620003c9578251825591602001919060010190620003ac565b50620003d792915062000441565b5090565b82805482825590600052602060002090810192821562000433579160200282015b82811115620004335782518254600160a060020a031916600160a060020a03909116178255602090920191600190910190620003fc565b50620003d792915062000461565b6200045e91905b80821115620003d7576000815560010162000448565b90565b6200045e91905b80821115620003d7578054600160a060020a031916815560010162000468565b6125e380620004986000396000f30060806040526004361061020e5763ffffffff7c0100000000000000000000000000000000000000000000000000000000600035041663025e7c27811461021357806306fdde0314610247578063095ea7b3146102d1578063127e8e4d14610309578063173825d91461033357806318160ddd146103565780631d1438481461036b57806320ea8d861461038057806323b872dd1461039857806324ec7590146103c25780632eb3f49b146103d75780632f54bf6e14610487578063313ce567146104a857806331ac9920146104d35780633411c81c146104eb578063490ae2101461050f57806354741525146105275780637065cb481461054657806370a082311461056757806377661c6414610588578063784547a7146105fa5780638b51d13f1461061257806395d89b411461062a5780639ace38c21461063f5780639bff5ddb146106fa578063a0e67e2b1461070f578063a8abe69a14610774578063a9059cbb14610799578063b5dc40c3146107bd578063b6ac642a146107d5578063b77bf600146107ed578063ba51a6df14610802578063c01a8c841461081a578063c28ce6ff14610832578063c642747414610853578063d74f8edd146108bc578063dc8452cd146108d1578063dd62ed3e146108e6578063de363e651461090d578063e20056e614610922578063e7cf548c14610949578063ee22610b1461095e578063fe9d930314610976575b600080fd5b34801561021f57600080fd5b5061022b6004356109d4565b60408051600160a060020a039092168252519081900360200190f35b34801561025357600080fd5b5061025c6109fc565b6040805160208082528351818301528351919283929083019185019080838360005b8381101561029657818101518382015260200161027e565b50505050905090810190601f1680156102c35780820380516001836020036101000a031916815260200191505b509250505060405180910390f35b3480156102dd57600080fd5b506102f5600160a060020a0360043516602435610a93565b604080519115158252519081900360200190f35b34801561031557600080fd5b50610321600435610b4d565b60408051918252519081900360200190f35b34801561033f57600080fd5b50610354600160a060020a0360043516610b79565b005b34801561036257600080fd5b50610321610cf0565b34801561037757600080fd5b5061022b610cf6565b34801561038c57600080fd5b50610354600435610d05565b3480156103a457600080fd5b506102f5600160a060020a0360043581169060243516604435610dbf565b3480156103ce57600080fd5b50610321610f03565b3480156103e357600080fd5b506103ef600435610f09565b6040518084600160a060020a0316600160a060020a0316815260200183815260200180602001828103825283818151815260200191508051906020019080838360005b8381101561044a578181015183820152602001610432565b50505050905090810190601f1680156104775780820380516001836020036101000a031916815260200191505b5094505050505060405180910390f35b34801561049357600080fd5b506102f5600160a060020a0360043516611016565b3480156104b457600080fd5b506104bd61102b565b6040805160ff9092168252519081900360200190f35b3480156104df57600080fd5b50610354600435611034565b3480156104f757600080fd5b506102f5600435600160a060020a0360243516611057565b34801561051b57600080fd5b50610354600435611077565b34801561053357600080fd5b5061032160043515156024351515611098565b34801561055257600080fd5b50610354600160a060020a0360043516611104565b34801561057357600080fd5b50610321600160a060020a0360043516611229565b34801561059457600080fd5b506105a0600435611244565b6040518084815260200183600160a060020a0316600160a060020a0316815260200180602001828103825283818151815260200191508051906020019080838360008381101561044a578181015183820152602001610432565b34801561060657600080fd5b506102f560043561130d565b34801561061e57600080fd5b50610321600435611391565b34801561063657600080fd5b5061025c611400565b34801561064b57600080fd5b50610657600435611461565b6040518085600160a060020a0316600160a060020a031681526020018481526020018060200183151515158152602001828103825284818151815260200191508051906020019080838360005b838110156106bc5781810151838201526020016106a4565b50505050905090810190601f1680156106e95780820380516001836020036101000a031916815260200191505b509550505050505060405180910390f35b34801561070657600080fd5b50610321611520565b34801561071b57600080fd5b50610724611526565b60408051602080825283518183015283519192839290830191858101910280838360005b83811015610760578181015183820152602001610748565b505050509050019250505060405180910390f35b34801561078057600080fd5b5061072460043560243560443515156064351515611587565b3480156107a557600080fd5b506102f5600160a060020a03600435166024356116d3565b3480156107c957600080fd5b506107246004356117a5565b3480156107e157600080fd5b5061035460043561191e565b3480156107f957600080fd5b5061032161193f565b34801561080e57600080fd5b50610354600435611945565b34801561082657600080fd5b506103546004356119c4565b34801561083e57600080fd5b50610354600160a060020a0360043516611a8d565b34801561085f57600080fd5b50604080516020600460443581810135601f8101849004840285018401909552848452610321948235600160a060020a0316946024803595369594606494920191908190840183828082843750949750611ac19650505050505050565b3480156108c857600080fd5b50610321611ae0565b3480156108dd57600080fd5b50610321611ae5565b3480156108f257600080fd5b50610321600160a060020a0360043581169060243516611aeb565b34801561091957600080fd5b50610321611b16565b34801561092e57600080fd5b50610354600160a060020a0360043581169060243516611b1c565b34801561095557600080fd5b50610321611ca6565b34801561096a57600080fd5b50610354600435611cac565b34801561098257600080fd5b5060408051602060046024803582810135601f8101859004850286018501909652858552610354958335953695604494919390910191908190840183828082843750949750611f079650505050505050565b600d8054829081106109e257fe5b600091825260209091200154600160a060020a0316905081565b60058054604080516020601f6002600019610100600188161502019095169490940493840181900481028201810190925282815260609390929091830182828015610a885780601f10610a5d57610100808354040283529160200191610a88565b820191906000526020600020905b815481529060010190602001808311610a6b57829003601f168201915b505050505090505b90565b6000600160a060020a0383161515610aaa57600080fd5b600154336000908152602081905260409020541015610ac857600080fd5b336000818152600360209081526040808320600160a060020a0388811685529252909120849055600254600154610b04939291909116906120fb565b604080518381529051600160a060020a0385169133917f8c5be1e5ebec7d5bd14f71427d1e84f3dd0314c0f7b2291e5b200ac8c7c3b9259181900360200190a350600192915050565b600154600090610b7390610b67848463ffffffff6121ed16565b9063ffffffff61221b16565b92915050565b6000333014610b8757600080fd5b600160a060020a0382166000908152600c6020526040902054829060ff161515610bb057600080fd5b600160a060020a0383166000908152600c60205260408120805460ff1916905591505b600d5460001901821015610c8b5782600160a060020a0316600d83815481101515610bfa57fe5b600091825260209091200154600160a060020a03161415610c8057600d80546000198101908110610c2757fe5b600091825260209091200154600d8054600160a060020a039092169184908110610c4d57fe5b9060005260206000200160006101000a815481600160a060020a030219169083600160a060020a03160217905550610c8b565b600190910190610bd3565b600d80546000190190610c9e90826124f6565b50600d54600e541115610cb757600d54610cb790611945565b604051600160a060020a038416907f8001553a916ef2f495d26a907cc54d96ed840d7bda71e73194bf5a9df7a76b9090600090a2505050565b60045490565b600254600160a060020a031690565b336000818152600c602052604090205460ff161515610d2357600080fd5b6000828152600b602090815260408083203380855292529091205483919060ff161515610d4f57600080fd5b6000848152600a6020526040902060030154849060ff1615610d7057600080fd5b6000858152600b60209081526040808320338085529252808320805460ff191690555187927ff6a317157440607f36269043eb55f1287a5a19ba2216afeab88cd46cbcfb88e991a35050505050565b600080610dd76001548461221b90919063ffffffff16565b600160a060020a038616600090815260208190526040902054909150811115610dff57600080fd5b600160a060020a0385166000908152600360209081526040808320338452909152902054831115610e2f57600080fd5b600160a060020a0385166000908152600360209081526040808320338452909152902054610e63908263ffffffff61222d16565b600160a060020a0386166000908152600360209081526040808320338452909152902055610e928585856120fb565b600254600154610eaf918791600160a060020a03909116906120fb565b6002546001546040805191825251600160a060020a039283169287169133917ffcf5b3276434181e3c48bd3fe569b8939808f11e845d4b963693b9d7dbd6dd999181900360200190a4506001949350505050565b60015490565b6000806060601084815481101515610f1d57fe5b600091825260209091206001600390920201015460108054600160a060020a0390921694509085908110610f4d57fe5b9060005260206000209060030201600001549150601084815481101515610f7057fe5b600091825260209182902060026003909202018101805460408051601f6000196101006001861615020190931694909404918201859004850284018501905280835291929091908301828280156110085780601f10610fdd57610100808354040283529160200191611008565b820191906000526020600020905b815481529060010190602001808311610feb57829003601f168201915b505050505090509193909250565b600c6020526000908152604090205460ff1681565b60075460ff1690565b600254600160a060020a0316331461104b57600080fd5b61105481612244565b50565b600b60209081526000928352604080842090915290825290205460ff1681565b61107f610cf6565b600160a060020a0316331461109357600080fd5b600955565b6000805b600f548110156110fd578380156110c557506000818152600a602052604090206003015460ff16155b806110e957508280156110e957506000818152600a602052604090206003015460ff165b156110f5576001820191505b60010161109c565b5092915050565b33301461111057600080fd5b600160a060020a0381166000908152600c6020526040902054819060ff161561113857600080fd5b81600160a060020a038116151561114e57600080fd5b600d80549050600101600e546032821115801561116b5750818111155b801561117657508015155b801561118157508115155b151561118c57600080fd5b600160a060020a0385166000818152600c6020526040808220805460ff19166001908117909155600d8054918201815583527fd7b6990105719101dabeb77144f2a3385c8033acd3af97e9423a695e81ad1eb501805473ffffffffffffffffffffffffffffffffffffffff191684179055517ff39e6e1eb0edcf53c221607b54b00cd28f3196fed0a24994dc308b8f611b682d9190a25050505050565b600160a060020a031660009081526020819052604090205490565b601080548290811061125257fe5b6000918252602091829020600391909102018054600180830154600280850180546040805161010096831615969096026000190190911692909204601f8101889004880285018801909252818452939650600160a060020a03909116949192918301828280156113035780601f106112d857610100808354040283529160200191611303565b820191906000526020600020905b8154815290600101906020018083116112e657829003601f168201915b5050505050905083565b600080805b600d5481101561138a576000848152600b60205260408120600d80549192918490811061133b57fe5b6000918252602080832090910154600160a060020a0316835282019290925260400190205460ff161561136f576001820191505b600e54821415611382576001925061138a565b600101611312565b5050919050565b6000805b600d548110156113fa576000838152600b60205260408120600d8054919291849081106113be57fe5b6000918252602080832090910154600160a060020a0316835282019290925260400190205460ff16156113f2576001820191505b600101611395565b50919050565b60068054604080516020601f6002600019610100600188161502019095169490940493840181900481028201810190925282815260609390929091830182828015610a885780601f10610a5d57610100808354040283529160200191610a88565b600a6020908152600091825260409182902080546001808301546002808501805488516101009582161595909502600019011691909104601f8101879004870284018701909752868352600160a060020a0390931695909491929183018282801561150d5780601f106114e25761010080835404028352916020019161150d565b820191906000526020600020905b8154815290600101906020018083116114f057829003601f168201915b5050506003909301549192505060ff1684565b60085481565b6060600d805480602002602001604051908101604052809291908181526020018280548015610a8857602002820191906000526020600020905b8154600160a060020a03168152600190910190602001808311611560575050505050905090565b606060006060600080600f54881161159f57876115a3565b600f545b93508884036040519080825280602002602001820160405280156115d1578160200160208202803883390190505b509250600091508890505b878110156116555786801561160357506000818152600a602052604090206003015460ff16155b80611627575085801561162757506000818152600a602052604090206003015460ff165b1561164d5780838381518110151561163b57fe5b60209081029091010152600191909101905b6001016115dc565b8160405190808252806020026020018201604052801561167f578160200160208202803883390190505b509450600090505b818110156116c757828181518110151561169d57fe5b9060200190602002015185828151811015156116b557fe5b60209081029091010152600101611687565b50505050949350505050565b600080600160a060020a03841615156116eb57600080fd5b6001546116ff90849063ffffffff61221b16565b3360009081526020819052604090205490915081111561171e57600080fd5b6117293385856120fb565b6000600154111561179b57600254600154611751913391600160a060020a03909116906120fb565b6002546001546040805191825251600160a060020a039283169287169133917ffcf5b3276434181e3c48bd3fe569b8939808f11e845d4b963693b9d7dbd6dd999181900360200190a45b5060019392505050565b606080600080600d805490506040519080825280602002602001820160405280156117da578160200160208202803883390190505b50925060009150600090505b600d54811015611897576000858152600b60205260408120600d80549192918490811061180f57fe5b6000918252602080832090910154600160a060020a0316835282019290925260400190205460ff161561188f57600d80548290811061184a57fe5b6000918252602090912001548351600160a060020a039091169084908490811061187057fe5b600160a060020a03909216602092830290910190910152600191909101905b6001016117e6565b816040519080825280602002602001820160405280156118c1578160200160208202803883390190505b509350600090505b818110156119165782818151811015156118df57fe5b9060200190602002015184828151811015156118f757fe5b600160a060020a039092166020928302909101909101526001016118c9565b505050919050565b611926610cf6565b600160a060020a0316331461193a57600080fd5b600855565b600f5481565b33301461195157600080fd5b600d5481603282118015906119665750818111155b801561197157508015155b801561197c57508115155b151561198757600080fd5b600e8390556040805184815290517fa3f1ee9126a074d9326c682f561767f710e927faa811f7a99829d49dc421797a9181900360200190a1505050565b336000818152600c602052604090205460ff1615156119e257600080fd5b6000828152600a60205260409020548290600160a060020a03161515611a0757600080fd5b6000838152600b602090815260408083203380855292529091205484919060ff1615611a3257600080fd5b6000858152600b60209081526040808320338085529252808320805460ff191660011790555187927f4a504a94899432a9846e1aa406dceb1bcfd538bb839071d49d1e5e23f5be30ef91a3611a8685611cac565b5050505050565b611a95610cf6565b600160a060020a03163314611aa957600080fd5b600160a060020a038116156110545761105433612249565b6000611ace84848461228d565b9050611ad9816119c4565b9392505050565b603281565b600e5481565b600160a060020a03918216600090815260036020908152604080832093909416825291909152205490565b60095481565b6000333014611b2a57600080fd5b600160a060020a0383166000908152600c6020526040902054839060ff161515611b5357600080fd5b600160a060020a0383166000908152600c6020526040902054839060ff1615611b7b57600080fd5b600092505b600d54831015611c0c5784600160a060020a0316600d84815481101515611ba357fe5b600091825260209091200154600160a060020a03161415611c015783600d84815481101515611bce57fe5b9060005260206000200160006101000a815481600160a060020a030219169083600160a060020a03160217905550611c0c565b600190920191611b80565b600160a060020a038086166000818152600c6020526040808220805460ff1990811690915593881682528082208054909416600117909355915190917f8001553a916ef2f495d26a907cc54d96ed840d7bda71e73194bf5a9df7a76b9091a2604051600160a060020a038516907ff39e6e1eb0edcf53c221607b54b00cd28f3196fed0a24994dc308b8f611b682d90600090a25050505050565b60105490565b336000818152600c602052604081205490919060ff161515611ccd57600080fd5b6000838152600b602090815260408083203380855292529091205484919060ff161515611cf957600080fd5b6000858152600a6020526040902060030154859060ff1615611d1a57600080fd5b611d238661130d565b15611eff576000868152600a6020526040902060038101805460ff19166001908117909155600280830154929750600019918316156101000291909101909116041515611ded576009546001860154611d819163ffffffff61222d16565b600186018190558554611d9f91600160a060020a039091169061237e565b60006009541115611dbd57611dbd611db5610cf6565b60095461237e565b60405186907f33e13ecb54c3076d8e8bb8c2881800a4d972b792045ffae98fdf46df365fed7590600090a2611eff565b8460000160009054906101000a9004600160a060020a0316600160a060020a03168560010154866002016040518082805460018160011615610100020316600290048015611e7c5780601f10611e5157610100808354040283529160200191611e7c565b820191906000526020600020905b815481529060010190602001808311611e5f57829003601f168201915b505091505060006040518083038185875af19250505015611ec75760405186907f33e13ecb54c3076d8e8bb8c2881800a4d972b792045ffae98fdf46df365fed7590600090a2611eff565b60405186907f526441bb6c1aba3c9a4a6ca1d6545da9c2333c8c48343ef398eb858d72b7923690600090a260038501805460ff191690555b505050505050565b6008546000908311611f1857600080fd5b611f223384612428565b60006008541115611f4057611f40611f38610cf6565b60085461237e565b600854611f5490849063ffffffff61222d16565b604080516060810182528281523360208083019182529282018681526010805460018101808355600092909252845160039091027f1b6847dc741a1b0cd08d278845f9d819d87b734759afb55fe2de5cb82a9ae672810191825593517f1b6847dc741a1b0cd08d278845f9d819d87b734759afb55fe2de5cb82a9ae67385018054600160a060020a039290921673ffffffffffffffffffffffffffffffffffffffff199092169190911790559151805196975090959394919361203e937f1b6847dc741a1b0cd08d278845f9d819d87b734759afb55fe2de5cb82a9ae6740192919091019061251f565b5050505033600160a060020a03166001601080549050037f6905852b196f81e7e03058512a599446c358027fc943c1e193b6649a39379bb583856040518083815260200180602001828103825283818151815260200191508051906020019080838360005b838110156120bb5781810151838201526020016120a3565b50505050905090810190601f1680156120e85780820380516001836020036101000a031916815260200191505b50935050505060405180910390a3505050565b600160a060020a03831660009081526020819052604090205481111561212057600080fd5b600160a060020a038216151561213557600080fd5b600160a060020a03831660009081526020819052604090205461215e908263ffffffff61222d16565b600160a060020a038085166000908152602081905260408082209390935590841681522054612193908263ffffffff61221b16565b600160a060020a038084166000818152602081815260409182902094909455805185815290519193928716927fddf252ad1be2c89b69c2b068fc378daa952ba7f163c4a11628f55a4df523b3ef92918290030190a3505050565b60008083151561220057600091506110fd565b5082820282848281151561221057fe5b0414611ad957600080fd5b600082820183811015611ad957600080fd5b6000808383111561223d57600080fd5b5050900390565b600155565b600160a060020a038116151561225e57600080fd5b6002805473ffffffffffffffffffffffffffffffffffffffff1916600160a060020a0392909216919091179055565b600083600160a060020a03811615156122a557600080fd5b600f5460408051608081018252600160a060020a0388811682526020808301898152838501898152600060608601819052878152600a8452959095208451815473ffffffffffffffffffffffffffffffffffffffff19169416939093178355516001830155925180519496509193909261232692600285019291019061251f565b50606091909101516003909101805460ff1916911515919091179055600f8054600101905560405182907fc0ba8fe4b176c1714197d43b9cc6bcf797a4a7461c5fe8d0ef6e184ae7601e5190600090a2509392505050565b600160a060020a038216151561239357600080fd5b6004546123a6908263ffffffff61221b16565b600455600160a060020a0382166000908152602081905260409020546123d2908263ffffffff61221b16565b600160a060020a0383166000818152602081815260408083209490945583518581529351929391927fddf252ad1be2c89b69c2b068fc378daa952ba7f163c4a11628f55a4df523b3ef9281900390910190a35050565b600160a060020a038216151561243d57600080fd5b600160a060020a03821660009081526020819052604090205481111561246257600080fd5b600454612475908263ffffffff61222d16565b600455600160a060020a0382166000908152602081905260409020546124a1908263ffffffff61222d16565b600160a060020a038316600081815260208181526040808320949094558351858152935191937fddf252ad1be2c89b69c2b068fc378daa952ba7f163c4a11628f55a4df523b3ef929081900390910190a35050565b81548183558181111561251a5760008381526020902061251a91810190830161259d565b505050565b828054600181600116156101000203166002900490600052602060002090601f016020900481019282601f1061256057805160ff191683800117855561258d565b8280016001018555821561258d579182015b8281111561258d578251825591602001919060010190612572565b5061259992915061259d565b5090565b610a9091905b8082111561259957600081556001016125a35600a165627a7a72305820a8ed068296f9062734547c0fb3114117d81e79bdea3c68180d64574e8db4b2030029",
  "source": "pragma solidity ^0.4.24;\n\nlibrary SafeMath {\n\n    /**\n     * @dev Multiplies two numbers, reverts on overflow.\n     */\n    function mul(uint256 a, uint256 b) internal pure returns (uint256) {\n        // Gas optimization: this is cheaper than requiring 'a' not being zero, but the\n        // benefit is lost if 'b' is also tested.\n        // See: https://github.com/OpenZeppelin/openzeppelin-solidity/pull/522\n        if (a == 0) {\n            return 0;\n        }\n\n        uint256 c = a * b;\n        require(c / a == b);\n\n        return c;\n    }\n\n    /**\n     * @dev Integer division of two numbers truncating the quotient, reverts on division by zero.\n     */\n    function div(uint256 a, uint256 b) internal pure returns (uint256) {\n        require(b > 0); // Solidity only automatically asserts when dividing by 0\n        uint256 c = a / b;\n        // assert(a == b * c + a % b); // There is no case in which this doesn't hold\n\n        return c;\n    }\n\n    /**\n     * @dev Subtracts two numbers, reverts on overflow (i.e. if subtrahend is greater than minuend).\n     */\n    function sub(uint256 a, uint256 b) internal pure returns (uint256) {\n        require(b <= a);\n        uint256 c = a - b;\n\n        return c;\n    }\n\n    /**\n     * @dev Adds two numbers, reverts on overflow.\n     */\n    function add(uint256 a, uint256 b) internal pure returns (uint256) {\n        uint256 c = a + b;\n        require(c >= a);\n\n        return c;\n    }\n\n    /**\n     * @dev Divides two numbers and returns the remainder (unsigned integer modulo),\n     * reverts when dividing by zero.\n     */\n    function mod(uint256 a, uint256 b) internal pure returns (uint256) {\n        require(b != 0);\n        return a % b;\n    }\n}\n\n/**\n * @title TRC21 interface\n */\ninterface ITRC21 {\n    function totalSupply() external view returns (uint256);\n\n    function balanceOf(address who) external view returns (uint256);\n\n    function issuer() external view returns (address);\n\n    function decimals() external view returns (uint8);\n\n    function estimateFee(uint256 value) external view returns (uint256);\n\n    function allowance(address owner, address spender) external view returns (uint256);\n\n    function transfer(address to, uint256 value) external returns (bool);\n\n    function approve(address spender, uint256 value) external returns (bool);\n\n    function transferFrom(address from, address to, uint256 value) external returns (bool);\n\n    event Transfer(address indexed from, address indexed to, uint256 value);\n\n    event Approval(address indexed owner, address indexed spender, uint256 value);\n\n    event Fee(address indexed from, address indexed to, address indexed issuer, uint256 value);\n}\n\n/**\n * @title Standard TRC21 token\n * @dev Implementation of the basic standard token.\n */\ncontract TRC21 is ITRC21 {\n    using SafeMath for uint256;\n\n    mapping (address => uint256) private _balances;\n    uint256 private _minFee;\n    address private _issuer;\n    mapping (address => mapping (address => uint256)) private _allowed;\n    uint256 private _totalSupply;\n\n    string private _name;\n    string private _symbol;\n    uint8 private _decimals;\n\n    constructor (string memory name, string memory symbol, uint8 decimals) public {\n        _name = name;\n        _symbol = symbol;\n        _decimals = decimals;\n    }\n\n    function name() public view returns (string) {\n        return _name;\n    }\n\n    function symbol() public view returns (string) {\n        return _symbol;\n    }\n\n    function decimals() public view returns (uint8) {\n        return _decimals;\n    }\n\n    /**\n     * @dev Total number of tokens in existence\n     */\n    function totalSupply() public view returns (uint256) {\n        return _totalSupply;\n    }\n\n    /**\n     * @dev  The amount fee that will be lost when transferring.\n     */\n    function minFee() public view returns (uint256) {\n        return _minFee;\n    }\n\n    /**\n     * @dev token's foundation\n     */\n    function issuer() public view returns (address) {\n        return _issuer;\n    }\n\n    /**\n     * @dev Gets the balance of the specified address.\n     * @param owner The address to query the balance of.\n     * @return An uint256 representing the amount owned by the passed address.\n     */\n    function balanceOf(address owner) public view returns (uint256) {\n        return _balances[owner];\n    }\n\n    /**\n     * @dev Estimate transaction fee.\n     * @param value amount tokens sent\n     */\n    function estimateFee(uint256 value) public view returns (uint256) {\n        return value.mul(0).add(_minFee);\n    }\n\n    function setMinFee(uint256 value) public {\n        require(msg.sender == _issuer);\n        _changeMinFee(value);\n    }\n\n    /**\n     * @dev Function to check the amount of tokens that an owner allowed to a spender.\n     * @param owner address The address which owns the funds.\n     * @param spender address The address which will spend the funds.\n     * @return A uint256 specifying the amount of tokens still available for the spender.\n     */\n    function allowance(address owner,address spender) public view returns (uint256){\n        return _allowed[owner][spender];\n    }\n\n    /**\n     * @dev Transfer token for a specified address\n     * @param to The address to transfer to.\n     * @param value The amount to be transferred.\n     */\n    function transfer(address to, uint256 value) public returns (bool) {\n        require(to != address(0));\n        uint256 total = value.add(_minFee);\n        require(total <= _balances[msg.sender]);    \n        _transfer(msg.sender, to, value);\n        if (_minFee > 0) {\n            _transfer(msg.sender, _issuer, _minFee);\n            emit Fee(msg.sender, to, _issuer, _minFee);\n        }\n        return true;\n    }\n\n    /**\n     * @dev Approve the passed address to spend the specified amount of tokens on behalf of msg.sender.\n     * Beware that changing an allowance with this method brings the risk that someone may use both the old\n     * and the new allowance by unfortunate transaction ordering. One possible solution to mitigate this\n     * race condition is to first reduce the spender's allowance to 0 and set the desired value afterwards:\n     * https://github.com/ethereum/EIPs/issues/20#issuecomment-263524729\n     * @param spender The address which will spend the funds.\n     * @param value The amount of tokens to be spent.\n     */\n    function approve(address spender, uint256 value) public returns (bool) {\n        require(spender != address(0));\n        require(_balances[msg.sender] >= _minFee);\n        _allowed[msg.sender][spender] = value;\n        _transfer(msg.sender, _issuer, _minFee);\n        emit Approval(msg.sender, spender, value);\n        return true;\n    }\n\n    /**\n     * @dev Transfer tokens from one address to another\n     * @param from address The address which you want to send tokens from\n     * @param to address The address which you want to transfer to\n     * @param value uint256 the amount of tokens to be transferred\n     */\n    function transferFrom(address from,\taddress to,\tuint256 value)\tpublic returns (bool) {\n        uint256 total = value.add(_minFee);\n        require(total <= _balances[from]);   \n        require(value <= _allowed[from][msg.sender]);   //msg.sender should be allowed to transfer maximum of value amount\n\n        _allowed[from][msg.sender] = _allowed[from][msg.sender].sub(total);\n        _transfer(from, to, value);\n        _transfer(from, _issuer, _minFee);\n        emit Fee(msg.sender, to, _issuer, _minFee);\n        return true;\n    }\n\n    /**\n     * @dev Transfer token for a specified addresses\n     * @param from The address to transfer from.\n     * @param to The address to transfer to.\n     * @param value The amount to be transferred.\n     */\n    function _transfer(address from, address to, uint256 value) internal {\n        require(value <= _balances[from]);\n        require(to != address(0));  \n        _balances[from] = _balances[from].sub(value);\n        _balances[to] = _balances[to].add(value);\n        emit Transfer(from, to, value); \n    }\n\n    /**\n     * @dev Internal function that mints an amount of the token and assigns it to\n     * an account. This encapsulates the modification of balances such that the\n     * proper events are emitted.\n     * @param account The account that will receive the created tokens.\n     * @param value The amount that will be created.\n     */\n    function _mint(address account, uint256 value) internal {\n        require(account != 0);\n        _totalSupply = _totalSupply.add(value);\n        _balances[account] = _balances[account].add(value);\n        emit Transfer(address(0), account, value);\n    }\n\n    /**\n     * @dev Internal function that burns an amount of the token of a given\n     * account.\n     * @param account The account whose tokens will be burnt.\n     * @param value The amount that will be burnt.\n     */\n    function _burn(address account, uint256 value) internal {\n        require(account != 0);\n        require(value <= _balances[account]);\n\n        _totalSupply = _totalSupply.sub(value);\n        _balances[account] = _balances[account].sub(value);\n        emit Transfer(account, address(0), value);\n    }\n\n    /**\n     * @dev Transfers token's foundation to new issuer\n     * @param newIssuer The address to transfer ownership to.\n     */\n    function _changeIssuer(address newIssuer) internal {\n        require(newIssuer != address(0));\n        _issuer = newIssuer;\n    }\n\n    /**\n     * @dev Change minFee\n     * @param value minFee\n     */\n    function _changeMinFee(uint256 value) internal {\n        _minFee = value;\n    }\n}\n\n//Wrap token based on multisig wallet that only mints new token if there are user deposits \ncontract TomoBridgeWrapToken is TRC21 {\n    /*\n     *  Events\n     */\n    // event TxBurn(uint indexed transactionId);\n    event Confirmation(address indexed sender, uint indexed transactionId);\n    event Revocation(address indexed sender, uint indexed transactionId);\n    event Submission(uint indexed transactionId);\n    event Execution(uint indexed transactionId);\n    event ExecutionFailure(uint indexed transactionId);\n    event OwnerAddition(address indexed owner);\n    event OwnerRemoval(address indexed owner);\n    event RequirementChange(uint required);\n    event TokenBurn(uint256 indexed burnID, address indexed burner, uint256 value, bytes data);\n\n    /*\n     *  Constants\n     */\n    uint constant public MAX_OWNER_COUNT = 50;\n    uint public WITHDRAW_FEE = 0;\n    uint public DEPOSIT_FEE = 0;\n    \n    /*\n     *  Storage\n     */\n    mapping (uint => Transaction) public transactions;\n    mapping (uint => mapping (address => bool)) public confirmations;\n    mapping (address => bool) public isOwner;\n    address[] public owners;\n    uint public required;\n    uint public transactionCount;\n    TokenBurnData[] public burnList;\n\n    struct TokenBurnData {\n        uint256 value;\n        address burner;\n        bytes data;\n    }\n    \n    struct Transaction {\n        address destination;\n        uint value;\n        bytes data; //data is used in transactions altering owner list\n        bool executed;\n    }\n\n    /*\n     *  Modifiers\n     */\n    modifier onlyWallet() {\n        require(msg.sender == address(this));\n        _;\n    }\n\n    modifier onlyContractIssuer() {\n        require(msg.sender == issuer());\n        _;\n    }\n\n    modifier ownerDoesNotExist(address owner) {\n        require(!isOwner[owner]);\n        _;\n    }\n\n    modifier ownerExists(address owner) {\n        require(isOwner[owner]);\n        _;\n    }\n\n    modifier transactionExists(uint transactionId) {\n        require(transactions[transactionId].destination != 0);\n        _;\n    }\n\n    modifier confirmed(uint transactionId, address owner) {\n        require(confirmations[transactionId][owner]);\n        _;\n    }\n\n    modifier notConfirmed(uint transactionId, address owner) {\n        require(!confirmations[transactionId][owner]);\n        _;\n    }\n\n    modifier notExecuted(uint transactionId) {\n        require(!transactions[transactionId].executed);\n        _;\n    }\n\n    modifier notNull(address _address) {\n        require(_address != 0);\n        _;\n    }\n\n    modifier validRequirement(uint ownerCount, uint _required) {\n        require(ownerCount <= MAX_OWNER_COUNT\n        && _required <= ownerCount\n        && _required != 0\n        && ownerCount != 0);\n        _;\n    }\n\n    /*\n     * Public functions\n     */\n    /// @dev Contract constructor sets initial owners and required number of confirmations.\n    /// @param _owners List of initial owners.\n    /// @param _required Number of required confirmations.\n    constructor (address[] _owners,\n                 uint _required, string memory _name,\n                 string memory _symbol, uint8 _decimals,\n                 uint256 cap, uint256 minFee,\n                 uint256 depositFee, uint256 withdrawFee\n                ) TRC21(_name, _symbol, _decimals) public validRequirement(_owners.length, _required) {\n        _mint(msg.sender, cap);\n        _changeIssuer(msg.sender);\n        _changeMinFee(minFee);\n        for (uint i=0; i<_owners.length; i++) {\n            require(!isOwner[_owners[i]] && _owners[i] != 0);\n            isOwner[_owners[i]] = true;\n        }\n        owners = _owners;\n        required = _required;\n        DEPOSIT_FEE = depositFee;\n        WITHDRAW_FEE = withdrawFee;\n    }\n\n    function transferContractIssuer(address newOwner) public onlyContractIssuer {\n        if (newOwner != address(0)) {\n            _changeIssuer(msg.sender);\n        }\n    }\n\n    function setDepositFee(uint256 depositFee) public onlyContractIssuer {\n        DEPOSIT_FEE = depositFee;\n    }\n\n    function setWithdrawFee(uint256 withdrawFee) public onlyContractIssuer {\n        WITHDRAW_FEE = withdrawFee;\n    }\n\n    /// @dev Allows to add a new owner. Transaction has to be sent by wallet.\n    /// @param owner Address of new owner.\n    function addOwner(address owner) \n    public\n    onlyWallet\n    ownerDoesNotExist(owner)\n    notNull(owner)\n    validRequirement(owners.length + 1, required)\n    {\n        isOwner[owner] = true;\n        owners.push(owner);\n        OwnerAddition(owner);\n    }\n\n    /// @dev Allows to remove an owner. Transaction has to be sent by wallet.\n    /// @param owner Address of owner.\n    function removeOwner(address owner)\n    public\n    onlyWallet\n    ownerExists(owner)\n    {\n        isOwner[owner] = false;\n        for (uint i=0; i<owners.length - 1; i++)\n            if (owners[i] == owner) {\n                owners[i] = owners[owners.length - 1];\n                break;\n            }\n        owners.length -= 1;\n        if (required > owners.length)\n            changeRequirement(owners.length);\n        OwnerRemoval(owner);\n    }\n\n    /// @dev Allows to replace an owner with a new owner. Transaction has to be sent by wallet.\n    /// @param owner Address of owner to be replaced.\n    /// @param newOwner Address of new owner.\n    function replaceOwner(address owner, address newOwner)\n    public\n    onlyWallet\n    ownerExists(owner)\n    ownerDoesNotExist(newOwner)\n    {\n        for (uint i=0; i<owners.length; i++)\n            if (owners[i] == owner) {\n                owners[i] = newOwner;\n                break;\n            }\n        isOwner[owner] = false;\n        isOwner[newOwner] = true;\n        OwnerRemoval(owner);\n        OwnerAddition(newOwner);\n    }\n\n    /// @dev Allows to change the number of required confirmations. Transaction has to be sent by wallet.\n    /// @param _required Number of required confirmations.\n    function changeRequirement(uint _required)\n    public\n    onlyWallet\n    validRequirement(owners.length, _required)\n    {\n        required = _required;\n        RequirementChange(_required);\n    }\n\n    /// @dev Allows an owner to submit and confirm a transaction.\n    /// @param destination Transaction target address.\n    /// @param value Transaction ether value.\n    /// @param data Transaction data payload.\n    /// @return Returns transaction ID.\n    function submitTransaction(address destination, uint value, bytes data) \n    public\n    returns (uint transactionId)\n    {\n        //transaction is considered as minting if no data provided, otherwise it's owner changing transaction\n        transactionId = addTransaction(destination, value, data);\n        confirmTransaction(transactionId);\n    }\n    \n\n    /// @dev Allows an owner to confirm a transaction.\n    /// @param transactionId Transaction ID.\n    function confirmTransaction(uint transactionId)\n    public\n    ownerExists(msg.sender)\n    transactionExists(transactionId)\n    notConfirmed(transactionId, msg.sender)\n    {\n        confirmations[transactionId][msg.sender] = true;\n        Confirmation(msg.sender, transactionId);\n        executeTransaction(transactionId);\n    }\n\n    /// @dev Allows an owner to revoke a confirmation for a transaction.\n    /// @param transactionId Transaction ID.\n    function revokeConfirmation(uint transactionId)\n    public\n    ownerExists(msg.sender)\n    confirmed(transactionId, msg.sender)\n    notExecuted(transactionId)\n    {\n        confirmations[transactionId][msg.sender] = false;\n        Revocation(msg.sender, transactionId);\n    }\n\n    /// @dev Allows an user to burn the token.\n    function burn(uint value, bytes data)\n    public\n    {\n        require(value > WITHDRAW_FEE);  //avoid spamming \n        super._burn(msg.sender, value);\n        if (WITHDRAW_FEE > 0) {\n            super._mint(issuer(), WITHDRAW_FEE);\n        }\n        uint256 burnValue = value.sub(WITHDRAW_FEE);\n        burnList.push(TokenBurnData({\n            value: burnValue,\n            burner: msg.sender,\n            data: data \n        }));\n        TokenBurn(burnList.length - 1, msg.sender, burnValue, data);\n    }\n\n    /// @dev Allows anyone to execute a confirmed transaction.\n    /// @param transactionId Transaction ID.\n    function executeTransaction(uint transactionId)\n    public\n    ownerExists(msg.sender)\n    confirmed(transactionId, msg.sender)\n    notExecuted(transactionId)\n    {\n        if (isConfirmed(transactionId)) {\n            Transaction storage txn = transactions[transactionId];\n            txn.executed = true;\n\n            // just need multisig for minting - freely burn\n            if (txn.data.length == 0) {\n                //execute minting transaction\n                txn.value = txn.value.sub(DEPOSIT_FEE);\n                super._mint(txn.destination, txn.value);\n                if (DEPOSIT_FEE > 0) {\n                    super._mint(issuer(), DEPOSIT_FEE);\n                }\n                Execution(transactionId);\n            } else {\n                //transaction that alters the owners list\n                if (txn.destination.call.value(txn.value)(txn.data))\n                    Execution(transactionId);\n                else {\n                    ExecutionFailure(transactionId);\n                    txn.executed = false;\n                }\n            }\n        }\n    }\n\n    /// @dev Returns the confirmation status of a transaction.\n    /// @param transactionId Transaction ID.\n    /// @return Confirmation status.\n    function isConfirmed(uint transactionId)\n    public\n    constant\n    returns (bool)\n    {\n        uint count = 0;\n        for (uint i=0; i<owners.length; i++) {\n            if (confirmations[transactionId][owners[i]])\n                count += 1;\n            if (count == required)\n                return true;\n        }\n    }\n\n    /*\n     * Internal functions\n     */\n    /// @dev Adds a new transaction to the transaction mapping, if transaction does not exist yet.\n    /// @param destination Transaction target address.\n    /// @param value Transaction ether value.\n    /// @param data Transaction data payload.\n    /// @return Returns transaction ID.\n    function addTransaction(address destination, uint value, bytes data)\n    internal\n    notNull(destination)\n    returns (uint transactionId)\n    {\n        transactionId = transactionCount;\n        transactions[transactionId] = Transaction({\n            destination: destination,\n            value: value,\n            data: data,\n            executed: false\n        });\n        transactionCount += 1;\n        Submission(transactionId);\n    }\n\n    /*\n     * Web3 call functions\n     */\n    /// @dev Returns number of confirmations of a transaction.\n    /// @param transactionId Transaction ID.\n    /// @return Number of confirmations.\n    function getConfirmationCount(uint transactionId)\n    public\n    constant\n    returns (uint count)\n    {\n        for (uint i=0; i<owners.length; i++)\n            if (confirmations[transactionId][owners[i]])\n                count += 1;\n    }\n\n    /// @dev Returns total number of transactions after filers are applied.\n    /// @param pending Include pending transactions.\n    /// @param executed Include executed transactions.\n    /// @return Total number of transactions after filters are applied.\n    function getTransactionCount(bool pending, bool executed)\n    public\n    constant\n    returns (uint count)\n    {\n        for (uint i=0; i<transactionCount; i++)\n            if (   pending && !transactions[i].executed\n            || executed && transactions[i].executed)\n                count += 1;\n    }\n\n    /// @dev Returns list of owners.\n    /// @return List of owner addresses.\n    function getOwners()\n    public\n    constant\n    returns (address[])\n    {\n        return owners;\n    }\n\n    /// @dev Returns array with owner addresses, which confirmed transaction.\n    /// @param transactionId Transaction ID.\n    /// @return Returns array of owner addresses.\n    function getConfirmations(uint transactionId)\n    public\n    constant\n    returns (address[] _confirmations)\n    {\n        address[] memory confirmationsTemp = new address[](owners.length);\n        uint count = 0;\n        uint i;\n        for (i=0; i<owners.length; i++)\n            if (confirmations[transactionId][owners[i]]) {\n                confirmationsTemp[count] = owners[i];\n                count += 1;\n            }\n        _confirmations = new address[](count);\n        for (i=0; i<count; i++)\n            _confirmations[i] = confirmationsTemp[i];\n    }\n\n    /// @dev Returns list of transaction IDs in defined range.\n    /// @param from Index start position of transaction array.\n    /// @param to Index end position of transaction array.\n    /// @param pending Include pending transactions.\n    /// @param executed Include executed transactions.\n    /// @return Returns array of transaction IDs.\n    function getTransactionIds(uint from, uint to, bool pending, bool executed)\n    public\n    constant\n    returns (uint[] _transactionIds)\n    {\n        uint end = to > transactionCount? transactionCount: to;\n        uint[] memory transactionIdsTemp = new uint[](end - from);\n        uint count = 0;\n        uint i;\n        for (i = from; i < to; i++) {\n            if ((pending && !transactions[i].executed)\n                || (executed && transactions[i].executed))\n            {\n                transactionIdsTemp[count] = i;\n                count += 1;\n            }\n        }\n        _transactionIds = new uint[](count);\n        for (i = 0; i < count; i++)\n            _transactionIds[i] = transactionIdsTemp[i];\n    }\n    \n    function getBurnCount() public view returns (uint256) {\n        return burnList.length;\n    }\n\n    function getBurn(uint burnId) public view returns (address _burner, uint256 _value, bytes _data) {\n        _burner = burnList[burnId].burner;\n        _value = burnList[burnId].value;\n        _data = burnList[burnId].data;\n    }\n\n}\n",
  "sourcePath": "/home/vagrant/projects/tomoissuer/contracts/TomoBridgeWrapToken.sol",
  "compiler": {
    "name": "solc",
    "version": "0.4.26+commit.4563c3fc.Emscripten.clang"
  },
  "schemaVersion": "3.0.23",
  "updatedAt": "2020-08-19T08:59:34.834Z",
  "devdoc": {
    "methods": {
      "addOwner(address)": {
        "details": "Allows to add a new owner. Transaction has to be sent by wallet.",
        "params": {
          "owner": "Address of new owner."
        }
      },
      "allowance(address,address)": {
        "details": "Function to check the amount of tokens that an owner allowed to a spender.",
        "params": {
          "owner": "address The address which owns the funds.",
          "spender": "address The address which will spend the funds."
        },
        "return": "A uint256 specifying the amount of tokens still available for the spender."
      },
      "approve(address,uint256)": {
        "details": "Approve the passed address to spend the specified amount of tokens on behalf of msg.sender. Beware that changing an allowance with this method brings the risk that someone may use both the old and the new allowance by unfortunate transaction ordering. One possible solution to mitigate this race condition is to first reduce the spender's allowance to 0 and set the desired value afterwards: https://github.com/ethereum/EIPs/issues/20#issuecomment-263524729",
        "params": {
          "spender": "The address which will spend the funds.",
          "value": "The amount of tokens to be spent."
        }
      },
      "balanceOf(address)": {
        "details": "Gets the balance of the specified address.",
        "params": {
          "owner": "The address to query the balance of."
        },
        "return": "An uint256 representing the amount owned by the passed address."
      },
      "burn(uint256,bytes)": {
        "details": "Allows an user to burn the token."
      },
      "changeRequirement(uint256)": {
        "details": "Allows to change the number of required confirmations. Transaction has to be sent by wallet.",
        "params": {
          "_required": "Number of required confirmations."
        }
      },
      "confirmTransaction(uint256)": {
        "details": "Allows an owner to confirm a transaction.",
        "params": {
          "transactionId": "Transaction ID."
        }
      },
      "estimateFee(uint256)": {
        "details": "Estimate transaction fee.",
        "params": {
          "value": "amount tokens sent"
        }
      },
      "executeTransaction(uint256)": {
        "details": "Allows anyone to execute a confirmed transaction.",
        "params": {
          "transactionId": "Transaction ID."
        }
      },
      "getConfirmationCount(uint256)": {
        "details": "Returns number of confirmations of a transaction.",
        "params": {
          "transactionId": "Transaction ID."
        },
        "return": "Number of confirmations."
      },
      "getConfirmations(uint256)": {
        "details": "Returns array with owner addresses, which confirmed transaction.",
        "params": {
          "transactionId": "Transaction ID."
        },
        "return": "Returns array of owner addresses."
      },
      "getOwners()": {
        "details": "Returns list of owners.",
        "return": "List of owner addresses."
      },
      "getTransactionCount(bool,bool)": {
        "details": "Returns total number of transactions after filers are applied.",
        "params": {
          "executed": "Include executed transactions.",
          "pending": "Include pending transactions."
        },
        "return": "Total number of transactions after filters are applied."
      },
      "getTransactionIds(uint256,uint256,bool,bool)": {
        "details": "Returns list of transaction IDs in defined range.",
        "params": {
          "executed": "Include executed transactions.",
          "from": "Index start position of transaction array.",
          "pending": "Include pending transactions.",
          "to": "Index end position of transaction array."
        },
        "return": "Returns array of transaction IDs."
      },
      "isConfirmed(uint256)": {
        "details": "Returns the confirmation status of a transaction.",
        "params": {
          "transactionId": "Transaction ID."
        },
        "return": "Confirmation status."
      },
      "issuer()": {
        "details": "token's foundation"
      },
      "minFee()": {
        "details": "The amount fee that will be lost when transferring."
      },
      "removeOwner(address)": {
        "details": "Allows to remove an owner. Transaction has to be sent by wallet.",
        "params": {
          "owner": "Address of owner."
        }
      },
      "replaceOwner(address,address)": {
        "details": "Allows to replace an owner with a new owner. Transaction has to be sent by wallet.",
        "params": {
          "newOwner": "Address of new owner.",
          "owner": "Address of owner to be replaced."
        }
      },
      "revokeConfirmation(uint256)": {
        "details": "Allows an owner to revoke a confirmation for a transaction.",
        "params": {
          "transactionId": "Transaction ID."
        }
      },
      "submitTransaction(address,uint256,bytes)": {
        "details": "Allows an owner to submit and confirm a transaction.",
        "params": {
          "data": "Transaction data payload.",
          "destination": "Transaction target address.",
          "value": "Transaction ether value."
        },
        "return": "Returns transaction ID."
      },
      "totalSupply()": {
        "details": "Total number of tokens in existence"
      },
      "transfer(address,uint256)": {
        "details": "Transfer token for a specified address",
        "params": {
          "to": "The address to transfer to.",
          "value": "The amount to be transferred."
        }
      },
      "transferFrom(address,address,uint256)": {
        "details": "Transfer tokens from one address to another",
        "params": {
          "from": "address The address which you want to send tokens from",
          "to": "address The address which you want to transfer to",
          "value": "uint256 the amount of tokens to be transferred"
        }
      }
    }
  },
  "userdoc": {
    "methods": {}
  }
}