{
    "contractName": "TomoBridgeWrapToken",
    "abi": [
        {
            "constant": true,
            "inputs": [
                {
                    "name": "",
                    "type": "uint256"
                }
            ],
            "name": "owners",
            "outputs": [
                {
                    "name": "",
                    "type": "address"
                }
            ],
            "payable": false,
            "stateMutability": "view",
            "type": "function"
        },
        {
            "constant": true,
            "inputs": [],
            "name": "name",
            "outputs": [
                {
                    "name": "",
                    "type": "string"
                }
            ],
            "payable": false,
            "stateMutability": "view",
            "type": "function"
        },
        {
            "constant": false,
            "inputs": [
                {
                    "name": "spender",
                    "type": "address"
                },
                {
                    "name": "value",
                    "type": "uint256"
                }
            ],
            "name": "approve",
            "outputs": [
                {
                    "name": "",
                    "type": "bool"
                }
            ],
            "payable": false,
            "stateMutability": "nonpayable",
            "type": "function"
        },
        {
            "constant": true,
            "inputs": [],
            "name": "totalSupply",
            "outputs": [
                {
                    "name": "",
                    "type": "uint256"
                }
            ],
            "payable": false,
            "stateMutability": "view",
            "type": "function"
        },
        {
            "constant": true,
            "inputs": [],
            "name": "original_contract",
            "outputs": [
                {
                    "name": "",
                    "type": "string"
                }
            ],
            "payable": false,
            "stateMutability": "view",
            "type": "function"
        },
        {
            "constant": true,
            "inputs": [],
            "name": "original_network",
            "outputs": [
                {
                    "name": "",
                    "type": "string"
                }
            ],
            "payable": false,
            "stateMutability": "view",
            "type": "function"
        },
        {
            "constant": false,
            "inputs": [
                {
                    "name": "from",
                    "type": "address"
                },
                {
                    "name": "to",
                    "type": "address"
                },
                {
                    "name": "value",
                    "type": "uint256"
                }
            ],
            "name": "transferFrom",
            "outputs": [
                {
                    "name": "",
                    "type": "bool"
                }
            ],
            "payable": false,
            "stateMutability": "nonpayable",
            "type": "function"
        },
        {
            "constant": true,
            "inputs": [],
            "name": "WITHDRAW_FEE_TOMO",
            "outputs": [
                {
                    "name": "",
                    "type": "uint256"
                }
            ],
            "payable": false,
            "stateMutability": "view",
            "type": "function"
        },
        {
            "constant": true,
            "inputs": [
                {
                    "name": "",
                    "type": "address"
                }
            ],
            "name": "isOwner",
            "outputs": [
                {
                    "name": "",
                    "type": "bool"
                }
            ],
            "payable": false,
            "stateMutability": "view",
            "type": "function"
        },
        {
            "constant": true,
            "inputs": [],
            "name": "decimals",
            "outputs": [
                {
                    "name": "",
                    "type": "uint8"
                }
            ],
            "payable": false,
            "stateMutability": "view",
            "type": "function"
        },
        {
            "constant": true,
            "inputs": [
                {
                    "name": "",
                    "type": "uint256"
                },
                {
                    "name": "",
                    "type": "address"
                }
            ],
            "name": "confirmations",
            "outputs": [
                {
                    "name": "",
                    "type": "bool"
                }
            ],
            "payable": false,
            "stateMutability": "view",
            "type": "function"
        },
        {
            "constant": true,
            "inputs": [
                {
                    "name": "owner",
                    "type": "address"
                }
            ],
            "name": "balanceOf",
            "outputs": [
                {
                    "name": "",
                    "type": "uint256"
                }
            ],
            "payable": false,
            "stateMutability": "view",
            "type": "function"
        },
        {
            "constant": true,
            "inputs": [
                {
                    "name": "",
                    "type": "uint256"
                }
            ],
            "name": "burnList",
            "outputs": [
                {
                    "name": "value",
                    "type": "uint256"
                },
                {
                    "name": "burner",
                    "type": "address"
                },
                {
                    "name": "data",
                    "type": "bytes"
                }
            ],
            "payable": false,
            "stateMutability": "view",
            "type": "function"
        },
        {
            "constant": true,
            "inputs": [],
            "name": "receivingFeeWallet",
            "outputs": [
                {
                    "name": "",
                    "type": "address"
                }
            ],
            "payable": false,
            "stateMutability": "view",
            "type": "function"
        },
        {
            "constant": true,
            "inputs": [],
            "name": "symbol",
            "outputs": [
                {
                    "name": "",
                    "type": "string"
                }
            ],
            "payable": false,
            "stateMutability": "view",
            "type": "function"
        },
        {
            "constant": true,
            "inputs": [
                {
                    "name": "",
                    "type": "uint256"
                }
            ],
            "name": "transactions",
            "outputs": [
                {
                    "name": "destination",
                    "type": "address"
                },
                {
                    "name": "value",
                    "type": "uint256"
                },
                {
                    "name": "data",
                    "type": "bytes"
                },
                {
                    "name": "executed",
                    "type": "bool"
                }
            ],
            "payable": false,
            "stateMutability": "view",
            "type": "function"
        },
        {
            "constant": true,
            "inputs": [],
            "name": "WITHDRAW_FEE",
            "outputs": [
                {
                    "name": "",
                    "type": "uint256"
                }
            ],
            "payable": false,
            "stateMutability": "view",
            "type": "function"
        },
        {
            "constant": false,
            "inputs": [
                {
                    "name": "to",
                    "type": "address"
                },
                {
                    "name": "value",
                    "type": "uint256"
                }
            ],
            "name": "transfer",
            "outputs": [
                {
                    "name": "",
                    "type": "bool"
                }
            ],
            "payable": false,
            "stateMutability": "nonpayable",
            "type": "function"
        },
        {
            "constant": true,
            "inputs": [],
            "name": "transactionCount",
            "outputs": [
                {
                    "name": "",
                    "type": "uint256"
                }
            ],
            "payable": false,
            "stateMutability": "view",
            "type": "function"
        },
        {
            "constant": true,
            "inputs": [],
            "name": "MAX_OWNER_COUNT",
            "outputs": [
                {
                    "name": "",
                    "type": "uint256"
                }
            ],
            "payable": false,
            "stateMutability": "view",
            "type": "function"
        },
        {
            "constant": true,
            "inputs": [],
            "name": "required",
            "outputs": [
                {
                    "name": "",
                    "type": "uint256"
                }
            ],
            "payable": false,
            "stateMutability": "view",
            "type": "function"
        },
        {
            "constant": true,
            "inputs": [
                {
                    "name": "owner",
                    "type": "address"
                },
                {
                    "name": "spender",
                    "type": "address"
                }
            ],
            "name": "allowance",
            "outputs": [
                {
                    "name": "",
                    "type": "uint256"
                }
            ],
            "payable": false,
            "stateMutability": "view",
            "type": "function"
        },
        {
            "constant": true,
            "inputs": [],
            "name": "DEPOSIT_FEE",
            "outputs": [
                {
                    "name": "",
                    "type": "uint256"
                }
            ],
            "payable": false,
            "stateMutability": "view",
            "type": "function"
        },
        {
            "constant": true,
            "inputs": [],
            "name": "TOMO_FEE_MODE",
            "outputs": [
                {
                    "name": "",
                    "type": "bool"
                }
            ],
            "payable": false,
            "stateMutability": "view",
            "type": "function"
        },
        {
            "inputs": [
                {
                    "name": "_owners",
                    "type": "address[]"
                },
                {
                    "name": "_required",
                    "type": "uint256"
                },
                {
                    "name": "_name",
                    "type": "string"
                },
                {
                    "name": "_symbol",
                    "type": "string"
                },
                {
                    "name": "_decimals",
                    "type": "uint8"
                },
                {
                    "name": "cap",
                    "type": "uint256"
                },
                {
                    "name": "depositAndWithdrawFee",
                    "type": "uint256[]"
                },
                {
                    "name": "originContract",
                    "type": "string"
                },
                {
                    "name": "network",
                    "type": "string"
                }
            ],
            "payable": false,
            "stateMutability": "nonpayable",
            "type": "constructor"
        },
        {
            "anonymous": false,
            "inputs": [
                {
                    "indexed": true,
                    "name": "sender",
                    "type": "address"
                },
                {
                    "indexed": true,
                    "name": "transactionId",
                    "type": "uint256"
                }
            ],
            "name": "Confirmation",
            "type": "event"
        },
        {
            "anonymous": false,
            "inputs": [
                {
                    "indexed": true,
                    "name": "sender",
                    "type": "address"
                },
                {
                    "indexed": true,
                    "name": "transactionId",
                    "type": "uint256"
                }
            ],
            "name": "Revocation",
            "type": "event"
        },
        {
            "anonymous": false,
            "inputs": [
                {
                    "indexed": true,
                    "name": "transactionId",
                    "type": "uint256"
                }
            ],
            "name": "Submission",
            "type": "event"
        },
        {
            "anonymous": false,
            "inputs": [
                {
                    "indexed": true,
                    "name": "transactionId",
                    "type": "uint256"
                }
            ],
            "name": "Execution",
            "type": "event"
        },
        {
            "anonymous": false,
            "inputs": [
                {
                    "indexed": true,
                    "name": "transactionId",
                    "type": "uint256"
                }
            ],
            "name": "ExecutionFailure",
            "type": "event"
        },
        {
            "anonymous": false,
            "inputs": [
                {
                    "indexed": true,
                    "name": "owner",
                    "type": "address"
                }
            ],
            "name": "OwnerAddition",
            "type": "event"
        },
        {
            "anonymous": false,
            "inputs": [
                {
                    "indexed": true,
                    "name": "owner",
                    "type": "address"
                }
            ],
            "name": "OwnerRemoval",
            "type": "event"
        },
        {
            "anonymous": false,
            "inputs": [
                {
                    "indexed": false,
                    "name": "required",
                    "type": "uint256"
                }
            ],
            "name": "RequirementChange",
            "type": "event"
        },
        {
            "anonymous": false,
            "inputs": [
                {
                    "indexed": true,
                    "name": "burnID",
                    "type": "uint256"
                },
                {
                    "indexed": true,
                    "name": "burner",
                    "type": "address"
                },
                {
                    "indexed": false,
                    "name": "value",
                    "type": "uint256"
                },
                {
                    "indexed": false,
                    "name": "data",
                    "type": "bytes"
                }
            ],
            "name": "TokenBurn",
            "type": "event"
        },
        {
            "anonymous": false,
            "inputs": [
                {
                    "indexed": false,
                    "name": "isFeeByTomoMode",
                    "type": "bool"
                }
            ],
            "name": "ToggleFeeByTomoMode",
            "type": "event"
        },
        {
            "anonymous": false,
            "inputs": [
                {
                    "indexed": false,
                    "name": "withdrawFeeTomo",
                    "type": "uint256"
                }
            ],
            "name": "SetWithdrawFeeTomo",
            "type": "event"
        },
        {
            "anonymous": false,
            "inputs": [
                {
                    "indexed": false,
                    "name": "receivingFeeWallet",
                    "type": "address"
                }
            ],
            "name": "SetReceivingFeeWallet",
            "type": "event"
        },
        {
            "anonymous": false,
            "inputs": [
                {
                    "indexed": true,
                    "name": "from",
                    "type": "address"
                },
                {
                    "indexed": true,
                    "name": "to",
                    "type": "address"
                },
                {
                    "indexed": false,
                    "name": "value",
                    "type": "uint256"
                }
            ],
            "name": "Transfer",
            "type": "event"
        },
        {
            "anonymous": false,
            "inputs": [
                {
                    "indexed": true,
                    "name": "owner",
                    "type": "address"
                },
                {
                    "indexed": true,
                    "name": "spender",
                    "type": "address"
                },
                {
                    "indexed": false,
                    "name": "value",
                    "type": "uint256"
                }
            ],
            "name": "Approval",
            "type": "event"
        },
        {
            "constant": false,
            "inputs": [
                {
                    "name": "depositFee",
                    "type": "uint256"
                }
            ],
            "name": "setDepositFee",
            "outputs": [],
            "payable": false,
            "stateMutability": "nonpayable",
            "type": "function"
        },
        {
            "constant": false,
            "inputs": [
                {
                    "name": "withdrawFee",
                    "type": "uint256"
                }
            ],
            "name": "setWithdrawFee",
            "outputs": [],
            "payable": false,
            "stateMutability": "nonpayable",
            "type": "function"
        },
        {
            "constant": false,
            "inputs": [
                {
                    "name": "owner",
                    "type": "address"
                }
            ],
            "name": "addOwner",
            "outputs": [],
            "payable": false,
            "stateMutability": "nonpayable",
            "type": "function"
        },
        {
            "constant": false,
            "inputs": [
                {
                    "name": "withdrawFee",
                    "type": "uint256"
                }
            ],
            "name": "setWithdrawFeeTomo",
            "outputs": [],
            "payable": false,
            "stateMutability": "nonpayable",
            "type": "function"
        },
        {
            "constant": false,
            "inputs": [
                {
                    "name": "isFeeByTomoMode",
                    "type": "bool"
                }
            ],
            "name": "toggleFeeByTomoMode",
            "outputs": [],
            "payable": false,
            "stateMutability": "nonpayable",
            "type": "function"
        },
        {
            "constant": false,
            "inputs": [
                {
                    "name": "wallet",
                    "type": "address"
                }
            ],
            "name": "setReceivingFeeWallet",
            "outputs": [],
            "payable": false,
            "stateMutability": "nonpayable",
            "type": "function"
        },
        {
            "constant": false,
            "inputs": [
                {
                    "name": "owner",
                    "type": "address"
                }
            ],
            "name": "removeOwner",
            "outputs": [],
            "payable": false,
            "stateMutability": "nonpayable",
            "type": "function"
        },
        {
            "constant": false,
            "inputs": [
                {
                    "name": "owner",
                    "type": "address"
                },
                {
                    "name": "newOwner",
                    "type": "address"
                }
            ],
            "name": "replaceOwner",
            "outputs": [],
            "payable": false,
            "stateMutability": "nonpayable",
            "type": "function"
        },
        {
            "constant": false,
            "inputs": [
                {
                    "name": "_required",
                    "type": "uint256"
                }
            ],
            "name": "changeRequirement",
            "outputs": [],
            "payable": false,
            "stateMutability": "nonpayable",
            "type": "function"
        },
        {
            "constant": false,
            "inputs": [
                {
                    "name": "destination",
                    "type": "address"
                },
                {
                    "name": "value",
                    "type": "uint256"
                },
                {
                    "name": "data",
                    "type": "bytes"
                }
            ],
            "name": "submitTransaction",
            "outputs": [
                {
                    "name": "transactionId",
                    "type": "uint256"
                }
            ],
            "payable": false,
            "stateMutability": "nonpayable",
            "type": "function"
        },
        {
            "constant": false,
            "inputs": [
                {
                    "name": "transactionId",
                    "type": "uint256"
                }
            ],
            "name": "confirmTransaction",
            "outputs": [],
            "payable": false,
            "stateMutability": "nonpayable",
            "type": "function"
        },
        {
            "constant": false,
            "inputs": [
                {
                    "name": "transactionId",
                    "type": "uint256"
                }
            ],
            "name": "revokeConfirmation",
            "outputs": [],
            "payable": false,
            "stateMutability": "nonpayable",
            "type": "function"
        },
        {
            "constant": false,
            "inputs": [
                {
                    "name": "value",
                    "type": "uint256"
                },
                {
                    "name": "data",
                    "type": "bytes"
                }
            ],
            "name": "burn",
            "outputs": [],
            "payable": true,
            "stateMutability": "payable",
            "type": "function"
        },
        {
            "constant": false,
            "inputs": [
                {
                    "name": "transactionId",
                    "type": "uint256"
                }
            ],
            "name": "executeTransaction",
            "outputs": [],
            "payable": false,
            "stateMutability": "nonpayable",
            "type": "function"
        },
        {
            "constant": true,
            "inputs": [
                {
                    "name": "transactionId",
                    "type": "uint256"
                }
            ],
            "name": "isConfirmed",
            "outputs": [
                {
                    "name": "",
                    "type": "bool"
                }
            ],
            "payable": false,
            "stateMutability": "view",
            "type": "function"
        },
        {
            "constant": true,
            "inputs": [
                {
                    "name": "transactionId",
                    "type": "uint256"
                }
            ],
            "name": "getConfirmationCount",
            "outputs": [
                {
                    "name": "count",
                    "type": "uint256"
                }
            ],
            "payable": false,
            "stateMutability": "view",
            "type": "function"
        },
        {
            "constant": true,
            "inputs": [
                {
                    "name": "pending",
                    "type": "bool"
                },
                {
                    "name": "executed",
                    "type": "bool"
                }
            ],
            "name": "getTransactionCount",
            "outputs": [
                {
                    "name": "count",
                    "type": "uint256"
                }
            ],
            "payable": false,
            "stateMutability": "view",
            "type": "function"
        },
        {
            "constant": true,
            "inputs": [],
            "name": "getOwners",
            "outputs": [
                {
                    "name": "",
                    "type": "address[]"
                }
            ],
            "payable": false,
            "stateMutability": "view",
            "type": "function"
        },
        {
            "constant": true,
            "inputs": [
                {
                    "name": "transactionId",
                    "type": "uint256"
                }
            ],
            "name": "getConfirmations",
            "outputs": [
                {
                    "name": "_confirmations",
                    "type": "address[]"
                }
            ],
            "payable": false,
            "stateMutability": "view",
            "type": "function"
        },
        {
            "constant": true,
            "inputs": [
                {
                    "name": "from",
                    "type": "uint256"
                },
                {
                    "name": "to",
                    "type": "uint256"
                },
                {
                    "name": "pending",
                    "type": "bool"
                },
                {
                    "name": "executed",
                    "type": "bool"
                }
            ],
            "name": "getTransactionIds",
            "outputs": [
                {
                    "name": "_transactionIds",
                    "type": "uint256[]"
                }
            ],
            "payable": false,
            "stateMutability": "view",
            "type": "function"
        },
        {
            "constant": true,
            "inputs": [],
            "name": "getBurnCount",
            "outputs": [
                {
                    "name": "",
                    "type": "uint256"
                }
            ],
            "payable": false,
            "stateMutability": "view",
            "type": "function"
        },
        {
            "constant": true,
            "inputs": [
                {
                    "name": "burnId",
                    "type": "uint256"
                }
            ],
            "name": "getBurn",
            "outputs": [
                {
                    "name": "_burner",
                    "type": "address"
                },
                {
                    "name": "_value",
                    "type": "uint256"
                },
                {
                    "name": "_data",
                    "type": "bytes"
                }
            ],
            "payable": false,
            "stateMutability": "view",
            "type": "function"
        }
    ],
    "bytecode": "0x608060405260006006819055600755673782dace9d9000006008556009805460ff191660011790553480156200003457600080fd5b5060405162002cca38038062002cca8339810160409081528151602080840151928401516060850151608086015160a087015160c088015160e08901516101008a0151958a018051988b019a9098958101979496939592810194918101930191600091899189918991620000af9160039190860190620003aa565b508151620000c5906004906020850190620003aa565b506005805460ff191660ff92909216919091179055505089518960328211801590620000f15750818111155b8015620000fd57508015155b80156200010957508115155b15156200011557600080fd5b600092505b8b51831015620001ed57600c60008d858151811015156200013757fe5b6020908102909101810151600160a060020a031682528101919091526040016000205460ff161580156200018d57508b838151811015156200017557fe5b90602001906020020151600160a060020a0316600014155b15156200019957600080fd5b6001600c60008e86815181101515620001ae57fe5b602090810291909101810151600160a060020a03168252810191909152604001600020805460ff1916911515919091179055600192909201916200011a565b620002023388640100000000620002d1810204565b8b516200021790600d9060208f01906200042f565b50600e8b90558551869060009081106200022d57fe5b602090810290910101516007558551869060019081106200024a57fe5b602090810290910181015160065585516200026c9160119190880190620003aa565b50835162000282906012906020870190620003aa565b50600d805460009081106200029357fe5b60009182526020909120015460138054600160a060020a031916600160a060020a0390921691909117905550620004dc9a5050505050505050505050565b600160a060020a0382161515620002e757600080fd5b600254620003049082640100000000620026e46200039082021704565b600255600160a060020a0382166000908152602081905260409020546200033a9082640100000000620026e46200039082021704565b600160a060020a0383166000818152602081815260408083209490945583518581529351929391927fddf252ad1be2c89b69c2b068fc378daa952ba7f163c4a11628f55a4df523b3ef9281900390910190a35050565b600082820183811015620003a357600080fd5b9392505050565b828054600181600116156101000203166002900490600052602060002090601f016020900481019282601f10620003ed57805160ff19168380011785556200041d565b828001600101855582156200041d579182015b828111156200041d57825182559160200191906001019062000400565b506200042b92915062000495565b5090565b82805482825590600052602060002090810192821562000487579160200282015b82811115620004875782518254600160a060020a031916600160a060020a0390911617825560209092019160019091019062000450565b506200042b929150620004b5565b620004b291905b808211156200042b57600081556001016200049c565b90565b620004b291905b808211156200042b578054600160a060020a0319168155600101620004bc565b6127de80620004ec6000396000f30060806040526004361061022f5763ffffffff7c0100000000000000000000000000000000000000000000000000000000600035041663025e7c27811461023457806306fdde0314610268578063095ea7b3146102f2578063173825d91461032a57806318160ddd1461034d57806318588fa21461037457806320ea8d86146103895780632216b45d146103a157806323b872dd146103b65780632586dfc9146103e05780632eb3f49b146103f55780632f54bf6e146104a5578063313ce567146104c65780633411c81c146104f1578063490ae21014610515578063547415251461052d5780637065cb481461054c57806370a082311461056d57806377661c641461058e578063784547a71461060057806385d2a1671461061857806389e0ff961461062d5780638b51d13f1461064757806395d89b411461065f5780639ace38c2146106745780639bff5ddb1461072f578063a0e67e2b14610744578063a857f788146107a9578063a8abe69a146107c1578063a9059cbb146107e6578063b5dc40c31461080a578063b6ac642a14610822578063b77bf6001461083a578063ba51a6df1461084f578063c01a8c8414610867578063c64274741461087f578063d74f8edd146108e8578063dc8452cd146108fd578063dd62ed3e14610912578063de363e6514610939578063e20056e61461094e578063e7cf548c14610975578063edd8af571461098a578063ee22610b146109ab578063f2f5a1c2146109c3578063fe9d9303146109d8575b600080fd5b34801561024057600080fd5b5061024c600435610a29565b60408051600160a060020a039092168252519081900360200190f35b34801561027457600080fd5b5061027d610a51565b6040805160208082528351818301528351919283929083019185019080838360005b838110156102b757818101518382015260200161029f565b50505050905090810190601f1680156102e45780820380516001836020036101000a031916815260200191505b509250505060405180910390f35b3480156102fe57600080fd5b50610316600160a060020a0360043516602435610ae8565b604080519115158252519081900360200190f35b34801561033657600080fd5b5061034b600160a060020a0360043516610b66565b005b34801561035957600080fd5b50610362610cdd565b60408051918252519081900360200190f35b34801561038057600080fd5b5061027d610ce3565b34801561039557600080fd5b5061034b600435610d71565b3480156103ad57600080fd5b5061027d610e2b565b3480156103c257600080fd5b50610316600160a060020a0360043581169060243516604435610e86565b3480156103ec57600080fd5b50610362610f24565b34801561040157600080fd5b5061040d600435610f2a565b6040518084600160a060020a0316600160a060020a0316815260200183815260200180602001828103825283818151815260200191508051906020019080838360005b83811015610468578181015183820152602001610450565b50505050905090810190601f1680156104955780820380516001836020036101000a031916815260200191505b5094505050505060405180910390f35b3480156104b157600080fd5b50610316600160a060020a0360043516611037565b3480156104d257600080fd5b506104db61104c565b6040805160ff9092168252519081900360200190f35b3480156104fd57600080fd5b50610316600435600160a060020a0360243516611055565b34801561052157600080fd5b5061034b600435611075565b34801561053957600080fd5b5061036260043515156024351515611086565b34801561055857600080fd5b5061034b600160a060020a03600435166110f2565b34801561057957600080fd5b50610362600160a060020a0360043516611217565b34801561059a57600080fd5b506105a6600435611232565b6040518084815260200183600160a060020a0316600160a060020a03168152602001806020018281038252838181518152602001915080519060200190808383600083811015610468578181015183820152602001610450565b34801561060c57600080fd5b506103166004356112fb565b34801561062457600080fd5b5061024c61137f565b34801561063957600080fd5b5061034b600435151561138e565b34801561065357600080fd5b506103626004356113e6565b34801561066b57600080fd5b5061027d611455565b34801561068057600080fd5b5061068c6004356114b6565b6040518085600160a060020a0316600160a060020a031681526020018481526020018060200183151515158152602001828103825284818151815260200191508051906020019080838360005b838110156106f15781810151838201526020016106d9565b50505050905090810190601f16801561071e5780820380516001836020036101000a031916815260200191505b509550505050505060405180910390f35b34801561073b57600080fd5b50610362611575565b34801561075057600080fd5b5061075961157b565b60408051602080825283518183015283519192839290830191858101910280838360005b8381101561079557818101518382015260200161077d565b505050509050019250505060405180910390f35b3480156107b557600080fd5b5061034b6004356115dc565b3480156107cd57600080fd5b5061075960043560243560443515156064351515611631565b3480156107f257600080fd5b50610316600160a060020a036004351660243561177d565b34801561081657600080fd5b50610759600435611793565b34801561082e57600080fd5b5061034b60043561190c565b34801561084657600080fd5b5061036261191d565b34801561085b57600080fd5b5061034b600435611923565b34801561087357600080fd5b5061034b6004356119a2565b34801561088b57600080fd5b50604080516020600460443581810135601f8101849004840285018401909552848452610362948235600160a060020a0316946024803595369594606494920191908190840183828082843750949750611a6b9650505050505050565b3480156108f457600080fd5b50610362611a83565b34801561090957600080fd5b50610362611a88565b34801561091e57600080fd5b50610362600160a060020a0360043581169060243516611a8e565b34801561094557600080fd5b50610362611ab9565b34801561095a57600080fd5b5061034b600160a060020a0360043581169060243516611abf565b34801561098157600080fd5b50610362611c49565b34801561099657600080fd5b5061034b600160a060020a0360043516611c4f565b3480156109b757600080fd5b5061034b600435611cc2565b3480156109cf57600080fd5b50610316611f23565b60408051602060046024803582810135601f810185900485028601850190965285855261034b958335953695604494919390910191908190840183828082843750949750611f2c9650505050505050565b600d805482908110610a3757fe5b600091825260209091200154600160a060020a0316905081565b60038054604080516020601f6002600019610100600188161502019095169490940493840181900481028201810190925282815260609390929091830182828015610add5780601f10610ab257610100808354040283529160200191610add565b820191906000526020600020905b815481529060010190602001808311610ac057829003601f168201915b505050505090505b90565b6000600160a060020a0383161515610aff57600080fd5b336000818152600160209081526040808320600160a060020a03881680855290835292819020869055805186815290519293927f8c5be1e5ebec7d5bd14f71427d1e84f3dd0314c0f7b2291e5b200ac8c7c3b925929181900390910190a350600192915050565b6000333014610b7457600080fd5b600160a060020a0382166000908152600c6020526040902054829060ff161515610b9d57600080fd5b600160a060020a0383166000908152600c60205260408120805460ff1916905591505b600d5460001901821015610c785782600160a060020a0316600d83815481101515610be757fe5b600091825260209091200154600160a060020a03161415610c6d57600d80546000198101908110610c1457fe5b600091825260209091200154600d8054600160a060020a039092169184908110610c3a57fe5b9060005260206000200160006101000a815481600160a060020a030219169083600160a060020a03160217905550610c78565b600190910190610bc0565b600d80546000190190610c8b90826126f6565b50600d54600e541115610ca457600d54610ca490611923565b604051600160a060020a038416907f8001553a916ef2f495d26a907cc54d96ed840d7bda71e73194bf5a9df7a76b9090600090a2505050565b60025490565b6011805460408051602060026001851615610100026000190190941693909304601f81018490048402820184019092528181529291830182828015610d695780601f10610d3e57610100808354040283529160200191610d69565b820191906000526020600020905b815481529060010190602001808311610d4c57829003601f168201915b505050505081565b336000818152600c602052604090205460ff161515610d8f57600080fd5b6000828152600b602090815260408083203380855292529091205483919060ff161515610dbb57600080fd5b6000848152600a6020526040902060030154849060ff1615610ddc57600080fd5b6000858152600b60209081526040808320338085529252808320805460ff191690555187927ff6a317157440607f36269043eb55f1287a5a19ba2216afeab88cd46cbcfb88e991a35050505050565b6012805460408051602060026001851615610100026000190190941693909304601f81018490048402820184019092528181529291830182828015610d695780601f10610d3e57610100808354040283529160200191610d69565b600160a060020a0383166000908152600160209081526040808320338452909152812054821115610eb657600080fd5b600160a060020a0384166000908152600160209081526040808320338452909152902054610eea908363ffffffff61237216565b600160a060020a0385166000908152600160209081526040808320338452909152902055610f19848484612389565b5060015b9392505050565b60085481565b6000806060601084815481101515610f3e57fe5b600091825260209091206001600390920201015460108054600160a060020a0390921694509085908110610f6e57fe5b9060005260206000209060030201600001549150601084815481101515610f9157fe5b600091825260209182902060026003909202018101805460408051601f6000196101006001861615020190931694909404918201859004850284018501905280835291929091908301828280156110295780601f10610ffe57610100808354040283529160200191611029565b820191906000526020600020905b81548152906001019060200180831161100c57829003601f168201915b505050505090509193909250565b600c6020526000908152604090205460ff1681565b60055460ff1690565b600b60209081526000928352604080842090915290825290205460ff1681565b33301461108157600080fd5b600755565b6000805b600f548110156110eb578380156110b357506000818152600a602052604090206003015460ff16155b806110d757508280156110d757506000818152600a602052604090206003015460ff165b156110e3576001820191505b60010161108a565b5092915050565b3330146110fe57600080fd5b600160a060020a0381166000908152600c6020526040902054819060ff161561112657600080fd5b81600160a060020a038116151561113c57600080fd5b600d80549050600101600e54603282111580156111595750818111155b801561116457508015155b801561116f57508115155b151561117a57600080fd5b600160a060020a0385166000818152600c6020526040808220805460ff19166001908117909155600d8054918201815583527fd7b6990105719101dabeb77144f2a3385c8033acd3af97e9423a695e81ad1eb501805473ffffffffffffffffffffffffffffffffffffffff191684179055517ff39e6e1eb0edcf53c221607b54b00cd28f3196fed0a24994dc308b8f611b682d9190a25050505050565b600160a060020a031660009081526020819052604090205490565b601080548290811061124057fe5b6000918252602091829020600391909102018054600180830154600280850180546040805161010096831615969096026000190190911692909204601f8101889004880285018801909252818452939650600160a060020a03909116949192918301828280156112f15780601f106112c6576101008083540402835291602001916112f1565b820191906000526020600020905b8154815290600101906020018083116112d457829003601f168201915b5050505050905083565b600080805b600d54811015611378576000848152600b60205260408120600d80549192918490811061132957fe5b6000918252602080832090910154600160a060020a0316835282019290925260400190205460ff161561135d576001820191505b600e548214156113705760019250611378565b600101611300565b5050919050565b601354600160a060020a031681565b33301461139a57600080fd5b6009805460ff191682151517908190556040805160ff90921615158252517f8894d7cd7e5969f55239100db5faaf1904f57efbb798262c6243b2e7cb34197c916020908290030190a150565b6000805b600d5481101561144f576000838152600b60205260408120600d80549192918490811061141357fe5b6000918252602080832090910154600160a060020a0316835282019290925260400190205460ff1615611447576001820191505b6001016113ea565b50919050565b60048054604080516020601f6002600019610100600188161502019095169490940493840181900481028201810190925282815260609390929091830182828015610add5780601f10610ab257610100808354040283529160200191610add565b600a6020908152600091825260409182902080546001808301546002808501805488516101009582161595909502600019011691909104601f8101879004870284018701909752868352600160a060020a039093169590949192918301828280156115625780601f1061153757610100808354040283529160200191611562565b820191906000526020600020905b81548152906001019060200180831161154557829003601f168201915b5050506003909301549192505060ff1684565b60065481565b6060600d805480602002602001604051908101604052809291908181526020018280548015610add57602002820191906000526020600020905b8154600160a060020a031681526001909101906020018083116115b5575050505050905090565b3330146115e857600080fd5b60008110156115f657600080fd5b60088190556040805182815290517ffd36fea8acb128b40b95eef547cea0ec1c9c3241ebf19fbfe9a47594a1bb68c79181900360200190a150565b606060006060600080600f548811611649578761164d565b600f545b935088840360405190808252806020026020018201604052801561167b578160200160208202803883390190505b509250600091508890505b878110156116ff578680156116ad57506000818152600a602052604090206003015460ff16155b806116d157508580156116d157506000818152600a602052604090206003015460ff165b156116f7578083838151811015156116e557fe5b60209081029091010152600191909101905b600101611686565b81604051908082528060200260200182016040528015611729578160200160208202803883390190505b509450600090505b8181101561177157828181518110151561174757fe5b90602001906020020151858281518110151561175f57fe5b60209081029091010152600101611731565b50505050949350505050565b600061178a338484612389565b50600192915050565b606080600080600d805490506040519080825280602002602001820160405280156117c8578160200160208202803883390190505b50925060009150600090505b600d54811015611885576000858152600b60205260408120600d8054919291849081106117fd57fe5b6000918252602080832090910154600160a060020a0316835282019290925260400190205460ff161561187d57600d80548290811061183857fe5b6000918252602090912001548351600160a060020a039091169084908490811061185e57fe5b600160a060020a03909216602092830290910190910152600191909101905b6001016117d4565b816040519080825280602002602001820160405280156118af578160200160208202803883390190505b509350600090505b818110156119045782818151811015156118cd57fe5b9060200190602002015184828151811015156118e557fe5b600160a060020a039092166020928302909101909101526001016118b7565b505050919050565b33301461191857600080fd5b600655565b600f5481565b33301461192f57600080fd5b600d5481603282118015906119445750818111155b801561194f57508015155b801561195a57508115155b151561196557600080fd5b600e8390556040805184815290517fa3f1ee9126a074d9326c682f561767f710e927faa811f7a99829d49dc421797a9181900360200190a1505050565b336000818152600c602052604090205460ff1615156119c057600080fd5b6000828152600a60205260409020548290600160a060020a031615156119e557600080fd5b6000838152600b602090815260408083203380855292529091205484919060ff1615611a1057600080fd5b6000858152600b60209081526040808320338085529252808320805460ff191660011790555187927f4a504a94899432a9846e1aa406dceb1bcfd538bb839071d49d1e5e23f5be30ef91a3611a6485611cc2565b5050505050565b6000611a7884848461247b565b9050610f1d816119a2565b603281565b600e5481565b600160a060020a03918216600090815260016020908152604080832093909416825291909152205490565b60075481565b6000333014611acd57600080fd5b600160a060020a0383166000908152600c6020526040902054839060ff161515611af657600080fd5b600160a060020a0383166000908152600c6020526040902054839060ff1615611b1e57600080fd5b600092505b600d54831015611baf5784600160a060020a0316600d84815481101515611b4657fe5b600091825260209091200154600160a060020a03161415611ba45783600d84815481101515611b7157fe5b9060005260206000200160006101000a815481600160a060020a030219169083600160a060020a03160217905550611baf565b600190920191611b23565b600160a060020a038086166000818152600c6020526040808220805460ff1990811690915593881682528082208054909416600117909355915190917f8001553a916ef2f495d26a907cc54d96ed840d7bda71e73194bf5a9df7a76b9091a2604051600160a060020a038516907ff39e6e1eb0edcf53c221607b54b00cd28f3196fed0a24994dc308b8f611b682d90600090a25050505050565b60105490565b333014611c5b57600080fd5b6013805473ffffffffffffffffffffffffffffffffffffffff1916600160a060020a03838116919091179182905560408051929091168252517ff70d633187069febddfe0e47e5decb5152d91217784722061bdd8a09bbf3dc4e916020908290030190a150565b336000818152600c602052604081205490919060ff161515611ce357600080fd5b6000838152600b602090815260408083203380855292529091205484919060ff161515611d0f57600080fd5b6000858152600a6020526040902060030154859060ff1615611d3057600080fd5b611d39866112fb565b15611f1b576000868152600a6020526040902060038101805460ff19166001908117909155600280830154929750600019918316156101000291909101909116041515611e09576007546001860154611d979163ffffffff61237216565b600186018190558554611db591600160a060020a039091169061256c565b60006007541115611dd957601354600754611dd991600160a060020a03169061256c565b60405186907f33e13ecb54c3076d8e8bb8c2881800a4d972b792045ffae98fdf46df365fed7590600090a2611f1b565b8460000160009054906101000a9004600160a060020a0316600160a060020a03168560010154866002016040518082805460018160011615610100020316600290048015611e985780601f10611e6d57610100808354040283529160200191611e98565b820191906000526020600020905b815481529060010190602001808311611e7b57829003601f168201915b505091505060006040518083038185875af19250505015611ee35760405186907f33e13ecb54c3076d8e8bb8c2881800a4d972b792045ffae98fdf46df365fed7590600090a2611f1b565b60405186907f526441bb6c1aba3c9a4a6ca1d6545da9c2333c8c48343ef398eb858d72b7923690600090a260038501805460ff191690555b505050505050565b60095460ff1681565b60095460009060ff161561217a57600854341015611f4957600080fd5b601354600854604051600160a060020a039092169181156108fc0291906000818181858888f19350505050158015611f85573d6000803e3d6000fd5b50600854341115611fd45760085433906108fc90611faa90349063ffffffff61237216565b6040518115909202916000818181858888f19350505050158015611fd2573d6000803e3d6000fd5b505b611fde3384612616565b60408051606081018252848152336020808301918252928201858152601080546001810180835560009290925284517f1b6847dc741a1b0cd08d278845f9d819d87b734759afb55fe2de5cb82a9ae672600390920291820190815593517f1b6847dc741a1b0cd08d278845f9d819d87b734759afb55fe2de5cb82a9ae6738201805473ffffffffffffffffffffffffffffffffffffffff1916600160a060020a039092169190911790559151805191956120bd937f1b6847dc741a1b0cd08d278845f9d819d87b734759afb55fe2de5cb82a9ae674019291019061271a565b5050505033600160a060020a03166001601080549050037f6905852b196f81e7e03058512a599446c358027fc943c1e193b6649a39379bb585856040518083815260200180602001828103825283818151815260200191508051906020019080838360005b8381101561213a578181015183820152602001612122565b50505050905090810190601f1680156121675780820380516001836020036101000a031916815260200191505b50935050505060405180910390a361236d565b600654831161218857600080fd5b6121923384612616565b600060065411156121b6576013546006546121b691600160a060020a03169061256c565b6006546121ca90849063ffffffff61237216565b604080516060810182528281523360208083019182529282018681526010805460018101808355600092909252845160039091027f1b6847dc741a1b0cd08d278845f9d819d87b734759afb55fe2de5cb82a9ae672810191825593517f1b6847dc741a1b0cd08d278845f9d819d87b734759afb55fe2de5cb82a9ae67385018054600160a060020a039290921673ffffffffffffffffffffffffffffffffffffffff19909216919091179055915180519697509095939491936122b4937f1b6847dc741a1b0cd08d278845f9d819d87b734759afb55fe2de5cb82a9ae6740192919091019061271a565b5050505033600160a060020a03166001601080549050037f6905852b196f81e7e03058512a599446c358027fc943c1e193b6649a39379bb583856040518083815260200180602001828103825283818151815260200191508051906020019080838360005b83811015612331578181015183820152602001612319565b50505050905090810190601f16801561235e5780820380516001836020036101000a031916815260200191505b50935050505060405180910390a35b505050565b6000808383111561238257600080fd5b5050900390565b600160a060020a0383166000908152602081905260409020548111156123ae57600080fd5b600160a060020a03821615156123c357600080fd5b600160a060020a0383166000908152602081905260409020546123ec908263ffffffff61237216565b600160a060020a038085166000908152602081905260408082209390935590841681522054612421908263ffffffff6126e416565b600160a060020a038084166000818152602081815260409182902094909455805185815290519193928716927fddf252ad1be2c89b69c2b068fc378daa952ba7f163c4a11628f55a4df523b3ef92918290030190a3505050565b600083600160a060020a038116151561249357600080fd5b600f5460408051608081018252600160a060020a0388811682526020808301898152838501898152600060608601819052878152600a8452959095208451815473ffffffffffffffffffffffffffffffffffffffff19169416939093178355516001830155925180519496509193909261251492600285019291019061271a565b50606091909101516003909101805460ff1916911515919091179055600f8054600101905560405182907fc0ba8fe4b176c1714197d43b9cc6bcf797a4a7461c5fe8d0ef6e184ae7601e5190600090a2509392505050565b600160a060020a038216151561258157600080fd5b600254612594908263ffffffff6126e416565b600255600160a060020a0382166000908152602081905260409020546125c0908263ffffffff6126e416565b600160a060020a0383166000818152602081815260408083209490945583518581529351929391927fddf252ad1be2c89b69c2b068fc378daa952ba7f163c4a11628f55a4df523b3ef9281900390910190a35050565b600160a060020a038216151561262b57600080fd5b600160a060020a03821660009081526020819052604090205481111561265057600080fd5b600254612663908263ffffffff61237216565b600255600160a060020a03821660009081526020819052604090205461268f908263ffffffff61237216565b600160a060020a038316600081815260208181526040808320949094558351858152935191937fddf252ad1be2c89b69c2b068fc378daa952ba7f163c4a11628f55a4df523b3ef929081900390910190a35050565b600082820183811015610f1d57600080fd5b81548183558181111561236d5760008381526020902061236d918101908301612798565b828054600181600116156101000203166002900490600052602060002090601f016020900481019282601f1061275b57805160ff1916838001178555612788565b82800160010185558215612788579182015b8281111561278857825182559160200191906001019061276d565b50612794929150612798565b5090565b610ae591905b80821115612794576000815560010161279e5600a165627a7a72305820febe81acf64cc1e0ed111bbc8f9d0973846e5df3a337499ac8122909b4ef9d430029",
    "source": "pragma solidity ^0.4.24;\n\nlibrary SafeMath {\n\n    /**\n     * @dev Multiplies two numbers, reverts on overflow.\n     */\n    function mul(uint256 a, uint256 b) internal pure returns (uint256) {\n        // Gas optimization: this is cheaper than requiring 'a' not being zero, but the\n        // benefit is lost if 'b' is also tested.\n        // See: https://github.com/OpenZeppelin/openzeppelin-solidity/pull/522\n        if (a == 0) {\n            return 0;\n        }\n\n        uint256 c = a * b;\n        require(c / a == b);\n\n        return c;\n    }\n\n    /**\n     * @dev Integer division of two numbers truncating the quotient, reverts on division by zero.\n     */\n    function div(uint256 a, uint256 b) internal pure returns (uint256) {\n        require(b > 0); // Solidity only automatically asserts when dividing by 0\n        uint256 c = a / b;\n        // assert(a == b * c + a % b); // There is no case in which this doesn't hold\n\n        return c;\n    }\n\n    /**\n     * @dev Subtracts two numbers, reverts on overflow (i.e. if subtrahend is greater than minuend).\n     */\n    function sub(uint256 a, uint256 b) internal pure returns (uint256) {\n        require(b <= a);\n        uint256 c = a - b;\n\n        return c;\n    }\n\n    /**\n     * @dev Adds two numbers, reverts on overflow.\n     */\n    function add(uint256 a, uint256 b) internal pure returns (uint256) {\n        uint256 c = a + b;\n        require(c >= a);\n\n        return c;\n    }\n\n    /**\n     * @dev Divides two numbers and returns the remainder (unsigned integer modulo),\n     * reverts when dividing by zero.\n     */\n    function mod(uint256 a, uint256 b) internal pure returns (uint256) {\n        require(b != 0);\n        return a % b;\n    }\n}\n\n/**\n * @title 0 interface\n */\ninterface ITRC20 {\n    function totalSupply() external view returns (uint256);\n\n    function balanceOf(address who) external view returns (uint256);\n\n    function decimals() external view returns (uint8);\n\n    function allowance(address owner, address spender) external view returns (uint256);\n\n    function transfer(address to, uint256 value) external returns (bool);\n\n    function approve(address spender, uint256 value) external returns (bool);\n\n    function transferFrom(address from, address to, uint256 value) external returns (bool);\n\n    event Transfer(address indexed from, address indexed to, uint256 value);\n\n    event Approval(address indexed owner, address indexed spender, uint256 value);\n}\n\n/**\n * @title Standard TRC20 token\n * @dev Implementation of the basic standard token.\n */\ncontract TRC20 is ITRC20 {\n    using SafeMath for uint256;\n\n    mapping (address => uint256) private _balances;\n    mapping (address => mapping (address => uint256)) private _allowed;\n    uint256 private _totalSupply;\n\n    string private _name;\n    string private _symbol;\n    uint8 private _decimals;\n\n    constructor (string memory name, string memory symbol, uint8 decimals) public {\n        _name = name;\n        _symbol = symbol;\n        _decimals = decimals;\n    }\n\n    function name() public view returns (string) {\n        return _name;\n    }\n\n    function symbol() public view returns (string) {\n        return _symbol;\n    }\n\n    function decimals() public view returns (uint8) {\n        return _decimals;\n    }\n\n    /**\n     * @dev Total number of tokens in existence\n     */\n    function totalSupply() public view returns (uint256) {\n        return _totalSupply;\n    }\n\n    /**\n     * @dev Gets the balance of the specified address.\n     * @param owner The address to query the balance of.\n     * @return An uint256 representing the amount owned by the passed address.\n     */\n    function balanceOf(address owner) public view returns (uint256) {\n        return _balances[owner];\n    }\n\n    /**\n     * @dev Function to check the amount of tokens that an owner allowed to a spender.\n     * @param owner address The address which owns the funds.\n     * @param spender address The address which will spend the funds.\n     * @return A uint256 specifying the amount of tokens still available for the spender.\n     */\n    function allowance(address owner,address spender) public view returns (uint256){\n        return _allowed[owner][spender];\n    }\n\n    /**\n     * @dev Transfer token for a specified address\n     * @param to The address to transfer to.\n     * @param value The amount to be transferred.\n     */\n    function transfer(address to, uint256 value) public returns (bool) {\n        _transfer(msg.sender, to, value);\n        return true;\n    }\n\n\n    /**\n     * @dev Approve the passed address to spend the specified amount of tokens on behalf of msg.sender.\n     * Beware that changing an allowance with this method brings the risk that someone may use both the old\n     * and the new allowance by unfortunate transaction ordering. One possible solution to mitigate this\n     * race condition is to first reduce the spender's allowance to 0 and set the desired value afterwards:\n     * https://github.com/ethereum/EIPs/issues/20#issuecomment-263524729\n     * @param spender The address which will spend the funds.\n     * @param value The amount of tokens to be spent.\n     */\n    function approve(address spender, uint256 value) public returns (bool) {\n        require(spender != address(0));\n\n        _allowed[msg.sender][spender] = value;\n        emit Approval(msg.sender, spender, value);\n        return true;\n    }\n\n    /**\n     * @dev Transfer tokens from one address to another\n     * @param from address The address which you want to send tokens from\n     * @param to address The address which you want to transfer to\n     * @param value uint256 the amount of tokens to be transferred\n     */\n    function transferFrom(address from,\taddress to,\tuint256 value)\tpublic returns (bool) {\n        require(value <= _allowed[from][msg.sender]);\n\n        _allowed[from][msg.sender] = _allowed[from][msg.sender].sub(value);\n        _transfer(from, to, value);\n        return true;\n    }\n\n    /**\n     * @dev Transfer token for a specified addresses\n     * @param from The address to transfer from.\n     * @param to The address to transfer to.\n     * @param value The amount to be transferred.\n     */\n    function _transfer(address from, address to, uint256 value) internal {\n        require(value <= _balances[from]);\n        require(to != address(0));  \n        _balances[from] = _balances[from].sub(value);\n        _balances[to] = _balances[to].add(value);\n        emit Transfer(from, to, value); \n    }\n\n    /**\n     * @dev Internal function that mints an amount of the token and assigns it to\n     * an account. This encapsulates the modification of balances such that the\n     * proper events are emitted.\n     * @param account The account that will receive the created tokens.\n     * @param value The amount that will be created.\n     */\n    function _mint(address account, uint256 value) internal {\n        require(account != 0);\n        _totalSupply = _totalSupply.add(value);\n        _balances[account] = _balances[account].add(value);\n        emit Transfer(address(0), account, value);\n    }\n\n    /**\n     * @dev Internal function that burns an amount of the token of a given\n     * account.\n     * @param account The account whose tokens will be burnt.\n     * @param value The amount that will be burnt.\n     */\n    function _burn(address account, uint256 value) internal {\n        require(account != 0);\n        require(value <= _balances[account]);\n\n        _totalSupply = _totalSupply.sub(value);\n        _balances[account] = _balances[account].sub(value);\n        emit Transfer(account, address(0), value);\n    }\n}\n\n//Wrap token based on multisig wallet that only mints new token if there are user deposits \ncontract TomoBridgeWrapToken is TRC20 {\n    /*\n     *  Events\n     */\n    // event TxBurn(uint indexed transactionId);\n    event Confirmation(address indexed sender, uint indexed transactionId);\n    event Revocation(address indexed sender, uint indexed transactionId);\n    event Submission(uint indexed transactionId);\n    event Execution(uint indexed transactionId);\n    event ExecutionFailure(uint indexed transactionId);\n    event OwnerAddition(address indexed owner);\n    event OwnerRemoval(address indexed owner);\n    event RequirementChange(uint required);\n    event TokenBurn(uint256 indexed burnID, address indexed burner, uint256 value, bytes data);\n    event ToggleFeeByTomoMode(bool isFeeByTomoMode);\n    event SetWithdrawFeeTomo(uint withdrawFeeTomo);\n    event SetReceivingFeeWallet(address receivingFeeWallet);\n\n    /*\n     *  Constants\n     */\n    uint constant public MAX_OWNER_COUNT = 50;\n    uint public WITHDRAW_FEE = 0;\n    uint public DEPOSIT_FEE = 0;\n    uint public WITHDRAW_FEE_TOMO = 4 ether; // 4 TOMO\n    bool public TOMO_FEE_MODE = true;\n    \n    /*\n     *  Storage\n     */\n    mapping (uint => Transaction) public transactions;\n    mapping (uint => mapping (address => bool)) public confirmations;\n    mapping (address => bool) public isOwner;\n    address[] public owners;\n    uint public required;\n    uint public transactionCount;\n    TokenBurnData[] public burnList;\n    string public original_contract;\n    string public original_network;\n    address public receivingFeeWallet;\n\n    struct TokenBurnData {\n        uint256 value;\n        address burner;\n        bytes data;\n    }\n    \n    struct Transaction {\n        address destination;\n        uint value;\n        bytes data; //data is used in transactions altering owner list\n        bool executed;\n    }\n\n    /*\n     *  Modifiers\n     */\n    modifier onlyWallet() {\n        require(msg.sender == address(this));\n        _;\n    }\n\n    modifier ownerDoesNotExist(address owner) {\n        require(!isOwner[owner]);\n        _;\n    }\n\n    modifier ownerExists(address owner) {\n        require(isOwner[owner]);\n        _;\n    }\n\n    modifier transactionExists(uint transactionId) {\n        require(transactions[transactionId].destination != 0);\n        _;\n    }\n\n    modifier confirmed(uint transactionId, address owner) {\n        require(confirmations[transactionId][owner]);\n        _;\n    }\n\n    modifier notConfirmed(uint transactionId, address owner) {\n        require(!confirmations[transactionId][owner]);\n        _;\n    }\n\n    modifier notExecuted(uint transactionId) {\n        require(!transactions[transactionId].executed);\n        _;\n    }\n\n    modifier notNull(address _address) {\n        require(_address != 0);\n        _;\n    }\n\n    modifier validRequirement(uint ownerCount, uint _required) {\n        require(ownerCount <= MAX_OWNER_COUNT\n        && _required <= ownerCount\n        && _required != 0\n        && ownerCount != 0);\n        _;\n    }\n\n    /*\n     * Public functions\n     */\n    /// @dev Contract constructor sets initial owners and required number of confirmations.\n    /// @param _owners List of initial owners.\n    /// @param _required Number of required confirmations.\n    constructor (address[] _owners,\n                 uint _required, string memory _name,\n                 string memory _symbol, uint8 _decimals,\n                 uint256 cap,\n                 uint256[] depositAndWithdrawFee, string memory originContract, string memory network\n                ) TRC20(_name, _symbol, _decimals) public validRequirement(_owners.length, _required) {\n\n        for (uint i=0; i<_owners.length; i++) {\n            require(!isOwner[_owners[i]] && _owners[i] != 0);\n            isOwner[_owners[i]] = true;\n        }\n        {\n            _mint(msg.sender, cap);\n            owners = _owners;\n            required = _required;\n            DEPOSIT_FEE = depositAndWithdrawFee[0];\n            WITHDRAW_FEE = depositAndWithdrawFee[1];\n            original_contract = originContract;\n            original_network = network;\n            receivingFeeWallet = owners[0];\n        }\n    }\n\n    function setDepositFee(uint256 depositFee)\n    public\n    onlyWallet\n    {\n        DEPOSIT_FEE = depositFee;\n    }\n\n    function setWithdrawFee(uint256 withdrawFee)\n    public\n    onlyWallet\n    {\n        WITHDRAW_FEE = withdrawFee;\n    }\n\n    /// @dev Allows to add a new owner. Transaction has to be sent by wallet.\n    /// @param owner Address of new owner.\n    function addOwner(address owner) \n    public\n    onlyWallet\n    ownerDoesNotExist(owner)\n    notNull(owner)\n    validRequirement(owners.length + 1, required)\n    {\n        isOwner[owner] = true;\n        owners.push(owner);\n        emit OwnerAddition(owner);\n    }\n\n    /// @dev Allows to change withdraw fee by tomo\n    /// @param withdrawFee Number of required confirmations.\n    function setWithdrawFeeTomo(uint withdrawFee)\n    public\n    onlyWallet\n    {\n        require(withdrawFee >= 0);\n        WITHDRAW_FEE_TOMO = withdrawFee;\n        emit SetWithdrawFeeTomo(withdrawFee);\n    }\n\n    /// @dev Allows to change withdraw fee mode. Transaction has to be sent by wallet.\n    /// @param isFeeByTomoMode Fee mode.\n    function toggleFeeByTomoMode(bool isFeeByTomoMode)\n    public\n    onlyWallet\n    {\n        TOMO_FEE_MODE = isFeeByTomoMode;\n        emit ToggleFeeByTomoMode(TOMO_FEE_MODE);\n    }\n\n    /// @dev Allows to set receiving fee address. Transaction has to be sent by wallet.\n    /// @param wallet Receiving fee address.\n    function setReceivingFeeWallet(address wallet)\n    public\n    onlyWallet\n    {\n        receivingFeeWallet = wallet;\n        emit SetReceivingFeeWallet(receivingFeeWallet);\n    }\n\n    /// @dev Allows to remove an owner. Transaction has to be sent by wallet.\n    /// @param owner Address of owner.\n    function removeOwner(address owner)\n    public\n    onlyWallet\n    ownerExists(owner)\n    {\n        isOwner[owner] = false;\n        for (uint i=0; i<owners.length - 1; i++)\n            if (owners[i] == owner) {\n                owners[i] = owners[owners.length - 1];\n                break;\n            }\n        owners.length -= 1;\n        if (required > owners.length)\n            changeRequirement(owners.length);\n        emit OwnerRemoval(owner);\n    }\n\n    /// @dev Allows to replace an owner with a new owner. Transaction has to be sent by wallet.\n    /// @param owner Address of owner to be replaced.\n    /// @param newOwner Address of new owner.\n    function replaceOwner(address owner, address newOwner)\n    public\n    onlyWallet\n    ownerExists(owner)\n    ownerDoesNotExist(newOwner)\n    {\n        for (uint i=0; i<owners.length; i++)\n            if (owners[i] == owner) {\n                owners[i] = newOwner;\n                break;\n            }\n        isOwner[owner] = false;\n        isOwner[newOwner] = true;\n        emit OwnerRemoval(owner);\n        emit OwnerAddition(newOwner);\n    }\n\n    /// @dev Allows to change the number of required confirmations. Transaction has to be sent by wallet.\n    /// @param _required Number of required confirmations.\n    function changeRequirement(uint _required)\n    public\n    onlyWallet\n    validRequirement(owners.length, _required)\n    {\n        required = _required;\n        emit RequirementChange(_required);\n    }\n\n    /// @dev Allows an owner to submit and confirm a transaction.\n    /// @param destination Transaction target address.\n    /// @param value Transaction ether value.\n    /// @param data Transaction data payload.\n    /// @return Returns transaction ID.\n    function submitTransaction(address destination, uint value, bytes data) \n    public\n    returns (uint transactionId)\n    {\n        //transaction is considered as minting if no data provided, otherwise it's owner changing transaction\n        transactionId = addTransaction(destination, value, data);\n        confirmTransaction(transactionId);\n    }\n    \n\n    /// @dev Allows an owner to confirm a transaction.\n    /// @param transactionId Transaction ID.\n    function confirmTransaction(uint transactionId)\n    public\n    ownerExists(msg.sender)\n    transactionExists(transactionId)\n    notConfirmed(transactionId, msg.sender)\n    {\n        confirmations[transactionId][msg.sender] = true;\n        emit Confirmation(msg.sender, transactionId);\n        executeTransaction(transactionId);\n    }\n\n    /// @dev Allows an owner to revoke a confirmation for a transaction.\n    /// @param transactionId Transaction ID.\n    function revokeConfirmation(uint transactionId)\n    public\n    ownerExists(msg.sender)\n    confirmed(transactionId, msg.sender)\n    notExecuted(transactionId)\n    {\n        confirmations[transactionId][msg.sender] = false;\n        emit Revocation(msg.sender, transactionId);\n    }\n\n    /// @dev Allows an user to burn the token.\n    function burn(uint value, bytes data)\n    payable\n    public\n    {\n        if (TOMO_FEE_MODE) {\n            require(msg.value >= WITHDRAW_FEE_TOMO);  //avoid spamming\n            receivingFeeWallet.transfer(WITHDRAW_FEE_TOMO);\n\n            if(msg.value > WITHDRAW_FEE_TOMO) {\n                msg.sender.transfer(msg.value.sub(WITHDRAW_FEE_TOMO));\n            }\n\n            super._burn(msg.sender, value);\n            burnList.push(TokenBurnData({\n                value: value,\n                burner: msg.sender,\n                data: data \n            }));\n            emit TokenBurn(burnList.length - 1, msg.sender, value, data);\n        } else {\n            require(value > WITHDRAW_FEE);  //avoid spamming\n            super._burn(msg.sender, value);\n            if (WITHDRAW_FEE > 0) {\n                super._mint(receivingFeeWallet, WITHDRAW_FEE);\n            }\n            uint256 burnValue = value.sub(WITHDRAW_FEE);\n            burnList.push(TokenBurnData({\n                value: burnValue,\n                burner: msg.sender,\n                data: data \n            }));\n            emit TokenBurn(burnList.length - 1, msg.sender, burnValue, data);\n        }\n    }\n\n    /// @dev Allows anyone to execute a confirmed transaction.\n    /// @param transactionId Transaction ID.\n    function executeTransaction(uint transactionId)\n    public\n    ownerExists(msg.sender)\n    confirmed(transactionId, msg.sender)\n    notExecuted(transactionId)\n    {\n        if (isConfirmed(transactionId)) {\n            Transaction storage txn = transactions[transactionId];\n            txn.executed = true;\n\n            // just need multisig for minting - freely burn\n            if (txn.data.length == 0) {\n                //execute minting transaction\n                txn.value = txn.value.sub(DEPOSIT_FEE);\n                super._mint(txn.destination, txn.value);\n                if (DEPOSIT_FEE > 0) {\n                    super._mint(receivingFeeWallet, DEPOSIT_FEE);\n                }\n                emit Execution(transactionId);\n            } else {\n                //transaction that alters the owners list\n                if (txn.destination.call.value(txn.value)(txn.data))\n                    emit Execution(transactionId);\n                else {\n                    emit ExecutionFailure(transactionId);\n                    txn.executed = false;\n                }\n            }\n        }\n    }\n\n    /// @dev Returns the confirmation status of a transaction.\n    /// @param transactionId Transaction ID.\n    /// @return Confirmation status.\n    function isConfirmed(uint transactionId)\n    public\n    constant\n    returns (bool)\n    {\n        uint count = 0;\n        for (uint i=0; i<owners.length; i++) {\n            if (confirmations[transactionId][owners[i]])\n                count += 1;\n            if (count == required)\n                return true;\n        }\n    }\n\n    /*\n     * Internal functions\n     */\n    /// @dev Adds a new transaction to the transaction mapping, if transaction does not exist yet.\n    /// @param destination Transaction target address.\n    /// @param value Transaction ether value.\n    /// @param data Transaction data payload.\n    /// @return Returns transaction ID.\n    function addTransaction(address destination, uint value, bytes data)\n    internal\n    notNull(destination)\n    returns (uint transactionId)\n    {\n        transactionId = transactionCount;\n        transactions[transactionId] = Transaction({\n            destination: destination,\n            value: value,\n            data: data,\n            executed: false\n        });\n        transactionCount += 1;\n        emit Submission(transactionId);\n    }\n\n    /*\n     * Web3 call functions\n     */\n    /// @dev Returns number of confirmations of a transaction.\n    /// @param transactionId Transaction ID.\n    /// @return Number of confirmations.\n    function getConfirmationCount(uint transactionId)\n    public\n    constant\n    returns (uint count)\n    {\n        for (uint i=0; i<owners.length; i++)\n            if (confirmations[transactionId][owners[i]])\n                count += 1;\n    }\n\n    /// @dev Returns total number of transactions after filers are applied.\n    /// @param pending Include pending transactions.\n    /// @param executed Include executed transactions.\n    /// @return Total number of transactions after filters are applied.\n    function getTransactionCount(bool pending, bool executed)\n    public\n    constant\n    returns (uint count)\n    {\n        for (uint i=0; i<transactionCount; i++)\n            if (   pending && !transactions[i].executed\n            || executed && transactions[i].executed)\n                count += 1;\n    }\n\n    /// @dev Returns list of owners.\n    /// @return List of owner addresses.\n    function getOwners()\n    public\n    constant\n    returns (address[])\n    {\n        return owners;\n    }\n\n    /// @dev Returns array with owner addresses, which confirmed transaction.\n    /// @param transactionId Transaction ID.\n    /// @return Returns array of owner addresses.\n    function getConfirmations(uint transactionId)\n    public\n    constant\n    returns (address[] _confirmations)\n    {\n        address[] memory confirmationsTemp = new address[](owners.length);\n        uint count = 0;\n        uint i;\n        for (i=0; i<owners.length; i++)\n            if (confirmations[transactionId][owners[i]]) {\n                confirmationsTemp[count] = owners[i];\n                count += 1;\n            }\n        _confirmations = new address[](count);\n        for (i=0; i<count; i++)\n            _confirmations[i] = confirmationsTemp[i];\n    }\n\n    /// @dev Returns list of transaction IDs in defined range.\n    /// @param from Index start position of transaction array.\n    /// @param to Index end position of transaction array.\n    /// @param pending Include pending transactions.\n    /// @param executed Include executed transactions.\n    /// @return Returns array of transaction IDs.\n    function getTransactionIds(uint from, uint to, bool pending, bool executed)\n    public\n    constant\n    returns (uint[] _transactionIds)\n    {\n        uint end = to > transactionCount? transactionCount: to;\n        uint[] memory transactionIdsTemp = new uint[](end - from);\n        uint count = 0;\n        uint i;\n        for (i = from; i < to; i++) {\n            if ((pending && !transactions[i].executed)\n                || (executed && transactions[i].executed))\n            {\n                transactionIdsTemp[count] = i;\n                count += 1;\n            }\n        }\n        _transactionIds = new uint[](count);\n        for (i = 0; i < count; i++)\n            _transactionIds[i] = transactionIdsTemp[i];\n    }\n    \n    function getBurnCount() public view returns (uint256) {\n        return burnList.length;\n    }\n\n    function getBurn(uint burnId) public view returns (address _burner, uint256 _value, bytes _data) {\n        _burner = burnList[burnId].burner;\n        _value = burnList[burnId].value;\n        _data = burnList[burnId].data;\n    }\n}\n",
    "sourcePath": "/root/xxx/blahblah/contracts/TomoBridgeWrapTokenV2.sol",
    "compiler": {
        "name": "solc",
        "version": "0.4.26+commit.4563c3fc.Emscripten.clang"
    },
    "schemaVersion": "3.4.1",
    "updatedAt": "2021-06-04T04:18:51.705Z",
    "networkType": "ethereum",
    "devdoc": {
        "methods": {
            "addOwner(address)": {
                "details": "Allows to add a new owner. Transaction has to be sent by wallet.",
                "params": {
                    "owner": "Address of new owner."
                }
            },
            "allowance(address,address)": {
                "details": "Function to check the amount of tokens that an owner allowed to a spender.",
                "params": {
                    "owner": "address The address which owns the funds.",
                    "spender": "address The address which will spend the funds."
                },
                "return": "A uint256 specifying the amount of tokens still available for the spender."
            },
            "approve(address,uint256)": {
                "details": "Approve the passed address to spend the specified amount of tokens on behalf of msg.sender. Beware that changing an allowance with this method brings the risk that someone may use both the old and the new allowance by unfortunate transaction ordering. One possible solution to mitigate this race condition is to first reduce the spender's allowance to 0 and set the desired value afterwards: https://github.com/ethereum/EIPs/issues/20#issuecomment-263524729",
                "params": {
                    "spender": "The address which will spend the funds.",
                    "value": "The amount of tokens to be spent."
                }
            },
            "balanceOf(address)": {
                "details": "Gets the balance of the specified address.",
                "params": {
                    "owner": "The address to query the balance of."
                },
                "return": "An uint256 representing the amount owned by the passed address."
            },
            "burn(uint256,bytes)": {
                "details": "Allows an user to burn the token."
            },
            "changeRequirement(uint256)": {
                "details": "Allows to change the number of required confirmations. Transaction has to be sent by wallet.",
                "params": {
                    "_required": "Number of required confirmations."
                }
            },
            "confirmTransaction(uint256)": {
                "details": "Allows an owner to confirm a transaction.",
                "params": {
                    "transactionId": "Transaction ID."
                }
            },
            "executeTransaction(uint256)": {
                "details": "Allows anyone to execute a confirmed transaction.",
                "params": {
                    "transactionId": "Transaction ID."
                }
            },
            "getConfirmationCount(uint256)": {
                "details": "Returns number of confirmations of a transaction.",
                "params": {
                    "transactionId": "Transaction ID."
                },
                "return": "Number of confirmations."
            },
            "getConfirmations(uint256)": {
                "details": "Returns array with owner addresses, which confirmed transaction.",
                "params": {
                    "transactionId": "Transaction ID."
                },
                "return": "Returns array of owner addresses."
            },
            "getOwners()": {
                "details": "Returns list of owners.",
                "return": "List of owner addresses."
            },
            "getTransactionCount(bool,bool)": {
                "details": "Returns total number of transactions after filers are applied.",
                "params": {
                    "executed": "Include executed transactions.",
                    "pending": "Include pending transactions."
                },
                "return": "Total number of transactions after filters are applied."
            },
            "getTransactionIds(uint256,uint256,bool,bool)": {
                "details": "Returns list of transaction IDs in defined range.",
                "params": {
                    "executed": "Include executed transactions.",
                    "from": "Index start position of transaction array.",
                    "pending": "Include pending transactions.",
                    "to": "Index end position of transaction array."
                },
                "return": "Returns array of transaction IDs."
            },
            "isConfirmed(uint256)": {
                "details": "Returns the confirmation status of a transaction.",
                "params": {
                    "transactionId": "Transaction ID."
                },
                "return": "Confirmation status."
            },
            "removeOwner(address)": {
                "details": "Allows to remove an owner. Transaction has to be sent by wallet.",
                "params": {
                    "owner": "Address of owner."
                }
            },
            "replaceOwner(address,address)": {
                "details": "Allows to replace an owner with a new owner. Transaction has to be sent by wallet.",
                "params": {
                    "newOwner": "Address of new owner.",
                    "owner": "Address of owner to be replaced."
                }
            },
            "revokeConfirmation(uint256)": {
                "details": "Allows an owner to revoke a confirmation for a transaction.",
                "params": {
                    "transactionId": "Transaction ID."
                }
            },
            "setReceivingFeeWallet(address)": {
                "details": "Allows to set receiving fee address. Transaction has to be sent by wallet.",
                "params": {
                    "wallet": "Receiving fee address."
                }
            },
            "setWithdrawFeeTomo(uint256)": {
                "details": "Allows to change withdraw fee by tomo",
                "params": {
                    "withdrawFee": "Number of required confirmations."
                }
            },
            "submitTransaction(address,uint256,bytes)": {
                "details": "Allows an owner to submit and confirm a transaction.",
                "params": {
                    "data": "Transaction data payload.",
                    "destination": "Transaction target address.",
                    "value": "Transaction ether value."
                },
                "return": "Returns transaction ID."
            },
            "toggleFeeByTomoMode(bool)": {
                "details": "Allows to change withdraw fee mode. Transaction has to be sent by wallet.",
                "params": {
                    "isFeeByTomoMode": "Fee mode."
                }
            },
            "totalSupply()": {
                "details": "Total number of tokens in existence"
            },
            "transfer(address,uint256)": {
                "details": "Transfer token for a specified address",
                "params": {
                    "to": "The address to transfer to.",
                    "value": "The amount to be transferred."
                }
            },
            "transferFrom(address,address,uint256)": {
                "details": "Transfer tokens from one address to another",
                "params": {
                    "from": "address The address which you want to send tokens from",
                    "to": "address The address which you want to transfer to",
                    "value": "uint256 the amount of tokens to be transferred"
                }
            }
        }
    },
    "userdoc": {
        "methods": {}
    }
}