{
  "contractName": "TOMOXListing",
  "abi": [
    {
      "inputs": [],
      "payable": false,
      "stateMutability": "nonpayable",
      "type": "constructor",
      "signature": "constructor"
    },
    {
      "constant": true,
      "inputs": [],
      "name": "tokens",
      "outputs": [
        {
          "name": "",
          "type": "address[]"
        }
      ],
      "payable": false,
      "stateMutability": "view",
      "type": "function",
      "signature": "0x9d63848a"
    },
    {
      "constant": true,
      "inputs": [
        {
          "name": "token",
          "type": "address"
        }
      ],
      "name": "getTokenStatus",
      "outputs": [
        {
          "name": "",
          "type": "bool"
        }
      ],
      "payable": false,
      "stateMutability": "view",
      "type": "function",
      "signature": "0xa3ff31b5"
    },
    {
      "constant": false,
      "inputs": [
        {
          "name": "token",
          "type": "address"
        }
      ],
      "name": "apply",
      "outputs": [],
      "payable": true,
      "stateMutability": "payable",
      "type": "function",
      "signature": "0xc6b32f34"
    }
  ],
  "bytecode": "0x608060405234801561001057600080fd5b5061027b806100206000396000f3006080604052600436106100565763ffffffff7c01000000000000000000000000000000000000000000000000000000006000350416639d63848a811461005b578063a3ff31b5146100c0578063c6b32f34146100f5575b600080fd5b34801561006757600080fd5b5061007061010b565b60408051602080825283518183015283519192839290830191858101910280838360005b838110156100ac578181015183820152602001610094565b505050509050019250505060405180910390f35b3480156100cc57600080fd5b506100e1600160a060020a036004351661016d565b604080519115158252519081900360200190f35b610109600160a060020a036004351661018b565b005b6060600080548060200260200160405190810160405280929190818152602001828054801561016357602002820191906000526020600020905b8154600160a060020a03168152600190910190602001808311610145575b5050505050905090565b600160a060020a031660009081526001602052604090205460ff1690565b80600160a060020a03811615156101a157600080fd5b600160a060020a03811660009081526001602081905260409091205460ff16151514156101cd57600080fd5b5060008054600180820183557f290decd9548b62a8d60345a988386fc84ba6bc95484008f6362f93160ef3e563909101805473ffffffffffffffffffffffffffffffffffffffff1916600160a060020a039490941693841790556040805160208082018352838252948452919093529190209051815460ff19169015151790555600a165627a7a723058204d7aabb46b95773b9fee785eebd93890edd8e85b7f87b20a9758c4352fda1cd90029",
  "source": "pragma solidity ^0.4.24;\n\ncontract TOMOXListing {\n\n    address[] _tokens;\n    mapping(address => TokenState) tokensState;\n\n\n    struct TokenState {\n        bool isActive;\n    }\n\n    constructor () public { }\n\n    modifier onlyValidApplyNewToken(address token){\n        require(token != address(0));\n        require(tokensState[token].isActive != true);\n        _;\n    }\n\n    function tokens() public view returns(address[]) {\n        return _tokens;\n    }\n\n    function getTokenStatus(address token) public view returns(bool) {\n        return tokensState[token].isActive;\n    }\n\n    function apply(address token) public payable onlyValidApplyNewToken(token){\n        _tokens.push(token);\n        tokensState[token] = TokenState({\n            isActive: true\n        });\n    }\n}\n",
  "sourcePath": "/home/vagrant/projects/tomoissuer/contracts/TOMOXListing.sol",
  "compiler": {
    "name": "solc",
    "version": "0.4.26+commit.4563c3fc.Emscripten.clang"
  },
  "schemaVersion": "3.0.6",
  "updatedAt": "2019-06-18T09:24:53.810Z",
  "devdoc": {
    "methods": {}
  },
  "userdoc": {
    "methods": {}
  }
}