{
  "contractName": "TRC21",
  "abi": [
    {
      "anonymous": false,
      "inputs": [
        {
          "indexed": true,
          "name": "from",
          "type": "address"
        },
        {
          "indexed": true,
          "name": "to",
          "type": "address"
        },
        {
          "indexed": false,
          "name": "value",
          "type": "uint256"
        }
      ],
      "name": "Transfer",
      "type": "event"
    },
    {
      "anonymous": false,
      "inputs": [
        {
          "indexed": true,
          "name": "owner",
          "type": "address"
        },
        {
          "indexed": true,
          "name": "spender",
          "type": "address"
        },
        {
          "indexed": false,
          "name": "value",
          "type": "uint256"
        }
      ],
      "name": "Approval",
      "type": "event"
    },
    {
      "constant": true,
      "inputs": [
        {
          "indexed": true,
          "name": "from",
          "type": "address"
        },
        {
          "indexed": true,
          "name": "to",
          "type": "address"
        },
        {
          "indexed": true,
          "name": "issuer",
          "type": "address"
        },
        {
          "indexed": false,
          "name": "value",
          "type": "uint256"
        }
      ],
      "name": "Fee",
      "outputs": [
        {
          "name": "",
          "type": "uint256"
        }
      ],
      "payable": false,
      "stateMutability": "view",
      "type": "event",
      "anonymous": false
    },
    {
      "constant": true,
      "inputs": [],
      "name": "totalSupply",
      "outputs": [
        {
          "name": "",
          "type": "uint256"
        }
      ],
      "payable": false,
      "stateMutability": "view",
      "type": "function"
    },
    {
      "constant": true,
      "inputs": [],
      "name": "minFee",
      "outputs": [
        {
          "name": "",
          "type": "uint256"
        }
      ],
      "payable": false,
      "stateMutability": "view",
      "type": "function"
    },
    {
      "constant": true,
      "inputs": [
        {
          "name": "owner",
          "type": "address"
        }
      ],
      "name": "issuer",
      "outputs": [
        {
          "name": "",
          "type": "address"
        }
      ],
      "payable": false,
      "stateMutability": "view",
      "type": "function"
    },
    {
      "constant": true,
      "inputs": [
        {
          "name": "owner",
          "type": "address"
        },
        {
          "name": "spender",
          "type": "address"
        }
      ],
      "name": "balanceOf",
      "outputs": [
        {
          "name": "",
          "type": "uint256"
        }
      ],
      "payable": false,
      "stateMutability": "view",
      "type": "function"
    },
    {
      "constant": true,
      "inputs": [
        {
          "name": "value",
          "type": "uint256"
        },
        {
          "name": "value",
          "type": "uint256"
        }
      ],
      "name": "estimateFee",
      "outputs": [
        {
          "name": "",
          "type": "uint256"
        }
      ],
      "payable": false,
      "stateMutability": "view",
      "type": "function"
    },
    {
      "constant": true,
      "inputs": [
        {
          "name": "owner",
          "type": "address"
        },
        {
          "name": "spender",
          "type": "address"
        }
      ],
      "name": "allowance",
      "outputs": [
        {
          "name": "",
          "type": "uint256"
        }
      ],
      "payable": false,
      "stateMutability": "view",
      "type": "function"
    },
    {
      "constant": false,
      "inputs": [
        {
          "name": "to",
          "type": "address"
        },
        {
          "name": "value",
          "type": "uint256"
        },
        {
          "name": "value",
          "type": "uint256"
        }
      ],
      "name": "transfer",
      "outputs": [
        {
          "name": "",
          "type": "bool"
        }
      ],
      "payable": false,
      "stateMutability": "nonpayable",
      "type": "function"
    },
    {
      "constant": false,
      "inputs": [
        {
          "name": "spender",
          "type": "address"
        },
        {
          "name": "value",
          "type": "uint256"
        }
      ],
      "name": "approve",
      "outputs": [
        {
          "name": "",
          "type": "bool"
        }
      ],
      "payable": false,
      "stateMutability": "nonpayable",
      "type": "function"
    },
    {
      "constant": false,
      "inputs": [
        {
          "name": "from",
          "type": "address"
        },
        {
          "name": "to",
          "type": "address"
        },
        {
          "name": "value",
          "type": "uint256"
        }
      ],
      "name": "transferFrom",
      "outputs": [
        {
          "name": "",
          "type": "bool"
        }
      ],
      "payable": false,
      "stateMutability": "nonpayable",
      "type": "function"
    },
    {
      "constant": false,
      "inputs": [
        {
          "name": "value",
          "type": "uint256"
        }
      ],
      "name": "setMinFee",
      "outputs": [],
      "payable": false,
      "stateMutability": "nonpayable",
      "type": "function"
    }
  ],
  "bytecode": "0x608060405234801561001057600080fd5b506106ac806100206000396000f3006080604052600436106100985763ffffffff7c0100000000000000000000000000000000000000000000000000000000600035041663095ea7b3811461009d578063127e8e4d146100d557806318160ddd146100ff5780631d1438481461011457806323b872dd1461014557806324ec75901461016f57806370a0823114610184578063a9059cbb146101a5578063dd62ed3e146101c9575b600080fd5b3480156100a957600080fd5b506100c1600160a060020a03600435166024356101f0565b604080519115158252519081900360200190f35b3480156100e157600080fd5b506100ed6004356102aa565b60408051918252519081900360200190f35b34801561010b57600080fd5b506100ed6102d6565b34801561012057600080fd5b506101296102dc565b60408051600160a060020a039092168252519081900360200190f35b34801561015157600080fd5b506100c1600160a060020a03600435811690602435166044356102eb565b34801561017b57600080fd5b506100ed61042b565b34801561019057600080fd5b506100ed600160a060020a0360043516610431565b3480156101b157600080fd5b506100c1600160a060020a036004351660243561044c565b3480156101d557600080fd5b506100ed600160a060020a0360043581169060243516610505565b6000600160a060020a038316151561020757600080fd5b60015433600090815260208190526040902054101561022557600080fd5b336000818152600360209081526040808320600160a060020a038881168552925290912084905560025460015461026193929190911690610530565b604080518381529051600160a060020a0385169133917f8c5be1e5ebec7d5bd14f71427d1e84f3dd0314c0f7b2291e5b200ac8c7c3b9259181900360200190a350600192915050565b6001546000906102d0906102c4848463ffffffff61062216565b9063ffffffff61065716565b92915050565b60045490565b600254600160a060020a031690565b6000806103036001548461065790919063ffffffff16565b9050600160a060020a038416151561031a57600080fd5b8083111561032757600080fd5b600160a060020a038516600090815260036020908152604080832033845290915290205481111561035757600080fd5b600160a060020a038516600090815260036020908152604080832033845290915290205461038b908263ffffffff61066916565b600160a060020a03861660009081526003602090815260408083203384529091529020556103ba858585610530565b6002546001546103d7918791600160a060020a0390911690610530565b6002546001546040805191825251600160a060020a039283169287169133917ffcf5b3276434181e3c48bd3fe569b8939808f11e845d4b963693b9d7dbd6dd999181900360200190a4506001949350505050565b60015490565b600160a060020a031660009081526020819052604090205490565b6000806104646001548461065790919063ffffffff16565b9050600160a060020a038416151561047b57600080fd5b8083111561048857600080fd5b610493338585610530565b6002546001546104b0913391600160a060020a0390911690610530565b6002546001546040805191825251600160a060020a039283169287169133917ffcf5b3276434181e3c48bd3fe569b8939808f11e845d4b963693b9d7dbd6dd999181900360200190a4600191505b5092915050565b600160a060020a03918216600090815260036020908152604080832093909416825291909152205490565b600160a060020a03831660009081526020819052604090205481111561055557600080fd5b600160a060020a038216151561056a57600080fd5b600160a060020a038316600090815260208190526040902054610593908263ffffffff61066916565b600160a060020a0380851660009081526020819052604080822093909355908416815220546105c8908263ffffffff61065716565b600160a060020a038084166000818152602081815260409182902094909455805185815290519193928716927fddf252ad1be2c89b69c2b068fc378daa952ba7f163c4a11628f55a4df523b3ef92918290030190a3505050565b60008083151561063557600091506104fe565b5082820282848281151561064557fe5b041461065057600080fd5b9392505050565b60008282018381101561065057600080fd5b6000808383111561067957600080fd5b50509003905600a165627a7a72305820f5ebf6ca1940401bb0d04fc5f5417da65dd928252d156c8a3eed69863a35189f0029",
  "source": "pragma solidity ^0.4.24;\n\nlibrary SafeMath {\n\n    /**\n     * @dev Multiplies two numbers, reverts on overflow.\n     */\n    function mul(uint256 a, uint256 b) internal pure returns (uint256) {\n        // Gas optimization: this is cheaper than requiring 'a' not being zero, but the\n        // benefit is lost if 'b' is also tested.\n        // See: https://github.com/OpenZeppelin/openzeppelin-solidity/pull/522\n        if (a == 0) {\n            return 0;\n        }\n\n        uint256 c = a * b;\n        require(c / a == b);\n\n        return c;\n    }\n\n    /**\n     * @dev Integer division of two numbers truncating the quotient, reverts on division by zero.\n     */\n    function div(uint256 a, uint256 b) internal pure returns (uint256) {\n        require(b > 0); // Solidity only automatically asserts when dividing by 0\n        uint256 c = a / b;\n        // assert(a == b * c + a % b); // There is no case in which this doesn't hold\n\n        return c;\n    }\n\n    /**\n     * @dev Subtracts two numbers, reverts on overflow (i.e. if subtrahend is greater than minuend).\n     */\n    function sub(uint256 a, uint256 b) internal pure returns (uint256) {\n        require(b <= a);\n        uint256 c = a - b;\n\n        return c;\n    }\n\n    /**\n     * @dev Adds two numbers, reverts on overflow.\n     */\n    function add(uint256 a, uint256 b) internal pure returns (uint256) {\n        uint256 c = a + b;\n        require(c >= a);\n\n        return c;\n    }\n\n    /**\n     * @dev Divides two numbers and returns the remainder (unsigned integer modulo),\n     * reverts when dividing by zero.\n     */\n    function mod(uint256 a, uint256 b) internal pure returns (uint256) {\n        require(b != 0);\n        return a % b;\n    }\n}\n\n/**\n * @title TRC21 interface\n */\ninterface ITRC21 {\n\tfunction totalSupply() external view returns (uint256);\n\n\tfunction balanceOf(address who) external view returns (uint256);\n\n    function issuer() external view returns (address);\n\n\tfunction estimateFee(uint256 value) external view returns (uint256);\n\n\tfunction allowance(address owner, address spender) external view returns (uint256);\n\n\tfunction transfer(address to, uint256 value) external returns (bool);\n\n\tfunction approve(address spender, uint256 value) external returns (bool);\n\n\tfunction transferFrom(address from, address to, uint256 value) external returns (bool);\n\n\tevent Transfer(address indexed from, address indexed to, uint256 value);\n\n\tevent Approval(address indexed owner, address indexed spender, uint256 value);\n\n\tevent Fee(address indexed from, address indexed to, address indexed issuer, uint256 value);\n}\n\n/**\n * @title Standard TRC21 token\n * @dev Implementation of the basic standard token.\n */\ncontract TRC21 is ITRC21 {\n    using SafeMath for uint256;\n\n    mapping (address => uint256) private _balances;\n    uint256 private _minFee;\n    address private _issuer;\n    mapping (address => mapping (address => uint256)) private _allowed;\n    uint256 private _totalSupply;\n\n    /**\n     * @dev Total number of tokens in existence\n     */\n    function totalSupply() public view returns (uint256) {\n        return _totalSupply;\n    }\n\n    /**\n     * @dev  The amount fee that will be lost when transferring.\n     */\n    function minFee() public view returns (uint256) {\n        return _minFee;\n    }\n\n    /**\n     * @dev token's foundation\n     */\n    function issuer() public view returns (address) {\n        return _issuer;\n    }\n\n    /**\n     * @dev Gets the balance of the specified address.\n     * @param owner The address to query the balance of.\n     * @return An uint256 representing the amount owned by the passed address.\n     */\n    function balanceOf(address owner) public view returns (uint256) {\n        return _balances[owner];\n    }\n\n    /**\n     * @dev Estimate transaction fee.\n     * @param value amount tokens sent\n     */\n    function estimateFee(uint256 value) public view returns (uint256) {\n        return value.mul(0).add(_minFee);\n    }\n\n    /**\n     * @dev Function to check the amount of tokens that an owner allowed to a spender.\n     * @param owner address The address which owns the funds.\n     * @param spender address The address which will spend the funds.\n     * @return A uint256 specifying the amount of tokens still available for the spender.\n     */\n    function allowance(address owner,address spender) public\tview returns (uint256){\n        return _allowed[owner][spender];\n    }\n\n    /**\n     * @dev Transfer token for a specified address\n     * @param to The address to transfer to.\n     * @param value The amount to be transferred.\n     */\n    function transfer(address to, uint256 value) public returns (bool) {\n        uint256 total = value.add(_minFee);\n        require(to != address(0));\n        require(value <= total);\n        _transfer(msg.sender, to, value);\n        _transfer(msg.sender, _issuer, _minFee);\n        emit Fee(msg.sender, to, _issuer, _minFee);\n        return true;\n    }\n\n    /**\n     * @dev Approve the passed address to spend the specified amount of tokens on behalf of msg.sender.\n     * Beware that changing an allowance with this method brings the risk that someone may use both the old\n     * and the new allowance by unfortunate transaction ordering. One possible solution to mitigate this\n     * race condition is to first reduce the spender's allowance to 0 and set the desired value afterwards:\n     * https://github.com/ethereum/EIPs/issues/20#issuecomment-263524729\n     * @param spender The address which will spend the funds.\n     * @param value The amount of tokens to be spent.\n     */\n    function approve(address spender, uint256 value) public returns (bool) {\n        require(spender != address(0));\n        require(_balances[msg.sender]>=_minFee);\n        _allowed[msg.sender][spender] = value;\n        _transfer(msg.sender, _issuer, _minFee);\n        emit Approval(msg.sender, spender, value);\n        return true;\n    }\n\n    /**\n     * @dev Transfer tokens from one address to another\n     * @param from address The address which you want to send tokens from\n     * @param to address The address which you want to transfer to\n     * @param value uint256 the amount of tokens to be transferred\n     */\n    function transferFrom(address from,\taddress to,\tuint256 value)\tpublic returns (bool) {\n        uint256 total = value.add(_minFee);\n        require(to != address(0));\n        require(value <= total);\n        require(total <= _allowed[from][msg.sender]);\n\n        _allowed[from][msg.sender] = _allowed[from][msg.sender].sub(total);\n        _transfer(from, to, value);\n        _transfer(from, _issuer, _minFee);\n        emit Fee(msg.sender, to, _issuer, _minFee);\n        return true;\n    }\n\n    /**\n     * @dev Transfer token for a specified addresses\n     * @param from The address to transfer from.\n     * @param to The address to transfer to.\n     * @param value The amount to be transferred.\n     */\n    function _transfer(address from, address to, uint256 value) internal {\n        require(value <= _balances[from]);\n        require(to != address(0));\n        _balances[from] = _balances[from].sub(value);\n        _balances[to] = _balances[to].add(value);\n        emit Transfer(from, to, value);\n    }\n\n    /**\n     * @dev Internal function that mints an amount of the token and assigns it to\n     * an account. This encapsulates the modification of balances such that the\n     * proper events are emitted.\n     * @param account The account that will receive the created tokens.\n     * @param value The amount that will be created.\n     */\n    function _mint(address account, uint256 value) internal {\n        require(account != 0);\n        _totalSupply = _totalSupply.add(value);\n        _balances[account] = _balances[account].add(value);\n        emit Transfer(address(0), account, value);\n    }\n\n    /**\n     * @dev Transfers token's foundation to new issuer\n     * @param newIssuer The address to transfer ownership to.\n     */\n    function _changeIssuer(address newIssuer) internal {\n        require(newIssuer != address(0));\n        _issuer = newIssuer;\n    }\n\n    /**\n     * @dev Change minFee\n     * @param value minFee\n     */\n    function _changeMinFee(uint256 value) internal {\n        _minFee = value;\n    }\n\n}\n\ncontract MyTRC21 is TRC21 {\n    string private _name;\n    string private _symbol;\n    uint8 private _decimals;\n\n    constructor (string memory name, string memory symbol, uint8 decimals, uint256 cap, uint256 minFee) public {\n        _name = name;\n        _symbol = symbol;\n        _decimals = decimals;\n        _mint(msg.sender, cap);\n        _changeIssuer(msg.sender);\n        _changeMinFee(minFee);\n    }\n\n    /**\n     * @return the name of the token.\n     */\n    function name() public view returns (string memory) {\n        return _name;\n    }\n\n    /**\n     * @return the symbol of the token.\n     */\n    function symbol() public view returns (string memory) {\n        return _symbol;\n    }\n\n    /**\n     * @return the number of decimals of the token.\n     */\n    function decimals() public view returns (uint8) {\n        return _decimals;\n    }\n\n    function setMinFee(uint256 value) public {\n        require(msg.sender == issuer());\n        _changeMinFee(value);\n    }\n\n}\n",
  "sourcePath": "/home/vagrant/projects/tomoissuer/contracts/TRC21.sol",
  "compiler": {
    "name": "solc",
    "version": "0.4.26+commit.4563c3fc.Emscripten.clang"
  },
  "schemaVersion": "3.0.6",
  "updatedAt": "2019-05-28T07:25:59.884Z",
  "devdoc": {
    "methods": {
      "allowance(address,address)": {
        "details": "Function to check the amount of tokens that an owner allowed to a spender.",
        "params": {
          "owner": "address The address which owns the funds.",
          "spender": "address The address which will spend the funds."
        },
        "return": "A uint256 specifying the amount of tokens still available for the spender."
      },
      "approve(address,uint256)": {
        "details": "Approve the passed address to spend the specified amount of tokens on behalf of msg.sender. Beware that changing an allowance with this method brings the risk that someone may use both the old and the new allowance by unfortunate transaction ordering. One possible solution to mitigate this race condition is to first reduce the spender's allowance to 0 and set the desired value afterwards: https://github.com/ethereum/EIPs/issues/20#issuecomment-263524729",
        "params": {
          "spender": "The address which will spend the funds.",
          "value": "The amount of tokens to be spent."
        }
      },
      "balanceOf(address)": {
        "details": "Gets the balance of the specified address.",
        "params": {
          "owner": "The address to query the balance of."
        },
        "return": "An uint256 representing the amount owned by the passed address."
      },
      "decreaseAllowance(address,uint256)": {
        "details": "Decrease the amount of tokens that an owner allowed to a spender. approve should be called when allowed_[_spender] == 0. To decrement allowed value is better to use this function to avoid 2 calls (and wait until the first transaction is mined) From MonolithDAO Token.sol",
        "params": {
          "spender": "The address which will spend the funds.",
          "subtractedValue": "The amount of tokens to decrease the allowance by."
        }
      },
      "increaseAllowance(address,uint256)": {
        "details": "Increase the amount of tokens that an owner allowed to a spender. approve should be called when allowed_[_spender] == 0. To increment allowed value is better to use this function to avoid 2 calls (and wait until the first transaction is mined) From MonolithDAO Token.sol",
        "params": {
          "addedValue": "The amount of tokens to increase the allowance by.",
          "spender": "The address which will spend the funds."
        }
      },
      "minFee()": {
        "details": "The amount fee that will be lost when transferring."
      },
      "owner()": {
        "details": "token's foudation"
      },
      "totalSupply()": {
        "details": "Total number of tokens in existence"
      },
      "transfer(address,uint256)": {
        "details": "Transfer token for a specified address",
        "params": {
          "to": "The address to transfer to.",
          "value": "The amount to be transferred."
        }
      },
      "transferFrom(address,address,uint256)": {
        "details": "Transfer tokens from one address to another",
        "params": {
          "from": "address The address which you want to send tokens from",
          "to": "address The address which you want to transfer to",
          "value": "uint256 the amount of tokens to be transferred"
        }
      },
      "estimateFee(uint256)": {
        "details": "Estimate transaction fee.",
        "params": {
          "value": "amount tokens sent"
        }
      },
      "issuer()": {
        "details": "token's foundation"
      }
    },
    "title": "Standard TRC21 token"
  },
  "userdoc": {
    "methods": {}
  }
}