{
  "contractName": "TRC21Issuer",
  "abi": [
    {
      "constant": true,
      "inputs": [],
      "name": "_delay",
      "outputs": [
        {
          "name": "",
          "type": "uint256"
        }
      ],
      "payable": false,
      "stateMutability": "view",
      "type": "function",
      "signature": "0xe8363743"
    },
    {
      "inputs": [
        {
          "name": "delay",
          "type": "uint256"
        },
        {
          "name": "value",
          "type": "uint256"
        }
      ],
      "payable": false,
      "stateMutability": "nonpayable",
      "type": "constructor",
      "signature": "constructor"
    },
    {
      "constant": true,
      "inputs": [],
      "name": "minApply",
      "outputs": [
        {
          "name": "",
          "type": "uint256"
        }
      ],
      "payable": false,
      "stateMutability": "view",
      "type": "function",
      "signature": "0x64fd173b"
    },
    {
      "constant": true,
      "inputs": [],
      "name": "withdrawDelay",
      "outputs": [
        {
          "name": "",
          "type": "uint256"
        }
      ],
      "payable": false,
      "stateMutability": "view",
      "type": "function",
      "signature": "0x0288a39c"
    },
    {
      "constant": true,
      "inputs": [],
      "name": "tokens",
      "outputs": [
        {
          "name": "",
          "type": "address[]"
        }
      ],
      "payable": false,
      "stateMutability": "view",
      "type": "function",
      "signature": "0x9d63848a"
    },
    {
      "constant": true,
      "inputs": [
        {
          "name": "token",
          "type": "address"
        }
      ],
      "name": "tokenBalance",
      "outputs": [
        {
          "name": "",
          "type": "uint256"
        }
      ],
      "payable": false,
      "stateMutability": "view",
      "type": "function",
      "signature": "0xeedc966a"
    },
    {
      "constant": true,
      "inputs": [
        {
          "name": "token",
          "type": "address"
        }
      ],
      "name": "tokenOwner",
      "outputs": [
        {
          "name": "",
          "type": "address"
        }
      ],
      "payable": false,
      "stateMutability": "view",
      "type": "function",
      "signature": "0x3ab69b62"
    },
    {
      "constant": true,
      "inputs": [
        {
          "name": "token",
          "type": "address"
        }
      ],
      "name": "tokenStatus",
      "outputs": [
        {
          "name": "",
          "type": "bool"
        }
      ],
      "payable": false,
      "stateMutability": "view",
      "type": "function",
      "signature": "0x0acac942"
    },
    {
      "constant": true,
      "inputs": [
        {
          "name": "token",
          "type": "address"
        }
      ],
      "name": "tokenEndNumber",
      "outputs": [
        {
          "name": "",
          "type": "uint256"
        }
      ],
      "payable": false,
      "stateMutability": "view",
      "type": "function",
      "signature": "0x64e6677a"
    },
    {
      "constant": false,
      "inputs": [
        {
          "name": "token",
          "type": "address"
        }
      ],
      "name": "applyToken",
      "outputs": [],
      "payable": true,
      "stateMutability": "payable",
      "type": "function",
      "signature": "0x1612ec4f"
    },
    {
      "constant": false,
      "inputs": [
        {
          "name": "token",
          "type": "address"
        }
      ],
      "name": "depositFee",
      "outputs": [],
      "payable": true,
      "stateMutability": "payable",
      "type": "function",
      "signature": "0x80352cfd"
    },
    {
      "constant": false,
      "inputs": [
        {
          "name": "token",
          "type": "address"
        }
      ],
      "name": "resignToken",
      "outputs": [],
      "payable": false,
      "stateMutability": "nonpayable",
      "type": "function",
      "signature": "0x5b6e7890"
    },
    {
      "constant": false,
      "inputs": [
        {
          "name": "token",
          "type": "address"
        }
      ],
      "name": "reActiveToken",
      "outputs": [],
      "payable": false,
      "stateMutability": "nonpayable",
      "type": "function",
      "signature": "0x9669f625"
    },
    {
      "constant": false,
      "inputs": [
        {
          "name": "token",
          "type": "address"
        }
      ],
      "name": "withdrawToken",
      "outputs": [],
      "payable": false,
      "stateMutability": "nonpayable",
      "type": "function",
      "signature": "0x89476069"
    }
  ],
  "bytecode": "0x608060405234801561001057600080fd5b506040516040806109008339810160405280516020909101516000919091556001556108bf806100416000396000f3006080604052600436106100c45763ffffffff7c01000000000000000000000000000000000000000000000000000000006000350416630288a39c81146100c95780630acac942146100f05780631612ec4f146101255780633ab69b621461013b5780635b6e78901461017857806364e6677a1461019957806364fd173b146101ba57806380352cfd146101cf57806389476069146101e35780639669f625146102045780639d63848a14610225578063e83637431461028a578063eedc966a1461029f575b600080fd5b3480156100d557600080fd5b506100de6102c0565b60408051918252519081900360200190f35b3480156100fc57600080fd5b50610111600160a060020a03600435166102c6565b604080519115158252519081900360200190f35b610139600160a060020a03600435166102ee565b005b34801561014757600080fd5b5061015c600160a060020a036004351661040f565b60408051600160a060020a039092168252519081900360200190f35b34801561018457600080fd5b50610139600160a060020a0360043516610430565b3480156101a557600080fd5b506100de600160a060020a0360043516610507565b3480156101c657600080fd5b506100de610525565b610139600160a060020a036004351661052b565b3480156101ef57600080fd5b50610139600160a060020a03600435166105fe565b34801561021057600080fd5b50610139600160a060020a0360043516610732565b34801561023157600080fd5b5061023a6107f7565b60408051602080825283518183015283519192839290830191858101910280838360005b8381101561027657818101518382015260200161025e565b505050509050019250505060405180910390f35b34801561029657600080fd5b506100de610859565b3480156102ab57600080fd5b506100de600160a060020a036004351661085f565b60005490565b600160a060020a031660009081526003602052604090206001015460a060020a900460ff1690565b80600160a060020a038116151561030457600080fd5b60015434101561031357600080fd5b600160a060020a03818116600090815260036020526040902060010154161561033b57600080fd5b5060028054600181810183557f405787fa12a823e0f2b7631cc41b3ba8828b3321ca811111fa75cd3aa3bb5ace9091018054600160a060020a0394851673ffffffffffffffffffffffffffffffffffffffff199182168117909255604080516080810182523481523360208281019182528284018781526000606085018181529781526003909252939020915182555194810180549251151560a060020a0274ff00000000000000000000000000000000000000001996909816929093169190911793909316949094179093559151910155565b600160a060020a039081166000908152600360205260409020600101541690565b600081600160a060020a038116151561044857600080fd5b600160a060020a0381811660009081526003602052604090206001015416331461047157600080fd5b82600160a060020a038116151561048757600080fd5b600160a060020a03811660009081526003602052604090206001015460a060020a900460ff1615156104b857600080fd5b6000546104cb904363ffffffff61087a16565b50505050600160a060020a03166000908152600360205260409020600101805474ff000000000000000000000000000000000000000019169055565b600160a060020a031660009081526003602052604090206002015490565b60015490565b600081600160a060020a038116151561054357600080fd5b600160a060020a0381811660009081526003602052604090206001015416331461056c57600080fd5b82600160a060020a038116151561058257600080fd5b600160a060020a03811660009081526003602052604090206001015460a060020a900460ff1615156105b357600080fd5b600160a060020a0384166000908152600360205260409020546105dc903463ffffffff61087a16565b600160a060020a03909416600090815260036020526040902093909355505050565b80600160a060020a038116151561061457600080fd5b600160a060020a0381811660009081526003602052604090206001015416331461063d57600080fd5b81600160a060020a038116151561065357600080fd5b600160a060020a03811660009081526003602052604090206001015460a060020a900460ff161561068357600080fd5b600160a060020a038116600090815260036020526040812060020154116106a957600080fd5b600160a060020a0381166000908152600360205260409020600201544311156106d157600080fd5b600160a060020a038316600090815260036020526040808220549051339282156108fc02929190818181858888f19350505050158015610715573d6000803e3d6000fd5b505050600160a060020a0316600090815260036020526040812055565b80600160a060020a038116151561074857600080fd5b600160a060020a0381811660009081526003602052604090206001015416331461077157600080fd5b81600160a060020a038116151561078757600080fd5b600160a060020a03811660009081526003602052604090206001015460a060020a900460ff16156107b757600080fd5b5050600160a060020a03166000908152600360205260409020600101805474ff0000000000000000000000000000000000000000191660a060020a179055565b6060600280548060200260200160405190810160405280929190818152602001828054801561084f57602002820191906000526020600020905b8154600160a060020a03168152600190910190602001808311610831575b5050505050905090565b60005481565b600160a060020a031660009081526003602052604090205490565b60008282018381101561088c57600080fd5b93925050505600a165627a7a7230582074ea094b9652972c4116d17f3db1b9ef98a43da9311f152b3142213fe798984b0029",
  "source": "pragma solidity ^0.4.24;\n\nlibrary SafeMath {\n\n\t/**\n\t * @dev Multiplies two numbers, reverts on overflow.\n\t */\n\tfunction mul(uint256 a, uint256 b) internal pure returns (uint256) {\n\t\t// Gas optimization: this is cheaper than requiring 'a' not being zero, but the\n\t\t// benefit is lost if 'b' is also tested.\n\t\t// See: https://github.com/OpenZeppelin/openzeppelin-solidity/pull/522\n\t\tif (a == 0) {\n\t\t\treturn 0;\n\t\t}\n\n\t\tuint256 c = a * b;\n\t\trequire(c / a == b);\n\n\t\treturn c;\n\t}\n\n\t/**\n\t * @dev Integer division of two numbers truncating the quotient, reverts on division by zero.\n\t */\n\tfunction div(uint256 a, uint256 b) internal pure returns (uint256) {\n\t\trequire(b > 0); // Solidity only automatically asserts when dividing by 0\n\t\tuint256 c = a / b;\n\t\t// assert(a == b * c + a % b); // There is no case in which this doesn't hold\n\n\t\treturn c;\n\t}\n\n\t/**\n\t* @dev Subtracts two numbers, reverts on overflow (i.e. if subtrahend is greater than minuend).\n\t*/\n\tfunction sub(uint256 a, uint256 b) internal pure returns (uint256) {\n\t\trequire(b <= a);\n\t\tuint256 c = a - b;\n\n\t\treturn c;\n\t}\n\n\t/**\n\t* @dev Adds two numbers, reverts on overflow.\n\t*/\n\tfunction add(uint256 a, uint256 b) internal pure returns (uint256) {\n\t\tuint256 c = a + b;\n\t\trequire(c >= a);\n\n\t\treturn c;\n\t}\n\n\t/**\n\t* @dev Divides two numbers and returns the remainder (unsigned integer modulo),\n\t* reverts when dividing by zero.\n\t\t*/\n\tfunction mod(uint256 a, uint256 b) internal pure returns (uint256) {\n\t\trequire(b != 0);\n\t\treturn a % b;\n\t}\n}\n\ncontract TRC21Issuer {\n    using SafeMath for uint256;\n    uint256 public _delay;\n    uint256 _minApply;\n    address[] _tokens;\n    mapping(address=>TokenState) tokensState;\n\n\n    struct TokenState{\n        uint256 balance;\n        address owner;\n        bool isActive;\n        uint256 endNumber;\n    }\n\n    constructor (uint256 delay, uint256 value) public {\n        _delay=delay;\n        _minApply=value;\n    }\n\n    function minApply() public view returns(uint256) {\n        return _minApply;\n    }\n\n    function withdrawDelay() public view returns(uint256) {\n        return _delay;\n    }\n\n    function tokens() public view returns(address[]) {\n        return _tokens;\n    }\n\n    function tokenBalance(address token) public view returns(uint256) {\n        return tokensState[token].balance;\n    }\n\n    function tokenOwner(address token) public view returns(address) {\n        return tokensState[token].owner;\n    }\n\n    function tokenStatus(address token) public view returns(bool) {\n        return tokensState[token].isActive;\n    }\n\n    function tokenEndNumber(address token) public view returns(uint256) {\n        return tokensState[token].endNumber;\n    }\n\n    modifier isOwnerToken(address token){\n        require(token != address(0));\n        require(tokensState[token].owner==msg.sender);\n        _;\n    }\n    modifier onlyValidApplyNewToken(address token){\n        require(token != address(0));\n        require(msg.value >= _minApply);\n        require(tokensState[token].owner==address(0));\n        _;\n    }\n\n    modifier onlyValidActiveToken(address token){\n        require(token != address(0));\n        require(tokensState[token].isActive);\n        _;\n    }\n\n    modifier onlyValidWithDrawToken(address token){\n        require(token != address(0));\n        require(!tokensState[token].isActive);\n        require(tokensState[token].endNumber>0);\n        require(tokensState[token].endNumber>=block.number);\n        _;\n    }\n\n    modifier onlyValidReActiveToken(address token){\n        require(token != address(0));\n        require(!tokensState[token].isActive);\n        _;\n    }\n\n    function applyToken(address token) public payable onlyValidApplyNewToken(token){\n        _tokens.push(token);\n        tokensState[token] = TokenState({\n            owner: msg.sender,\n            isActive: true,\n            balance:msg.value,\n            endNumber:0\n        });\n    }\n\n    function depositFee(address token) public payable isOwnerToken(token) onlyValidActiveToken(token){\n        uint256 newBalance = tokensState[token].balance.add(msg.value);\n        tokensState[token].balance=newBalance;\n    }\n    function resignToken(address token) public isOwnerToken(token) onlyValidActiveToken(token) {\n        uint256 withdrawNumber = _delay.add(block.number);\n        tokensState[token].endNumber==withdrawNumber;\n        tokensState[token].isActive=false;\n    }\n\n    function reActiveToken(address token) public isOwnerToken(token) onlyValidReActiveToken(token) {\n        tokensState[token].endNumber==0;\n        tokensState[token].isActive=true;\n    }\n\n    function withdrawToken(address token) public isOwnerToken(token) onlyValidWithDrawToken(token) {\n        msg.sender.transfer(tokensState[token].balance);\n        tokensState[token].balance=0;\n    }\n}\n",
  "sourcePath": "/home/vagrant/projects/tomoissuer/contracts/TRC21Issuer.sol",
  "compiler": {
    "name": "solc",
    "version": "0.4.26+commit.4563c3fc.Emscripten.clang"
  },
  "schemaVersion": "3.0.6",
  "updatedAt": "2019-05-14T07:28:14.521Z",
  "devdoc": {
    "methods": {}
  },
  "userdoc": {
    "methods": {}
  }
}