{
  "contractName": "TRC21Issuer",
  "abi": [
    {
      "inputs": [
        {
          "name": "value",
          "type": "uint256"
        }
      ],
      "payable": false,
      "stateMutability": "nonpayable",
      "type": "constructor",
      "signature": "constructor"
    },
    {
      "anonymous": false,
      "inputs": [
        {
          "indexed": true,
          "name": "issuer",
          "type": "address"
        },
        {
          "indexed": true,
          "name": "token",
          "type": "address"
        },
        {
          "indexed": false,
          "name": "value",
          "type": "uint256"
        }
      ],
      "name": "Apply",
      "type": "event",
      "signature": "0x2d485624158277d5113a56388c3abf5c20e3511dd112123ba376d16b21e4d716"
    },
    {
      "anonymous": false,
      "inputs": [
        {
          "indexed": true,
          "name": "supporter",
          "type": "address"
        },
        {
          "indexed": true,
          "name": "token",
          "type": "address"
        },
        {
          "indexed": false,
          "name": "value",
          "type": "uint256"
        }
      ],
      "name": "Charge",
      "type": "event",
      "signature": "0x5cffac866325fd9b2a8ea8df2f110a0058313b279402d15ae28dd324a2282e06"
    },
    {
      "constant": true,
      "inputs": [],
      "name": "minCap",
      "outputs": [
        {
          "name": "",
          "type": "uint256"
        }
      ],
      "payable": false,
      "stateMutability": "view",
      "type": "function",
      "signature": "0x3fa615b0"
    },
    {
      "constant": true,
      "inputs": [],
      "name": "tokens",
      "outputs": [
        {
          "name": "",
          "type": "address[]"
        }
      ],
      "payable": false,
      "stateMutability": "view",
      "type": "function",
      "signature": "0x9d63848a"
    },
    {
      "constant": true,
      "inputs": [
        {
          "name": "token",
          "type": "address"
        }
      ],
      "name": "getTokenCapacity",
      "outputs": [
        {
          "name": "",
          "type": "uint256"
        }
      ],
      "payable": false,
      "stateMutability": "view",
      "type": "function",
      "signature": "0x8f3a981c"
    },
    {
      "constant": false,
      "inputs": [
        {
          "name": "token",
          "type": "address"
        }
      ],
      "name": "apply",
      "outputs": [],
      "payable": true,
      "stateMutability": "payable",
      "type": "function",
      "signature": "0xc6b32f34"
    },
    {
      "constant": false,
      "inputs": [
        {
          "name": "token",
          "type": "address"
        }
      ],
      "name": "charge",
      "outputs": [],
      "payable": true,
      "stateMutability": "payable",
      "type": "function",
      "signature": "0xfc6bd76a"
    }
  ],
  "bytecode": "0x608060405234801561001057600080fd5b5060405160208061047d8339810160405251600055610449806100346000396000f30060806040526004361061006c5763ffffffff7c01000000000000000000000000000000000000000000000000000000006000350416633fa615b081146100715780638f3a981c146100985780639d63848a146100b9578063c6b32f341461011e578063fc6bd76a14610134575b600080fd5b34801561007d57600080fd5b50610086610148565b60408051918252519081900360200190f35b3480156100a457600080fd5b50610086600160a060020a036004351661014e565b3480156100c557600080fd5b506100ce610169565b60408051602080825283518183015283519192839290830191858101910280838360005b8381101561010a5781810151838201526020016100f2565b505050509050019250505060405180910390f35b610132600160a060020a03600435166101cb565b005b610132600160a060020a036004351661035d565b60005490565b600160a060020a031660009081526002602052604090205490565b606060018054806020026020016040519081016040528092919081815260200182805480156101c157602002820191906000526020600020905b8154600160a060020a031681526001909101906020018083116101a3575b5050505050905090565b600081600160a060020a03811615156101e357600080fd5b6000543410156101f257600080fd5b82915033600160a060020a031682600160a060020a0316631d1438486040518163ffffffff167c0100000000000000000000000000000000000000000000000000000000028152600401602060405180830381600087803b15801561025657600080fd5b505af115801561026a573d6000803e3d6000fd5b505050506040513d602081101561028057600080fd5b5051600160a060020a03161461029557600080fd5b600180548082019091557fb10e2d527612073b26eecdfd717e6a320cf44b4afac2b0732d9fcbe2b7fa0cf601805473ffffffffffffffffffffffffffffffffffffffff1916600160a060020a0385169081179091556000908152600260205260409020546103039034610404565b600160a060020a0384166000818152600260209081526040918290209390935580513481529051919233927f2d485624158277d5113a56388c3abf5c20e3511dd112123ba376d16b21e4d7169281900390910190a3505050565b80600160a060020a038116151561037357600080fd5b60005434101561038257600080fd5b600160a060020a0382166000908152600260205260409020546103ab903463ffffffff61040416565b600160a060020a0383166000818152600260209081526040918290209390935580513481529051919233927f5cffac866325fd9b2a8ea8df2f110a0058313b279402d15ae28dd324a2282e069281900390910190a35050565b60008282018381101561041657600080fd5b93925050505600a165627a7a7230582092803591559c6eee629306822307cb18e600c414de6003417f7797c6725ac66d0029",
  "source": "pragma solidity ^0.4.24;\n\nlibrary SafeMath {\n\n\t/**\n\t * @dev Multiplies two numbers, reverts on overflow.\n\t */\n\tfunction mul(uint256 a, uint256 b) internal pure returns (uint256) {\n\t\t// Gas optimization: this is cheaper than requiring 'a' not being zero, but the\n\t\t// benefit is lost if 'b' is also tested.\n\t\t// See: https://github.com/OpenZeppelin/openzeppelin-solidity/pull/522\n\t\tif (a == 0) {\n\t\t\treturn 0;\n\t\t}\n\n\t\tuint256 c = a * b;\n\t\trequire(c / a == b);\n\n\t\treturn c;\n\t}\n\n\t/**\n\t * @dev Integer division of two numbers truncating the quotient, reverts on division by zero.\n\t */\n\tfunction div(uint256 a, uint256 b) internal pure returns (uint256) {\n\t\trequire(b > 0); // Solidity only automatically asserts when dividing by 0\n\t\tuint256 c = a / b;\n\t\t// assert(a == b * c + a % b); // There is no case in which this doesn't hold\n\n\t\treturn c;\n\t}\n\n    /**\n     * @dev Subtracts two numbers, reverts on overflow (i.e. if subtrahend is greater than minuend).\n     */\n    function sub(uint256 a, uint256 b) internal pure returns (uint256) {\n        require(b <= a);\n        uint256 c = a - b;\n\n        return c;\n    }\n\n    /**\n     * @dev Adds two numbers, reverts on overflow.\n     */\n    function add(uint256 a, uint256 b) internal pure returns (uint256) {\n        uint256 c = a + b;\n        require(c >= a);\n\n        return c;\n    }\n\n    /**\n     * @dev Divides two numbers and returns the remainder (unsigned integer modulo),\n     * reverts when dividing by zero.\n     */\n    function mod(uint256 a, uint256 b) internal pure returns (uint256) {\n        require(b != 0);\n        return a % b;\n    }\n}\n\ncontract AbstractTokenTRC21 {\n    function issuer() public view returns (address);\n}\n\ncontract TRC21Issuer {\n    using SafeMath for uint256;\n    uint256 _minCap;\n    address[] _tokens;\n    mapping(address => uint256) tokensState;\n\n\tevent Apply(address indexed issuer, address indexed token, uint256 value);\n\tevent Charge(address indexed supporter, address indexed token, uint256 value);\n\n    constructor (uint256 value) public {\n        _minCap = value;\n    }\n\n    function minCap() public view returns(uint256) {\n        return _minCap;\n    }\n\n    function tokens() public view returns(address[]) {\n        return _tokens;\n    }\n\n    function getTokenCapacity(address token) public view returns(uint256) {\n        return tokensState[token];\n    }\n\n    modifier onlyValidCapacity(address token) {\n        require(token != address(0));\n        require(msg.value >= _minCap);\n        _;\n    }\n\n    function apply(address token) public payable onlyValidCapacity(token) {\n        AbstractTokenTRC21 t = AbstractTokenTRC21(token);\n        require(t.issuer() == msg.sender);\n        _tokens.push(token);\n        tokensState[token] = tokensState[token].add(msg.value);\n        emit Apply(msg.sender, token, msg.value);\n    }\n\n    function charge(address token) public payable onlyValidCapacity(token) {\n        tokensState[token] = tokensState[token].add(msg.value);\n        emit Charge(msg.sender, token, msg.value);\n    }\n\n}\n",
  "sourcePath": "/home/vagrant/projects/tomoissuer/contracts/TRC21Issuer.sol",
  "compiler": {
    "name": "solc",
    "version": "0.4.26+commit.4563c3fc.Emscripten.clang"
  },
  "schemaVersion": "3.0.6",
  "updatedAt": "2019-06-18T09:24:53.802Z",
  "devdoc": {
    "methods": {}
  },
  "userdoc": {
    "methods": {}
  }
}