{
  "contractName": "TRC21",
  "abi": [
    {
      "anonymous": false,
      "inputs": [
        {
          "indexed": true,
          "name": "from",
          "type": "address"
        },
        {
          "indexed": true,
          "name": "to",
          "type": "address"
        },
        {
          "indexed": false,
          "name": "value",
          "type": "uint256"
        }
      ],
      "name": "Transfer",
      "type": "event"
    },
    {
      "anonymous": false,
      "inputs": [
        {
          "indexed": true,
          "name": "owner",
          "type": "address"
        },
        {
          "indexed": true,
          "name": "spender",
          "type": "address"
        },
        {
          "indexed": false,
          "name": "value",
          "type": "uint256"
        }
      ],
      "name": "Approval",
      "type": "event"
    },
    {
      "constant": true,
      "inputs": [],
      "name": "totalSupply",
      "outputs": [
        {
          "name": "",
          "type": "uint256"
        }
      ],
      "payable": false,
      "stateMutability": "view",
      "type": "function"
    },
    {
      "constant": true,
      "inputs": [],
      "name": "minFee",
      "outputs": [
        {
          "name": "",
          "type": "uint256"
        }
      ],
      "payable": false,
      "stateMutability": "view",
      "type": "function"
    },
    {
      "constant": true,
      "inputs": [],
      "name": "owner",
      "outputs": [
        {
          "name": "",
          "type": "address"
        }
      ],
      "payable": false,
      "stateMutability": "view",
      "type": "function"
    },
    {
      "constant": true,
      "inputs": [
        {
          "name": "owner",
          "type": "address"
        }
      ],
      "name": "balanceOf",
      "outputs": [
        {
          "name": "",
          "type": "uint256"
        }
      ],
      "payable": false,
      "stateMutability": "view",
      "type": "function"
    },
    {
      "constant": true,
      "inputs": [
        {
          "name": "owner",
          "type": "address"
        },
        {
          "name": "spender",
          "type": "address"
        }
      ],
      "name": "allowance",
      "outputs": [
        {
          "name": "",
          "type": "uint256"
        }
      ],
      "payable": false,
      "stateMutability": "view",
      "type": "function"
    },
    {
      "constant": false,
      "inputs": [
        {
          "name": "to",
          "type": "address"
        },
        {
          "name": "value",
          "type": "uint256"
        }
      ],
      "name": "transfer",
      "outputs": [
        {
          "name": "",
          "type": "bool"
        }
      ],
      "payable": false,
      "stateMutability": "nonpayable",
      "type": "function"
    },
    {
      "constant": false,
      "inputs": [
        {
          "name": "spender",
          "type": "address"
        },
        {
          "name": "value",
          "type": "uint256"
        }
      ],
      "name": "approve",
      "outputs": [
        {
          "name": "",
          "type": "bool"
        }
      ],
      "payable": false,
      "stateMutability": "nonpayable",
      "type": "function"
    },
    {
      "constant": false,
      "inputs": [
        {
          "name": "from",
          "type": "address"
        },
        {
          "name": "to",
          "type": "address"
        },
        {
          "name": "value",
          "type": "uint256"
        }
      ],
      "name": "transferFrom",
      "outputs": [
        {
          "name": "",
          "type": "bool"
        }
      ],
      "payable": false,
      "stateMutability": "nonpayable",
      "type": "function"
    },
    {
      "constant": false,
      "inputs": [
        {
          "name": "spender",
          "type": "address"
        },
        {
          "name": "addedValue",
          "type": "uint256"
        }
      ],
      "name": "increaseAllowance",
      "outputs": [
        {
          "name": "",
          "type": "bool"
        }
      ],
      "payable": false,
      "stateMutability": "nonpayable",
      "type": "function"
    },
    {
      "constant": false,
      "inputs": [
        {
          "name": "spender",
          "type": "address"
        },
        {
          "name": "subtractedValue",
          "type": "uint256"
        }
      ],
      "name": "decreaseAllowance",
      "outputs": [
        {
          "name": "",
          "type": "bool"
        }
      ],
      "payable": false,
      "stateMutability": "nonpayable",
      "type": "function"
    },
    {
      "constant": false,
      "inputs": [
        {
          "name": "value",
          "type": "uint256"
        }
      ],
      "name": "setMinFee",
      "outputs": [],
      "payable": false,
      "stateMutability": "nonpayable",
      "type": "function"
    }
  ],
  "bytecode": "0x608060405234801561001057600080fd5b506107ad806100206000396000f3006080604052600436106100ae5763ffffffff7c0100000000000000000000000000000000000000000000000000000000600035041663095ea7b381146100b357806318160ddd146100eb57806323b872dd1461011257806324ec75901461013c57806331ac992014610151578063395093511461016b57806370a082311461018f5780638da5cb5b146101b0578063a457c2d7146101e1578063a9059cbb14610205578063dd62ed3e14610229575b600080fd5b3480156100bf57600080fd5b506100d7600160a060020a0360043516602435610250565b604080519115158252519081900360200190f35b3480156100f757600080fd5b5061010061030a565b60408051918252519081900360200190f35b34801561011e57600080fd5b506100d7600160a060020a0360043581169060243516604435610310565b34801561014857600080fd5b50610100610407565b34801561015d57600080fd5b5061016960043561040d565b005b34801561017757600080fd5b506100d7600160a060020a0360043516602435610429565b34801561019b57600080fd5b50610100600160a060020a0360043516610533565b3480156101bc57600080fd5b506101c561054e565b60408051600160a060020a039092168252519081900360200190f35b3480156101ed57600080fd5b506100d7600160a060020a036004351660243561055d565b34801561021157600080fd5b506100d7600160a060020a03600435166024356105c6565b34801561023557600080fd5b50610100600160a060020a0360043581169060243516610634565b6000600160a060020a038316151561026757600080fd5b60035433600090815260208190526040902054101561028557600080fd5b336000818152600160209081526040808320600160a060020a03888116855292529091208490556004546003546102c19392919091169061065f565b604080518381529051600160a060020a0385169133917f8c5be1e5ebec7d5bd14f71427d1e84f3dd0314c0f7b2291e5b200ac8c7c3b9259181900360200190a350600192915050565b60025490565b6000806103286003548461075190919063ffffffff16565b9050600160a060020a038416151561033f57600080fd5b8083111561034c57600080fd5b600160a060020a038516600090815260016020908152604080832033845290915290205481111561037c57600080fd5b600160a060020a03851660009081526001602090815260408083203384529091529020546103b0908263ffffffff61076a16565b600160a060020a03861660009081526001602090815260408083203384529091529020556103df85858561065f565b6004546003546103fc918791600160a060020a039091169061065f565b506001949350505050565b60035490565b600454600160a060020a0316331461042457600080fd5b600355565b6000600160a060020a038316151561044057600080fd5b60035433600090815260208190526040902054101561045e57600080fd5b336000908152600160209081526040808320600160a060020a0387168452909152902054610492908363ffffffff61075116565b336000818152600160209081526040808320600160a060020a0389811685529252909120929092556004546003546104ce93919091169061065f565b336000818152600160209081526040808320600160a060020a0388168085529083529281902054815190815290519293927f8c5be1e5ebec7d5bd14f71427d1e84f3dd0314c0f7b2291e5b200ac8c7c3b925929181900390910190a350600192915050565b600160a060020a031660009081526020819052604090205490565b600454600160a060020a031690565b6000600160a060020a038316151561057457600080fd5b60035433600090815260208190526040902054101561059257600080fd5b336000908152600160209081526040808320600160a060020a0387168452909152902054610492908363ffffffff61076a16565b6000806105de6003548461075190919063ffffffff16565b9050600160a060020a03841615156105f557600080fd5b8083111561060257600080fd5b61060d33858561065f565b60045460035461062a913391600160a060020a039091169061065f565b5060019392505050565b600160a060020a03918216600090815260016020908152604080832093909416825291909152205490565b600160a060020a03831660009081526020819052604090205481111561068457600080fd5b600160a060020a038216151561069957600080fd5b600160a060020a0383166000908152602081905260409020546106c2908263ffffffff61076a16565b600160a060020a0380851660009081526020819052604080822093909355908416815220546106f7908263ffffffff61075116565b600160a060020a038084166000818152602081815260409182902094909455805185815290519193928716927fddf252ad1be2c89b69c2b068fc378daa952ba7f163c4a11628f55a4df523b3ef92918290030190a3505050565b60008282018381101561076357600080fd5b9392505050565b6000808383111561077a57600080fd5b50509003905600a165627a7a723058205f6c049c7c71a3fa7770af580afe56003a49689817b04a1eabdb35c75c5085ec0029",
  "source": "pragma solidity ^0.4.24;\n\nlibrary SafeMath {\n\n\t/**\n\t * @dev Multiplies two numbers, reverts on overflow.\n\t */\n\tfunction mul(uint256 a, uint256 b) internal pure returns (uint256) {\n\t\t// Gas optimization: this is cheaper than requiring 'a' not being zero, but the\n\t\t// benefit is lost if 'b' is also tested.\n\t\t// See: https://github.com/OpenZeppelin/openzeppelin-solidity/pull/522\n\t\tif (a == 0) {\n\t\t\treturn 0;\n\t\t}\n\n\t\tuint256 c = a * b;\n\t\trequire(c / a == b);\n\n\t\treturn c;\n\t}\n\n\t/**\n\t * @dev Integer division of two numbers truncating the quotient, reverts on division by zero.\n\t */\n\tfunction div(uint256 a, uint256 b) internal pure returns (uint256) {\n\t\trequire(b > 0); // Solidity only automatically asserts when dividing by 0\n\t\tuint256 c = a / b;\n\t\t// assert(a == b * c + a % b); // There is no case in which this doesn't hold\n\n\t\treturn c;\n\t}\n\n\t/**\n\t* @dev Subtracts two numbers, reverts on overflow (i.e. if subtrahend is greater than minuend).\n\t*/\n\tfunction sub(uint256 a, uint256 b) internal pure returns (uint256) {\n\t\trequire(b <= a);\n\t\tuint256 c = a - b;\n\n\t\treturn c;\n\t}\n\n\t/**\n\t* @dev Adds two numbers, reverts on overflow.\n\t*/\n\tfunction add(uint256 a, uint256 b) internal pure returns (uint256) {\n\t\tuint256 c = a + b;\n\t\trequire(c >= a);\n\n\t\treturn c;\n\t}\n\n\t/**\n\t* @dev Divides two numbers and returns the remainder (unsigned integer modulo),\n\t* reverts when dividing by zero.\n\t\t*/\n\tfunction mod(uint256 a, uint256 b) internal pure returns (uint256) {\n\t\trequire(b != 0);\n\t\treturn a % b;\n\t}\n}\n\n/**\n * @title Standard TRC21 token\n *\n * @dev Implementation of the basic standard token.\n * https://github.com/ethereum/EIPs/blob/master/EIPS/eip-20.md\n * Originally based on code by FirstBlood: https://github.com/Firstbloodio/token/blob/master/smart_contract/FirstBloodToken.sol\n */\n\ncontract TRC21 {\n\tusing SafeMath for uint256;\n\n\tmapping (address => uint256) private _balances;\n\tmapping (address => mapping (address => uint256)) private _allowed;\n\tuint256 private _totalSupply;\n    uint256 private _minFee;\n    address private _owner;\n\n\tevent Transfer(\n\t\taddress indexed from,\n\t\taddress indexed to,\n\t\tuint256 value\n\t);\n\n\tevent Approval(\n\t\taddress indexed owner,\n\t\taddress indexed spender,\n\t\tuint256 value\n\t);\n\n\t/**\n\t* @dev Total number of tokens in existence\n\t*/\n\tfunction totalSupply() public view returns (uint256) {\n\t\treturn _totalSupply;\n\t}\n    /**\n\t* @dev  The amount fee that will be lost when transferring.\n\t*/\n\tfunction minFee() public view returns (uint256) {\n\t\treturn _minFee;\n\t}\n     /**\n    * @dev token's foudation\n    */\n    function owner() public view returns (address) {\n    \treturn _owner;\n    }\n\t/**\n\t* @dev Gets the balance of the specified address.\n\t* @param owner The address to query the balance of.\n\t* @return An uint256 representing the amount owned by the passed address.\n\t */\n\tfunction balanceOf(address owner) public view returns (uint256) {\n\t\treturn _balances[owner];\n\t}\n\n\t/**\n\t* @dev Function to check the amount of tokens that an owner allowed to a spender.\n\t* @param owner address The address which owns the funds.\n\t* @param spender address The address which will spend the funds.\n\t* @return A uint256 specifying the amount of tokens still available for the spender.\n\t */\n\tfunction allowance(address owner,address spender) public\tview returns (uint256){\n\t    return _allowed[owner][spender];\n\t}\n\n\t/**\n\t* @dev Transfer token for a specified address\n\t* @param to The address to transfer to.\n\t* @param value The amount to be transferred.\n\t */\n\tfunction transfer(address to, uint256 value) public returns (bool) {\n\t    uint256 total = value.add(_minFee);\n        require(to != address(0));\n        require(value <= total);\n\t    _transfer(msg.sender, to, value);\n\t    _transfer(msg.sender, _owner, _minFee);\n\t\treturn true;\n\t}\n\n\t/**\n\t* @dev Approve the passed address to spend the specified amount of tokens on behalf of msg.sender.\n\t* Beware that changing an allowance with this method brings the risk that someone may use both the old\n\t* and the new allowance by unfortunate transaction ordering. One possible solution to mitigate this\n\t* race condition is to first reduce the spender's allowance to 0 and set the desired value afterwards:\n\t* https://github.com/ethereum/EIPs/issues/20#issuecomment-263524729\n\t* @param spender The address which will spend the funds.\n\t* @param value The amount of tokens to be spent.\n\t */\n\tfunction approve(address spender, uint256 value) public returns (bool) {\n\t\trequire(spender != address(0));\n        require(_balances[msg.sender]>=_minFee);\n    \t_allowed[msg.sender][spender] = value;\n    \t_transfer(msg.sender, _owner, _minFee);\n    \temit Approval(msg.sender, spender, value);\n\t    return true;\n    }\n\n    /**\n    * @dev Transfer tokens from one address to another\n    * @param from address The address which you want to send tokens from\n    * @param to address The address which you want to transfer to\n    * @param value uint256 the amount of tokens to be transferred\n     */\n    function transferFrom(address from,\taddress to,\tuint256 value)\tpublic returns (bool) {\n        uint256 total = value.add(_minFee);\n        require(to != address(0));\n        require(value <= total);\n    \trequire(total <= _allowed[from][msg.sender]);\n\n        _allowed[from][msg.sender] = _allowed[from][msg.sender].sub(total);\n        _transfer(from, to, value);\n        _transfer(from, _owner, _minFee);\n        return true;\n    }\n\n    /**\n    * @dev Increase the amount of tokens that an owner allowed to a spender.\n    * approve should be called when allowed_[_spender] == 0. To increment\n    * allowed value is better to use this function to avoid 2 calls (and wait until\n    * the first transaction is mined)\n    * From MonolithDAO Token.sol\n    * @param spender The address which will spend the funds.\n    * @param addedValue The amount of tokens to increase the allowance by.\n    */\n    function increaseAllowance(address spender,uint256 addedValue) public returns (bool){\n\t    require(spender != address(0));\n        require(_balances[msg.sender]>=_minFee);\n\t    _allowed[msg.sender][spender] = (\n        _allowed[msg.sender][spender].add(addedValue));\n\t    _transfer(msg.sender, _owner, _minFee);\n\t    emit Approval(msg.sender, spender, _allowed[msg.sender][spender]);\n        return true;\n    }\n\n    /**\n    * @dev Decrease the amount of tokens that an owner allowed to a spender.\n    * approve should be called when allowed_[_spender] == 0. To decrement\n    * allowed value is better to use this function to avoid 2 calls (and wait until\n    * the first transaction is mined)\n    * From MonolithDAO Token.sol\n    * @param spender The address which will spend the funds.\n    * @param subtractedValue The amount of tokens to decrease the allowance by.\n    */\n    function decreaseAllowance(address spender,uint256 subtractedValue) public returns (bool){\n        require(spender != address(0));\n        require(_balances[msg.sender]>=_minFee);\n\t    _allowed[msg.sender][spender] = (\n        _allowed[msg.sender][spender].sub(subtractedValue));\n        _transfer(msg.sender, _owner, _minFee);\n        emit Approval(msg.sender, spender, _allowed[msg.sender][spender]);\n        return true;\n    }\n\n    /**\n    * @dev Transfer token for a specified addresses\n    * @param from The address to transfer from.\n    * @param to The address to transfer to.\n    * @param value The amount to be transferred.\n    */\n    function _transfer(address from, address to, uint256 value) internal {\n\t    require(value <= _balances[from]);\n\t    require(to != address(0));\n\t    _balances[from] = _balances[from].sub(value);\n\t    _balances[to] = _balances[to].add(value);\n\t    emit Transfer(from, to, value);\n    }\n\n    /**\n    * @dev Internal function that mints an amount of the token and assigns it to\n    * an owner. This encapsulates the modification of balances such that the\n    * proper events are emitted.\n    * @param owner The account that will receive the created tokens.\n    * @param value The amount that will be created.\n    * @param amount The amount fee that will be lost when transferring.\n    */\n    function _mint(address owner, uint256 value,uint256 amount) internal {\n\t    require(owner != address(0));\n\t    _totalSupply = _totalSupply.add(value);\n\t    _minFee = amount;\n\t    _balances[owner] = _balances[owner].add(value);\n\t    _owner=owner;\n\t    emit Transfer(address(0), owner, value);\n    }\n\n    /**\n    * @dev Internal function that burns an amount of the token of a given\n    * account.\n    * @param account The account whose tokens will be burnt.\n    * @param value The amount that will be burnt.\n    */\n    function _burn(address account, uint256 value) internal {\n\t    require(account != address(0));\n\t    require(value <= _balances[account]);\n        _totalSupply = _totalSupply.sub(value);\n\t    _balances[account] = _balances[account].sub(value);\n\t    emit Transfer(account, address(0), value);\n    }\n\n    /**\n    * @dev Internal function that burns an amount of the token of a given\n    * account, deducting from the sender's allowance for said account. Uses the\n    * internal burn function.\n    * @param account The account whose tokens will be burnt.\n    * @param value The amount that will be burnt.\n    */\n    function _burnFrom(address account, uint256 value) internal {\n\t    require(value <= _allowed[account][msg.sender]);\n\t    // Should https://github.com/OpenZeppelin/zeppelin-solidity/issues/707 be accepted,\n\t    // this function needs to emit an event with the updated approval.\n\t    _allowed[account][msg.sender] = _allowed[account][msg.sender].sub(value);\n        _burn(account, value);\n    }\n\n    function setMinFee(uint256 value) public {\n        require(msg.sender==_owner);\n        _minFee=value;\n    }\n}\n\ncontract MyTRC21 is TRC21 {\n    string private _name;\n    string private _symbol;\n    uint8 private _decimals;\n\n    constructor (string memory name, string memory symbol, uint8 decimals, uint256 cap,uint256 minFee) public {\n        _name = name;\n        _symbol = symbol;\n        _decimals = decimals;\n        super._mint(msg.sender, cap,minFee);\n    }\n\n    /**\n     * @return the name of the token.\n     */\n    function name() public view returns (string memory) {\n        return _name;\n    }\n\n    /**\n     * @return the symbol of the token.\n     */\n    function symbol() public view returns (string memory) {\n        return _symbol;\n    }\n\n    /**\n     * @return the number of decimals of the token.\n     */\n    function decimals() public view returns (uint8) {\n        return _decimals;\n    }\n\n}\n",
  "sourcePath": "/home/vagrant/projects/tomoissuer/contracts/TRC21.sol",
  "compiler": {
    "name": "solc",
    "version": "0.4.26+commit.4563c3fc.Emscripten.clang"
  },
  "schemaVersion": "3.0.6",
  "updatedAt": "2019-05-13T10:43:12.943Z",
  "devdoc": {
    "methods": {
      "allowance(address,address)": {
        "details": "Function to check the amount of tokens that an owner allowed to a spender.",
        "params": {
          "owner": "address The address which owns the funds.",
          "spender": "address The address which will spend the funds."
        },
        "return": "A uint256 specifying the amount of tokens still available for the spender."
      },
      "approve(address,uint256)": {
        "details": "Approve the passed address to spend the specified amount of tokens on behalf of msg.sender. Beware that changing an allowance with this method brings the risk that someone may use both the old and the new allowance by unfortunate transaction ordering. One possible solution to mitigate this race condition is to first reduce the spender's allowance to 0 and set the desired value afterwards: https://github.com/ethereum/EIPs/issues/20#issuecomment-263524729",
        "params": {
          "spender": "The address which will spend the funds.",
          "value": "The amount of tokens to be spent."
        }
      },
      "balanceOf(address)": {
        "details": "Gets the balance of the specified address.",
        "params": {
          "owner": "The address to query the balance of."
        },
        "return": "An uint256 representing the amount owned by the passed address."
      },
      "decreaseAllowance(address,uint256)": {
        "details": "Decrease the amount of tokens that an owner allowed to a spender. approve should be called when allowed_[_spender] == 0. To decrement allowed value is better to use this function to avoid 2 calls (and wait until the first transaction is mined) From MonolithDAO Token.sol",
        "params": {
          "spender": "The address which will spend the funds.",
          "subtractedValue": "The amount of tokens to decrease the allowance by."
        }
      },
      "increaseAllowance(address,uint256)": {
        "details": "Increase the amount of tokens that an owner allowed to a spender. approve should be called when allowed_[_spender] == 0. To increment allowed value is better to use this function to avoid 2 calls (and wait until the first transaction is mined) From MonolithDAO Token.sol",
        "params": {
          "addedValue": "The amount of tokens to increase the allowance by.",
          "spender": "The address which will spend the funds."
        }
      },
      "minFee()": {
        "details": "The amount fee that will be lost when transferring."
      },
      "owner()": {
        "details": "token's foudation"
      },
      "totalSupply()": {
        "details": "Total number of tokens in existence"
      },
      "transfer(address,uint256)": {
        "details": "Transfer token for a specified address",
        "params": {
          "to": "The address to transfer to.",
          "value": "The amount to be transferred."
        }
      },
      "transferFrom(address,address,uint256)": {
        "details": "Transfer tokens from one address to another",
        "params": {
          "from": "address The address which you want to send tokens from",
          "to": "address The address which you want to transfer to",
          "value": "uint256 the amount of tokens to be transferred"
        }
      }
    },
    "title": "Standard TRC21 token"
  },
  "userdoc": {
    "methods": {}
  }
}